:100000000C9429010C9451010C9451010C94370764
:100010000C9437070C9437070C9451010C94510140
:100020000C9451010C9451010C9451010C94510108
:100030000C9451010C9451010C9451010C945101F8
:100040000C947E040C9451010C94B0010C948A0120
:100050000C9451010C9451010C9451010C945101D8
:100060000C94FD050C945101084AD73B3BCE016E20
:1000700084BCBFFDC12F3D6C74319ABD56833DDAFF
:100080003D00C77F11BED9E4BB4C3E916BAAAABE0E
:10009000000000803F00000000002300260029002F
:1000A00000000000250028002B00040404040404C0
:1000B0000404020202020202030303030303010217
:1000C00004081020408001020408102001020408E6
:1000D0001020B000526F6C6C00B0005069746368FF
:1000E0000047005A2D41786973004700592D417827
:1000F0006973004700582D417869730052435400DA
:1001000020202020472D53656E736F7200205243CC
:1001100054204A65746920546F6F6C73002020204E
:1001200020472D53656E736F720020524354204A4E
:1001300065746920546F6F6C73005072657373201F
:100140003C20746F20657869740053657474696E1F
:1001500067732073746F72656421004261636B3A48
:10016000203C00536176653A20557020616E642012
:10017000446E00B020436F723A0056616C3A200022
:1001800056616C3A0053657420526F6C6C20746F2A
:100190002030B000B020436F723A0056616C3A20B4
:1001A0000056616C3A00536574205069746368208E
:1001B000746F2030B0004720436F723A00205A3AE3
:1001C0002000205A3A0020536574205A20746F2072
:1001D000312E3047004720436F723A0020593A20B1
:1001E0000020593A0020536574205920746F203044
:1001F0002E3047004720436F723A0020583A2000C3
:1002000020583A0020536574205820746F20302EF7
:1002100030470020202020472D53656E736F7200F9
:1002200020524354204A65746920546F6F6C7300E8
:1002300000000000240027002A000000000800023F
:100240000100000304070000000000000000DE18A9
:10025000D41811241FBECFEFD8E0DEBFCDBF11E010
:10026000A0E0B1E0EEE8FDE302C005900D92A636F5
:10027000B107D9F723E0A6E6B1E001C01D92A63F81
:10028000B207E1F711E0C8E2D1E004C02197FE0116
:100290000E94681DC732D107C9F70E945D100C94F7
:1002A000BA1E0C940000CF92DF92EF92FF920F9350
:1002B0001F93CF93DF936C017A018B01C0E0D0E0F4
:1002C000CE15DF0589F0D8016D918D01D601ED9134
:1002D000FC910190F081E02DC6010995892B11F464
:1002E0007E0102C02196ECCFC701DF91CF911F9113
:1002F0000F91FF90EF90DF90CF9008950E949B1E8A
:1003000080E592E00E94150F21E0892B09F420E09E
:10031000822F08951F920F920FB60F9211242F93E0
:100320003F934F935F936F937F938F939F93AF937D
:10033000BF93EF93FF9380E592E00E94D30FFF916C
:10034000EF91BF91AF919F918F917F916F915F914D
:100350004F913F912F910F900FBE0F901F901895C6
:100360001F920F920FB60F9211242F938F939F938A
:10037000EF93FF93E0916002F09161028081E09140
:100380006602F091670282FD12C09081809169023D
:100390008F5F8F7320916A02821751F0E09169029A
:1003A000F0E0E05BFD4F958F8093690201C0808192
:1003B000FF91EF919F918F912F910F900FBE0F9012
:1003C0001F901895833081F028F4813099F08230A5
:1003D000A1F008958730A9F08830B9F08430D1F4C5
:1003E000809180008F7D03C0809180008F77809303
:1003F0008000089584B58F7702C084B58F7D84BD59
:1004000008958091B0008F7703C08091B0008F7DF8
:100410008093B000089585ED8093BC008091BC006E
:1004200084FDFCCF10922A0208954091B401262F3A
:1004300030E0240F311D21323105DCF420912A02F5
:100440002430C9F4FC0180E090E0861758F4309124
:10045000B4012191DC01AE56BE4FA30FB11D2C9308
:100460000196F3CF8091B401680F6093B40180E0EE
:10047000089581E0089582E008950895E091E301F0
:100480008091E201E81730F4F0E0EC51FE4F8081FA
:1004900090E008958FEF9FEF08959091E301809190
:1004A000E201981750F4E92FF0E0EC51FE4F208163
:1004B00030E09F5F9093E30102C02FEF3FEFC9014F
:1004C00008958091E20190E02091E301821B91095F
:1004D0000895CF92DF92EF92FF920F931F93CF93E5
:1004E000DF937C01262F972F8A0180912B0288238E
:1004F00091F0C62FD72F6E01C40ED51ECC15DD0589
:1005000071F06991D701ED91FC910190F081E02D9E
:10051000C7010995F3CF642F822F0E941502C801ED
:10052000DF91CF911F910F91FF90EF90DF90CF90CF
:100530000895CF93DF931F92CDB7DEB769832091E3
:100540002B022223D1F020914E02203240F021E0F4
:1005500030E0FC013383228380E090E015C080917D
:100560002C02E82FF0E0E35DFD4F998190838F5FCF
:1005700080932C0280934E0205C061E0CE0101966B
:100580000E94150281E090E00F90DF91CF910895D5
:100590000895DC015196ED91FC915297908150960F
:1005A0008C9180958923808308952091F003309168
:1005B000F1032817390771F49091EE038091EF034E
:1005C000981741F0E091EE03F0E0EE57FE4F808186
:1005D00090E008958FEF9FEF089508952091F00324
:1005E0003091F1032817390769F48091EF032091C6
:1005F000EE0390E04096821B910960E170E00E945A
:10060000401D089580E090E008952091F00330911E
:10061000F10328173907B9F49091EE038091EF03A5
:10062000981789F0E091EE03F0E0EE57FE4F8081DD
:100630002091EE0330E02F5F3F4F2F703327209340
:10064000EE0390E008958FEF9FEF0895089580E006
:1006500090E0089508950F931F93CF93DF938C013B
:10066000EB0188E2FB0111928A95E9F74BE050E03B
:100670006EE571E0CE010E94AB1E1B8681E090E02A
:10068000A0E0B0E08C879D87AE87BF87F8018381AB
:100690009481A581B681888B998BAA8BBB8B86E0D0
:1006A00090E0A0E0B0E08C8B9D8BAE8BBF8B1CA24A
:1006B0001DA21EA21FA28AE098EEACE1B3EC888FC7
:1006C000998FAA8FBB8F8AE098EEACE1B3E48C8F50
:1006D0009D8FAE8FBF8F83EA9FEAA0E2BDE388A320
:1006E00099A3AAA3BBA3DF91CF911F910F91089566
:1006F000CF92DF92EF92FF920F931F93CF93DF93EE
:10070000EC0189A19AA1009729F421E030E03B8314
:100710002A8371C00FB7F8948F8D98A1892B91F01F
:1007200028E030E090E081E0482F462309F09F5F09
:10073000880F21503109C1F7888D81119F5F192FD2
:10074000109501C010E0F62ECE010E94C90289A1C9
:100750009AA10197F1F788E0C82ED12CEE24E394FA
:100760008E2D8F2139F0E989FA8990818889892B2A
:10077000808303C0CE010E94C90289A19AA101977A
:10078000F1F7EE0C81E0C81AD10851F78E89882361
:1007900089F0888D882339F0E989FA8990818889E0
:1007A000892B808303C0CE010E94C90289A19AA12E
:1007B0000197F1F78F8D98A1892B81F010FF07C069
:1007C000E989FA8990818889892B808303C0CE01C9
:1007D0000E94C9028F8D98A10197F1F7E989FA89E2
:1007E00090818889892B80830FBF8D8D9E8D019785
:1007F000F1F781E090E0DF91CF911F910F91FF9091
:10080000EF90DF90CF9008950C94031E1F93CF9329
:10081000DF93282F30E0F901E65CFD4F8491F90168
:10082000E254FF4FD491F901E655FF4FC491CC2318
:10083000C9F0162F81110E94E201EC2FF0E0EE0FBB
:10084000FF1FE056FF4FA591B4918FB7F894111197
:1008500005C09C91ED2FE095E92302C0EC91ED2BB2
:10086000EC938FBFDF91CF911F910895CF93DF93CA
:1008700090E0FC01E254FF4F2491FC01E655FF4F4C
:100880008491882361F190E0880F991FFC01E05D5D
:10089000FD4FC591D491FC01E056FF4FA591B49155
:1008A000611109C09FB7F8948881209582238883BD
:1008B000EC912E230BC0623061F49FB7F89438811D
:1008C000822F809583238883EC912E2B2C939FBFBE
:1008D00006C08FB7F894E8812E2B28838FBFDF9155
:1008E000CF9108952FB7F8946091DE017091DF01E8
:1008F0008091E0019091E1012FBF08951F920F9226
:100900000FB60F9211242F933F938F939F93AF9322
:10091000BF938091DE019091DF01A091E001B09141
:10092000E1013091DD0126E0230F2D3720F40296FE
:10093000A11DB11D05C029E8230F0396A11DB11DFE
:100940002093DD018093DE019093DF01A093E0010D
:10095000B093E1018091D9019091DA01A091DB017E
:10096000B091DC010196A11DB11D8093D901909336
:10097000DA01A093DB01B093DC01BF91AF919F91AD
:100980008F913F912F910F900FBE0F901F90189550
:100990004F925F926F927F928F929F92AF92BF928F
:1009A000CF92DF92EF92FF920F931F93CF93DF933B
:1009B000982E842E722E07E010E0612CEE24E39432
:1009C000F12CC62FD0E0CE01865C9D4F6C01FE015C
:1009D000E254FF4F5F01C655DF4F660C60E0892D82
:1009E0000E940604B701002E01C0660F0A94EAF7C0
:1009F0006721882D0E94060461E0892D0E9406046B
:100A0000F6018491F5015490FE014490442081F058
:100A100081110E94E201A42DB0E0AA0FBB1FAA56CB
:100A2000BF4FFD0185919491FC0180815822A9F46A
:100A30000150110990F6862DDF91CF911F910F91F2
:100A4000FF90EF90DF90CF90BF90AF909F908F90EE
:100A50007F906F905F904F900895862D8160682EF3
:100A6000E7CF0F931F93CF93DF93EC01162F8D8564
:100A7000882319F181E080932B0283E580934D0256
:100A800010922C0210924E028DEE92E00E9499027A
:100A900081E00E94BF0B82E090E00E94640C8DEE2A
:100AA00092E00E944D02C82F8DEE92E00E944D020E
:100AB000982F88278C010C2B1EC060E08C850E942B
:100AC0000604212F206C4A856B8589850E94C80405
:100AD0002FEF4A856B8589850E94C804082F2FEF68
:100AE0004A856B8589850E94C80410E0182B61E057
:100AF0008C850E940604C801DF91CF911F910F9150
:100B000008950F931F93CF93DF938C01EB0184E241
:100B1000FB0111928A95E9F784E290E0A0E0B0E051
:100B200088839983AA83BB83F80183819481A581FB
:100B3000B6818C839D83AE83BF8381E090E0A0E08B
:100B4000B0E088879987AA87BB87188A198A1A8A8A
:100B50001B8A62E3C8010E943105BC01990F880B12
:100B6000990B0E949E1B2FE632E143E85BE30E9453
:100B7000821C2AE038EE4CE151E40E94821C6C8B0E
:100B80007D8B8E8B9F8B64E3C8010E943105BC0175
:100B9000990F880B990B0E949E1B2FE632E143E8C8
:100BA0005BE30E94821C2AE038EE4CE151E40E9493
:100BB000821C688F798F8A8F9B8F66E3C8010E94A1
:100BC0003105BC01990F880B990B0E949E1B2FE6E3
:100BD00032E143E85BE30E94821C2AE038EE4CE1FC
:100BE00051E40E94821C6C8F7D8F8E8F9F8F81E0DD
:100BF000DF91CF911F910F9108951F920F920FB621
:100C00000F9211242F933F934F935F936F937F9392
:100C10008F939F93AF93BF93EF93FF938091B9000E
:100C2000887F803609F49CC068F5883209F45BC07F
:100C300090F4803109F454C038F4882309F4F6C0E4
:100C4000883009F44DC0F6C0883109F44CC08032B8
:100C500009F45DC0EFC0803409F468C048F4803303
:100C600009F455C0883309F0E5C080932802D8C044
:100C7000803509F44FC0883509F45DC0883409F027
:100C8000D9C0D6C0883909F4C7C0A8F4883709F498
:100C900067C038F4883609F463C0803709F460C04F
:100CA000C9C0883809F4B8C0803909F45FC08038F9
:100CB00009F0C0C05BC0803B09F486C038F4803ABC
:100CC00009F466C0883A09F47FC0B4C0803C09F4D6
:100CD000A7C0883C09F4A4C0883B09F48AC0AAC014
:100CE0008091050210C090912702809126029817EA
:100CF00070F5E091270281E08E0F80932702F0E0EB
:100D0000EA5FFD4F80818093BB0085EC86C08093B5
:100D100028028EC0E091270281E08E0F8093270287
:100D20008091BB00F0E0EA5FFD4F80839091270245
:100D3000809126026EC0E091270281E08E0F8093A1
:100D400027028091BB00F0E0EA5FFD4F8083809135
:100D5000290281116DC081E08093040284EA61C0A0
:100D600083E080932A021092D801CFCF8091D801DE
:100D7000803208F051C0E091D80181E08E0F80935D
:100D8000D8018091BB00F0E0E854FE4F8083BDCFD6
:100D900085EC8093BC0010922A028091D8018032A9
:100DA00030F4E091D801F0E0E854FE4F10826091F9
:100DB000D80170E0E091B601F091B70188EB91E0C5
:100DC00009951092D80136C084E080932A021092CF
:100DD000B5011092B401E091B201F091B30109950F
:100DE0008091B401811105C081E08093B40110921B
:100DF0009201E091B50181E08E0F8093B501F0E0A2
:100E0000EE56FE4F80818093BB009091B50180919A
:100E1000B401981708F479CF85E88093BC000AC024
:100E200085EC8093BC0010922A0204C01092280224
:100E30000E940B02FF91EF91BF91AF919F918F9113
:100E40007F916F915F914F913F912F910F900FBEC6
:100E50000F901F901895862798E027E087FF03C022
:100E6000880F822701C0880F9150C1F708951F9203
:100E70000F920FB60F9211242F933F934F935F93CE
:100E80006F937F938F939F93AF93BF93CF93DF9392
:100E9000EF93FF93E091F003F091F103309709F4A1
:100EA00067C0C685D78588812585822309F060C003
:100EB000818D928D0197F1F7438D548D68E070E03C
:100EC00030E081E0DA011197F1F79881922311F077
:100ED000382B03C0982F90953923880F61507109E2
:100EE00089F78091EF0390E001968F7099276091C8
:100EF000EE03681749F0A091EF03B0E0AE57BE4F84
:100F00003C938093EF0303C087898160878B868938
:100F10008823F1F0CA010197F1F78881282381E045
:100F200090E0A0E0B0E004C0880F991FAA1FBB1F8B
:100F30002A95D2F7409180015091810160E070E0E4
:100F4000842B952BA62BB72B909381018093800146
:100F5000878D90A1009711F00197F1F7858D968DFF
:100F60000197F1F7A389B4899C918589892B8C938A
:100F7000FF91EF91DF91CF91BF91AF919F918F91B1
:100F80007F916F915F914F913F912F910F900FBE85
:100F90000F901F901895E091F003F091F103E8177E
:100FA000F90769F4A389B4899C918589809589237F
:100FB0008C931092F1031092F00381E0089580E089
:100FC00008950C94021A0C94FA1908952F923F92E6
:100FD0004F925F926F927F928F929F92AF92BF9249
:100FE000CF92DF92EF92FF920F931F93CF93DF93F5
:100FF000C090C503D090C603E090C703F090C8032B
:101000000E94720420919D032223E9F060E08EE7A4
:101010000E94D10E61E082E90E94D10E61E083E27C
:101020000E94D10E61E080919D030E94D10E8091BB
:101030000201882311F0815003C010929D0386E0C5
:101040008093020171C324EFC20E21E0D21EE11C85
:10105000F11C11E0C616D706E806F90608F010E004
:1010600060E08EE70E94D10E61E08FE90E94D10E10
:10107000111170C080919E03A0911B03B0911C03BD
:10108000E82FF0E0EE0FFF1FE358FC4F2081318185
:10109000232B49F48F5F282F30E02A173B0784F376
:1010A00010929E0302C080939E0360919E03F6E01F
:1010B000E0E026E030E0E12C40E050E070E0CA01E2
:1010C000860F971F8A179B07A4F5009709F1E394F1
:1010D000880F991FFC01E35AFC4F80818F71883083
:1010E000A1F0813019F4C901039615C0811103C024
:1010F000C901029610C0853019F4C90104960BC0CD
:10110000893019F0C901019606C0C901059603C0CE
:10111000C9012F2F3E2F4F5F5F4F4031510551F0D6
:101120008B31910514F0EA9404C0F22FE32F9C0157
:10113000C6CFC901C82FC06481E08093E3036C2F40
:101140008BEC93E00E94780360E08C2F0E942B07C9
:10115000C82F1DC0E0914F02F0E0EE0FFF1FE25AD2
:10116000FC4F8081C82FCF71829586958770C80FFC
:10117000C85F81E08093E3036C2F8BEC93E00E94C7
:10118000780360E08C2F0E942B07C82FE12CD1E060
:10119000D093E30361E18BEC93E00E9478036C2F22
:1011A00081E10E942B07C82FD093E30364EA8BEC04
:1011B00093E00E9478036C2F84EA0E942B07C82FCB
:1011C000D093E30362E08BEC93E00E9478036C2FF2
:1011D00082E00E942B07C82FD093E30362E08BECE0
:1011E00093E00E9478036C2F82E00E942B07C82FA7
:1011F000D093E30360E08BEC93E00E9478031092BD
:10120000E3036C2F80E00E942B07F82E1111EBC135
:10121000C0919E036E2C6C0E80911B0390911C0359
:10122000C61551F0772473947C0E70929E030C2F98
:1012300010E0081719075CF020919E0330E0019739
:10124000281739070CF46CC210929E0369C2CC2394
:1012500009F4C7C1E091C903F091CA030995C29589
:10126000C07F680131E2C30ED11CC601880F991FEF
:10127000FC01E55EFC4F5F0180818F7190E085305D
:10128000910509F4BEC0F4F5009709F495C00197E3
:1012900009F0A7C1000F111FF801E358FC4F01909E
:1012A000F081E02D00811181C160D093E3036C2FA8
:1012B0008BEC93E00E9478036F2D8C2F0E942B07FC
:1012C000C82F1F79F501208122952695277030E0DF
:1012D000322F22273295330F307E022B132BD093DF
:1012E000E303602F8BEC93E00E9478036C2F802F38
:1012F0000E942B07082F912F9F79F501C081C07E96
:10130000C92B74C08830910521F0099709F4C2C037
:1013100068C1C860D093E3036C2F8BEC93E00E940C
:1013200078036F2D8C2F0E942B07C82F000F111FE1
:10133000F801E358FC4F0190F081E02D808191810C
:10134000A281B3816C017D01FFE9FF22D093E30309
:101350006C2D8BEC93E00E9478036C2F8C2D0E94F7
:101360002B07C82F2D2C3E2C4F2C552447FC5A946C
:10137000D093E303622D8BEC93E00E9478036C2FF3
:10138000822D0E942B07C82F1701552437FC50943B
:10139000452CD093E303622D8BEC93E00E947803FD
:1013A0006C2F822D0E942B07182F9F2D9F79F501FE
:1013B000C081C07EC92B62C0000F111FF801E35825
:1013C000FC4F0190F081E02D1081D093E3036C2F4E
:1013D0008BEC93E00E9478036F2D8C2F0E942B07DB
:1013E000082F1F79F501C081C07EC12BD093E30384
:1013F0006C2F8BEC93E00E9478031092E303602F34
:1014000047C0C560D093E3036C2F8BEC93E00E9440
:1014100078031092E3036F2D8C2F0E942B07F82E78
:10142000000F111FF801E358FC4F0190F081E02DEF
:10143000118102819081F5012081229526952770E6
:10144000213011F0C0E001C0C0E4C92BD093E30308
:10145000602F8BEC93E00E9478036F2D802F0E9409
:101460002B07082FD093E303612F8BEC93E00E94AE
:101470007803602F812F0E942B07182FD093E3034E
:101480006C2F8BEC93E00E9478031092E303612FA2
:101490008C2FA4C0C960D093E3036C2F8BEC93E036
:1014A0000E9478036F2D8C2F0E942B07C82F000FEE
:1014B000111FF801E358FC4F0190F081E02D80806E
:1014C0009180A280B38020E030E0A901C501B40181
:1014D0000E94751C18161CF4C501B40103C0C50197
:1014E000B40190580E946D1B8B0180E090E00E9437
:1014F0009C1B9B01AC01C501B4010E94101A2AE992
:1015000039E949E15FE30E94821C20E030E543ECC9
:1015100057E40E94821C1B012C0120E030E0A9014D
:101520000E94751C18161CF4C201B10103C0C2014F
:10153000B10190580E946D1B562EF72E812F81709D
:10154000F601EE0FFF1FE55EFC4F90819295969598
:101550009770913011F090E001C090E2192F182B94
:1015600020E030E0A901C501B4010E94EF1A881FF4
:101570008827881F8295880F880F807C182BD0932E
:10158000E303652D8BEC93E00E9478036C2F852D8F
:101590000E942B07C82FD093E3036F2D8BEC93E0B1
:1015A0000E9478036C2F8F2D0E942B07C82FD09399
:1015B000E303602F8BEC93E00E9478036C2F802F65
:1015C0000E942B07C82FD093E303612F8BEC93E08D
:1015D0000E9478031092E3036C2F812F0E942B0747
:1015E000F82EC72D19CEC0914F02D093E3036C2F74
:1015F0008BEC93E00E9478036F2D8C2F0E942B07B9
:10160000B82E0C2F10E06801CC0CDD1C9601225A7C
:101610003C4F4901F9012081922F9F71F8E09F9F73
:1016200070011124229526952770E22AD093E303B6
:101630006E2D8BEC93E00E9478031092E3036B2DE8
:101640008E2D0E942B07F82EF601E35EFC4FD08111
:10165000AD2EB180772473942A2D2D1B30E0F40138
:1016600080818F7190E028173907A4F4F501E49088
:101670007092E3036E2D8BEC93E00E94780310923E
:10168000E3036F2D8E2D0E942B07F82EFFEFAF1A6C
:10169000BF0AE2CF000F111FD801A35CBC4FDC9141
:1016A0000D2F11961C919601225A3C4F6901BB24C3
:1016B000B394202F2D1B30E0F60180818295869512
:1016C000877090E0281739079CF4F801E490B092F5
:1016D000E3036E2D8BEC93E00E9478031092E303FA
:1016E0006F2D8E2D0E942B07F82E0F5F1F4FE1CF1D
:1016F000CF5FC0934F028C2F90E020911B0330915D
:101700001C038217930714F010924F020E94720478
:101710006093C5037093C6038093C7039093C80377
:1017200061E08F2D0E94D10EE091C903F091CA03B0
:10173000099560E08EEF0E94D10EC3EAD3E01C2F22
:10174000105E61E089910E94D10E1C13FACF60E017
:101750008FEF0E94D10E81E0DF91CF911F910F9109
:10176000FF90EF90DF90CF90BF90AF909F908F90C1
:101770007F906F905F904F903F902F900895382FFB
:1017800020914E0290914D02213208F049C0809183
:101790002A028111FCCF42E040932A0230932902B1
:1017A0003FEF309328021092270220932602ADE2E9
:1017B000B2E046E052E0FA013E2F341B321718F433
:1017C0003D913193F9CF1092050220910502990FB6
:1017D000922B9093050290910402913061F4109243
:1017E0000402909105029093BB009091BC0093FD80
:1017F000F8CF95EC01C095EE9093BC0090912A0231
:101800009230E1F3909128029F3F79F08091280275
:10181000803241F080912802803331F084E005C0AD
:1018200081E003C082E001C083E010922C0210929C
:101830004E0210922B0208951F93CF93DF931F92B5
:10184000CDB7DEB7282F162F80911A038823D9F041
:1018500081E080932B0283E580934D0210922C024D
:1018600010924E02622F8DEE92E00E949902612F3B
:101870008DEE92E00E94990281E00F90DF91CF916E
:101880001F910C94BF0B60E08091190329830E9483
:101890000604298140911703609118038091160373
:1018A0000E94C804212F4091170360911803809172
:1018B00016030E94C80461E0809119030F90DF9124
:1018C000CF911F910C94060490912A029111FCCFA4
:1018D000813208F080E291E090932A0290932902ED
:1018E0002FEF2093280210922702280F2093260220
:1018F0009093050290910502966A9093050290914B
:101900000402913061F410920402909105029093C8
:10191000BB009091BC0093FDF8CF95EC01C095EE13
:101920009093BC0090912A029130E1F390912702AC
:10193000981710F480912702A6E0B2E024EE31E07F
:10194000F9019E2F921B981718F49D919193F9CF4E
:101950001092E3018093E2010895CF93C82F809104
:101960001A038823D9F081E080932B0283E58093CA
:101970004D0210922C0210924E026C2F8DEE92E0CE
:101980000E94990281E00E94BF0B81E090E00E94DA
:10199000640C8DEE92E00E944D021FC060E08091C9
:1019A00019030E9406042C2F2068409117036091B0
:1019B0001803809116030E94C8042FEF409117036B
:1019C00060911803809116030E94C804C82F61E03B
:1019D000809119030E9406048C2FCF910895CF9215
:1019E000DF92FF920F931F93CF93DF9320911B03FE
:1019F00030911C0320313105CCF56B0189010F5F5B
:101A00001F4FF801EE0FFF1FE55EFC4F91838083AF
:101A1000F901EE0FFF1FE35CFC4F71836083F90156
:101A2000EE0FFF1FE358FC4F11821082220F331F6D
:101A3000E901C35ADC4F18820E94BC19982F9F718C
:101A40008981807EF82EF92AC6010E94BC198295F0
:101A5000880F807E9F2D9F71F92EF82AF9821093AE
:101A60001C0300931B038FEF800F01C08FEFDF91EA
:101A7000CF911F910F91FF90DF90CF900895CF935A
:101A8000DF938BEC93E00E94CB07CBECD3E061E0DB
:101A90008C850E94360461E08C85DF91CF910C9497
:101AA00006042F923F924F925F926F927F928F9295
:101AB0009F92AF92BF92CF92DF92EF92FF920F93DD
:101AC0001F93CF93DF93CDB7DEB72A970FB6F89465
:101AD000DEBF0FBECDBF8C012A013B013A872987AB
:101AE00020E030E0A901C301B2010E94EF1A87FF94
:101AF00005C060E070E080E09FEB04C060E070E053
:101B000080E09FE3E12CF12CA985BA85EA16FB065B
:101B100054F420E030E040E251E40E94F41A2FEF48
:101B2000E21AF20AF1CF9B01AC01C301B2010E949B
:101B3000111A6B017C0120E030E0A901C301B20160
:101B40000E94EF1A87FF04C0F7FAF094F7F8F094B8
:101B5000A12CB12CBDECB983ECECEA83FCECFB834B
:101B60002DE32C8320E030E040E251E469817A816A
:101B70008B819C810E94821C962E872E382E292EC6
:101B8000A70196010E94EF1A181644F03FEFA31A1E
:101B9000B30A99828A823B822C82E4CFA114B104D9
:101BA00029F045016FEF861A960A03C092E0892E4C
:101BB000912C20E030E0A901C301B2010E94EF1A8C
:101BC00087FF03C07FEF871A970A89859A85019658
:101BD000880E991E1814190444F081E090E0DC018D
:101BE000A819B909BE83AD8302C01E821D8220E000
:101BF00030E0A901C301B2010E94EF1A87FF07C0BC
:101C00008DE2F801808388248394912C02C0812C7A
:101C1000912CA114B10449F4F801E80DF91D80E3F9
:101C2000808394012F5F3F4F4901212C312CB1015A
:101C3000680D791D78876F832A143B04D1F12981BF
:101C40003A814B815C81C701B6010E94F41A0E945F
:101C5000661B2B013C016F817885600F711F4AE084
:101C6000C2010E94C519B201550C880B990B0E9444
:101C70009E1B29813A814B815C810E94821C9B01C1
:101C8000AC01C701B6010E94101A6B017C0120E073
:101C900030E040E251E469817A818B819C810E942D
:101CA000F41A69837A838B839C833FEF231A330A68
:101CB000BECF5B0189859A851816190644F4F80190
:101CC000E60FF71F8EE28083DB0111965D01812C08
:101CD000912CE985FA858E169F064CF520E030E0C0
:101CE00040E251E4C701B6010E94821C2B013C0175
:101CF0000E94661B6B017C01B4016A0D7B1D600FA5
:101D0000711F4AE0C6010E94C519B601DD0C880B9F
:101D1000990B0E949E1B9B01AC01C301B2010E9462
:101D2000101A6B017C01BFEF8B1A9B0AD2CFCF0137
:101D3000F7FF02C080E090E0A80EB91E2D813E8121
:101D4000232B89F09501F801EA0DFB1D40E26FEFAE
:101D5000A61AB60A4193C501821B930BAD81BE81C1
:101D60008A179B07A4F3F801EA0DFB1D1082C80136
:101D70002A960FB6F894DEBF0FBECDBFDF91CF918C
:101D80001F910F91FF90EF90DF90CF90BF90AF9099
:101D90009F908F907F906F905F904F903F902F908B
:101DA00008950F931F93CF93C82F0BEC13E0F80106
:101DB000608F682FC8010E947803F801108E8C2F65
:101DC000CF911F910F910895FC01538D448D252FC4
:101DD00030E0842F90E0821B930B541710F0CF96C5
:101DE000089501970895FC01918D828D981761F0F7
:101DF000828DDF01A80FB11D5D968C91928D9F5F42
:101E00009F73928F90E008958FEF9FEF0895FC01EC
:101E1000918D828D981731F0828DE80FF11D858D9F
:101E200090E008958FEF9FEF0895FC01918D228D32
:101E3000892F90E0805C9F4F821B91098F739927B7
:101E4000089580E090E0892B29F00E9480018111A3
:101E50000C94000008958091E8039091E903892B88
:101E600031F18091F0039091F10323E08B3C9207D4
:101E7000F1F0009711F00E94CB078091E2038E7F72
:101E80008093E2031092EF031092EE038BEC93E049
:101E90009093F1038093F003E091DE03F091DF0370
:101EA00090818091E003892B808381E0089580E018
:101EB00008950F931F93CF93DF938C01EB010E9442
:101EC000BC19A3EAB3E090E020E2981740F4A8011F
:101ED0004F5F5F4FF80104910C938A0101C02C936E
:101EE0009F5F1196903189F7CE010E94BC19A3EB38
:101EF000B3E090E020E2981740F4AE014F5F5F4FEF
:101F0000FE01C491CC93EA0101C02C939F5F11960E
:101F1000903189F7DF91CF911F910F910895CF9361
:101F2000DF93FC0101900020E9F73197E81B20E0E6
:101F300030E0F0E2A90148575F4F2E1748F4EA015C
:101F4000C55EDC4FDC01A20FB31FAC91A88304C0B7
:101F5000DA01A55EBC4FFC932F5F3F4F2031310566
:101F600049F7FB0101900020E9F73197E61B80E07B
:101F700090E040E29C0128563F4F8E1748F4E9015B
:101F8000C55EDC4FDB01A80FB91F5C91588304C00C
:101F9000D901A55EBC4F4C9301968031910551F754
:101FA000DF91CF910895FC01848DDF01A80FB11D51
:101FB000A35ABF4F2C91848D90E001968F7399277F
:101FC000848FA689B7892C93A089B1898C9180646C
:101FD0008C93938D848D981306C00288F389E02D2D
:101FE00080818F7D80830895EF92FF920F931F93DE
:101FF000CF93DF93EC0181E0888F9B8D8C8D9813BC
:1020000005C0E889F989808185FD24C0F62E0B8DF5
:1020100010E00F5F1F4F0F731127E02E8C8DE81219
:102020000CC00FB607FCFACFE889F989808185FFDB
:10203000F5CFCE010E94D30FF1CF8B8DFE01E80FBB
:10204000F11DE35AFF4FF0820B8FEA89FB898081F3
:10205000806207C0EE89FF896083E889F989808101
:102060008064808381E090E0DF91CF911F910F9198
:10207000FF90EF900895CF93DF93EC01888D882334
:10208000C9F0EA89FB89808185FD05C0A889B989E5
:102090008C9186FD0FC00FB607FCF5CF808185FFC0
:1020A000F2CFA889B9898C9185FFEDCFCE010E942E
:1020B000D30FE7CFDF91CF910895CF93DF93CDB7C3
:1020C000DEB7C456D1090FB6F894DEBF0FBECDBF40
:1020D000789484B5826084BD84B5816084BD85B503
:1020E000826085BD85B5816085BD80916E0081600F
:1020F00080936E00109281008091810082608093B5
:1021000081008091810081608093810080918000B6
:102110008160809380008091B10084608093B100E1
:102120008091B00081608093B00080917A008460DB
:1021300080937A0080917A00826080937A00809107
:102140007A008E7F80937A0080917A0080688093F5
:102150007A001092C10061E08DE00E94360461E0D7
:102160008DE00E94060461E083E00E94360460E096
:1021700083E00E9406048091680190916901909328
:1021800001018093000160E071E08DE091E00E9428
:10219000590F8CEF90E090931E0380931D031092D3
:1021A0003E0310923D0310927E0310927D03109225
:1021B0005D0383E080935E0381E090E090931C03D5
:1021C00080931B0361E083E00E94060461E083E0EA
:1021D0000E94360441ECE42E40E0F42EF701849195
:1021E0008093DB030DEA10E0F801849190E0880F02
:1021F000991F80569F4FFC01259134913093DD0348
:102200002093DC0360E083E00E94360461E083E019
:102210000E94060483E08093D703F701E490E092E4
:10222000D803F8010491E02FF0E0EE0FFF1FEA560B
:10223000FF4F859194919093DA038093D90381E0C5
:102240008093E10387EC90E09093ED038093EC039F
:1022500022E530E03093E5032093E40325EC30E001
:102260003093E7032093E6034FE152E05093E903F4
:102270004093E8033093EB032093EA032091680036
:102280002460209368002DE630E03093DF03209334
:10229000DE0328E02093E0030197F1F70E942B0F63
:1022A0000E943F0D63EF70E085EF90E00E94EF0C1D
:1022B000803188F490E0FC01EE0FFF1FE358FC4FE3
:1022C00022E731E031832083880F991FFC01E35A14
:1022D000FC4F81E280836AEE70E08CEE90E00E9419
:1022E000EF0C803188F490E0FC01EE0FFF1FE35803
:1022F000FC4F20E731E031832083880F991FFC01D8
:10230000E35AFC4F81E2808361EE70E083EE90E05F
:102310000E94EF0C803188F490E0FC01EE0FFF1F6B
:10232000E358FC4F2EE631E031832083880F991F5C
:10233000FC01E35AFC4F81E2808369ED70E08BED94
:1023400090E00E94EF0C803188F490E0FC01EE0FE9
:10235000FF1FE358FC4F2CE631E031832083880FC8
:10236000991FFC01E35AFC4F81E0808362ED70E02D
:1023700084ED90E00E94EF0C803188F490E0FC0145
:10238000EE0FFF1FE358FC4F2AE631E03183208334
:10239000880F991FFC01E35AFC4F81E0808320E005
:1023A00030E04FE753E46091090370910A03809194
:1023B0000B0390910C030E94EF1A811108C0109238
:1023C000090310920A0310920B0310920C0320E0F1
:1023D00030E04FE753E4609105037091060380916C
:1023E0000703909108030E94EF1A811108C0109210
:1023F000050310920603109207031092080320E0D1
:1024000030E04FE753E46091010370910203809143
:102410000303909104030E94EF1A811108C01092E7
:10242000010310920203109203031092040320E0B0
:1024300030E04FE753E46091FD027091FE0280911D
:10244000FF02909100030E94EF1A811108C01092C0
:10245000FD021092FE021092FF021092000320E093
:1024600030E04FE753E46091F9027091FA028091F5
:10247000FB029091FC020E94EF1A811108C0109299
:10248000F9021092FA021092FB021092FC02C09024
:102490000903D0900A03E0900B03F0900C0320E0B6
:1024A00030E04CEF52E4C701B6010E94751C1816CB
:1024B00084F420E030E04FE753E4C701B6010E9406
:1024C000101A6093090370930A0380930B0390938F
:1024D0000C03C0900503D0900603E0900703F09032
:1024E000080320E030E04CEF52E4C701B6010E943F
:1024F000751C181684F420E030E04FE753E4C70160
:10250000B6010E94101A609305037093060380932E
:10251000070390930803C0900103D0900203E0905A
:102520000303F090040320E030E04CEF52E4C701D5
:10253000B6010E94751C181684F420E030E04FE7C5
:1025400053E4C701B6010E94101A6093010370930F
:1025500002038093030390930403C090FD02D09084
:10256000FE02E090FF02F090000320E030E04CEF2C
:1025700052E4C701B6010E94751C181684F420E0CD
:1025800030E04FE753E4C701B6010E94101A609390
:10259000FD027093FE028093FF0290930003C090AF
:1025A000F902D090FA02E090FB02F090FC0220E0E9
:1025B00030E04CEF52E4C701B6010E94751C1816BA
:1025C00084F420E030E04FE753E4C701B6010E94F5
:1025D000101A6093F9027093FA028093FB029093B1
:1025E000FC0280911A03882341F11092E3011092BA
:1025F000E20110922C0210924E0210922A0281E007
:10260000809329021092040261E082E10E94060494
:1026100061E083E10E9406048091B9008E7F80937F
:10262000B9008091B9008D7F8093B90080E28093DA
:10263000B80085E48093BC0019C061E08091190363
:102640000E94360461E0809116030E94360461E026
:10265000809116030E94060461E0809117030E9496
:10266000360460E0809118030E94360480E00E94E6
:10267000AD0C853ED9F190E0A0E0B0E019A2BE011A
:102680006F5D7F4F8C019D010F701127222733272B
:1026900044E0B695A795979587954A95D1F76150EF
:1026A00071090A3011052105310510F4005D01C0E2
:1026B000095CFB0100830097A105B10519F76115BD
:1026C000710559F001900020E9F73197AF01461BE1
:1026D000570B80E592E00E94530142E050E06BE529
:1026E00071E080E592E00E94530104C068E08DE251
:1026F0000E941C0C81E30E94AD0C807F682F6B60F0
:1027000081E30E941C0C83E090E09093150380937A
:1027100014036CE08CE20E941C0C0E94E60760E04F
:102720008DE00E94060403E610E0BE016F5F7F4F5C
:102730008DE093E00E9481058D899E89AF89B88DD7
:1027400069968CAF9DAFAEAFBFAF69972FE236E809
:1027500042E85FE3BC01CD010E94821C0E94EF1C95
:1027600020E030E040E251E40E94F41A6B017C0169
:1027700020E030E040E251E46091090370910A03E7
:1027800080910B0390910C030E94F41A9B01AC0101
:10279000C701B6010E94101AA1966CAF7DAF8EAF33
:1027A0009FAFA197898D9A8DAB8DBC8D6D968CAFA7
:1027B0009DAFAEAFBFAF6D972FE236E842E85FE363
:1027C000BC01CD010E94821C0E94EF1C20E030E081
:1027D00040E251E40E94F41A6B017C0120E030E0F9
:1027E00040E251E460910503709106038091070374
:1027F000909108030E94F41A9B01AC01C701B60135
:102800000E94101AA5966CAF7DAF8EAF9FAFA597B3
:102810008D8C9E8CAF8CB8A02FE236E842E85FE347
:10282000C501B4010E94821C0E94EF1C20E030E030
:1028300040E251E40E94F41A6B017C0120E030E098
:1028400040E251E46091010370910203809103031F
:10285000909104030E94F41A9B01AC01C701B601D8
:102860000E94111A2B013C01609374017093750151
:102870008093760190937701A1966CAD7DAD8EAD7E
:102880009FADA197905860937C0170937D018093D8
:102890007E0190937F01A596CCACDDACEEACFFAC95
:1028A000A597F7FAF094F7F8F094C0927801D092D7
:1028B0007901E0927A01F0927B0120E030E040E281
:1028C00051E40E94821C0E94661B70937301609306
:1028D000720120E030E040E251E4C701B6010E94FD
:1028E000821C0E94661B709371016093700120E04E
:1028F00030E040E251E4C301B2010E94821C0E9418
:10290000661B70936F0160936E01A5019401699637
:102910006CAD7DAD8EAD9FAD69970E94901A6B0135
:102920007C01A50194016D966CAD7DAD8EAD9FAD22
:102930006D970E94901A20EE3EE245E652E40E9416
:10294000821C2091F9023091FA024091FB025091D1
:10295000FC020E94101A0E94661B4B015C0120EED3
:102960003EE245E652E4C701B6010E94821C209176
:10297000FD023091FE024091FF02509100030E943F
:10298000101A0E94661B71956195710970936D0113
:1029900060936C0191948194910890926B01809264
:1029A0006A0180916801909169018830910521F058
:1029B000109267011092660120910001309101018F
:1029C0002817390721F0909301018093000184308A
:1029D000910509F419C1A4F48130910569F144F419
:1029E000892B09F0B9C163E172E080E292E0B2C1E3
:1029F0008230910509F469C0039709F4BCC0ACC1E9
:102A00008630910509F488C10CF442C188309105E3
:102A100009F49CC18336910509F09EC126961FAE2C
:102A200026971DAA6AE471E0CE018B5B9F4F0E943E
:102A3000B1196AE371E07DC126961FAE26971DAAE3
:102A400064E072E0CE018B5B9F4F0E94B11920E0E1
:102A500030E0A90160917C0170917D0180917E013F
:102A600090917F010E94EF1A87FF03C060E072E03F
:102A700002C06BEF71E0CE01C5960E94B1191DA294
:102A800040917C0150917D0160917E0170917F01A8
:102A900021E030E0CE0185960E94510DBE016B5DB4
:102AA0007F4FCE01C5960E94A01E64EF71E0CE015B
:102AB000C5960E94B1191DA24091090350910A03C5
:102AC00060910B0370910C0348C026961FAE2697A9
:102AD0001DAA65EE71E0CE018B5B9F4F0E94B1197C
:102AE00020E030E0A9016091780170917901809136
:102AF0007A0190917B010E94EF1A87FF03C061EE7B
:102B000071E002C06CED71E0CE01C5960E94B11972
:102B10001DA2409178015091790160917A017091E4
:102B20007B0121E030E0CE0185960E94510DBE016F
:102B30006B5D7F4FCE01C5960E94A01E65ED71E0D2
:102B4000CE01C5960E94B1191DA240910503509176
:102B50000603609107037091080320E030E0CE0186
:102B600085960E94510DBE016B5D7F4FCE01C596CB
:102B70000E94A01EE2C026961FAE26971DAA66ECF4
:102B800071E0CE018B5B9F4F0E94B11920E030E0D5
:102B9000A901609174017091750180917601909105
:102BA00077010E94EF1A87FF03C062EC71E002C058
:102BB0006DEB71E0CE01C5960E94B1191DA2409146
:102BC000740150917501609176017091770121E057
:102BD00030E0CE0185960E94510DBE016B5D7F4FA6
:102BE000CE01C5960E94A01E66EB71E0CE01C5968F
:102BF0000E94B1191DA240910103509102036091FE
:102C0000030370910403A9CF26961FAE26971DAA31
:102C100066EA71E0CE018B5B9F4F0E94B1198091F3
:102C20006C0190916D0197FF03C061EA71E002C0F1
:102C30006BE971E0CE01C5960E94B1191DA26091A9
:102C40006C0170916D01072E000C880B990B0E948E
:102C50009E1BAB01BC0120E030E0CE0185960E94B6
:102C6000510DBE016B5D7F4FCE01C5960E94A01E27
:102C700064E971E0CE01C5960E94B1191DA2409190
:102C8000FD025091FE026091FF027091000365CF3A
:102C900026961FAE26971DAA65E871E0CE018B5BD4
:102CA0009F4F0E94B11980916A0190916B0197FF2B
:102CB00003C060E871E002C06AE771E0CE01C5962A
:102CC0000E94B1191DA260916A0170916B01072EDB
:102CD000000C880B990B0E949E1BAB01BC0120E0ED
:102CE00030E0CE0185960E94510DBE016B5D7F4F95
:102CF000CE01C5960E94A01E63E771E0CE01C59685
:102D00000E94B1191DA24091F9025091FA026091FE
:102D1000FB027091FC0221CF26961FAE26971DAABA
:102D200063E671E0CE018B5B9F4F0E94B1196BE5AA
:102D300071E0CE01C5960E94B119BE016B5C7F4F58
:102D4000CE018B5B9F4F0E948F0F06C06DE171E03B
:102D50008AE291E00E94590F8BEC93E00E94CB072E
:102D60000E943F0D0E94E60760E08091D7030E9419
:102D7000360461E08091D7030E9406040E942B0F65
:102D80000E942B0F0E9472044B015C01A4E68A0E84
:102D9000911CA11CB11CE12CF12C0E94720468153D
:102DA00079058A059B0578F58BEC93E00E94EE028D
:102DB0001816190694F78BEC93E00E94EE02181691
:102DC000190614F0E12C1AC08BEC93E00E94050365
:102DD000E82E8091C4038E11C8C140909F0350908B
:102DE000A0036090A1037090A2030E947204461693
:102DF00057066806790608F4B8C1E4CFF12CE1144F
:102E0000F10459F2CBC1B0EFEB16F10409F4AAC1F9
:102E1000E114F10409F4A6C1E0E9EE16F10409F4A5
:102E20001FC154F420E6E216F10409F42BC180E737
:102E3000E816F104C9F096C190EDE916F10461F1CC
:102E4000A0EEEA16F10431F0B0EBEB16F10409F054
:102E500089C180C080916801909169018830910595
:102E600009F480C1019613C08091680190916901B5
:102E70008336910521F410926901109268018091C6
:102E8000680190916901009709F46CC101979093D2
:102E900069018093680166C1809168019091690120
:102EA0008130910579F420E030E040E85FE3609103
:102EB000090370910A0380910B0390910C030E9407
:102EC000111A5DC08230910579F420E030E040E8CD
:102ED0005FE3609105037091060380910703909171
:102EE00008030E94111A65C08330910579F420E02F
:102EF00030E040E85FE3609101037091020380914C
:102F00000303909104030E94111A6DC0843091054F
:102F100079F420E030E040E85FE36091FD027091D9
:102F2000FE028091FF02909100030E94111A75C069
:102F3000059709F017C120E030E040E85FE36091B9
:102F4000F9027091FA028091FB029091FC020E94BA
:102F5000111A7DC0809168019091690181309105BD
:102F6000B9F420E030E040E85FE36091090370913C
:102F70000A0380910B0390910C030E94101A609336
:102F8000090370930A0380930B0390930C03EAC028
:102F900082309105B9F420E030E040E85FE36091D1
:102FA00005037091060380910703909108030E9426
:102FB000101A6093050370930603809307039093A0
:102FC0000803D0C083309105B9F420E030E040E838
:102FD0005FE360910103709102038091030390917C
:102FE00004030E94101A60930103709302038093FC
:102FF000030390930403B6C084309105B9F420E034
:1030000030E040E85FE36091FD027091FE02809144
:10301000FF02909100030E94101A6093FD027093CA
:10302000FE028093FF02909300039CC0059709F075
:1030300099C020E030E040E85FE36091F9027091D0
:10304000FA028091FB029091FC020E94101A609398
:10305000F9027093FA028093FB029093FC0282C003
:103060008091680190916901069709F07BC0609199
:10307000090370910A0380910B0390910C030E9445
:103080006D1B30C08091680190916901892B09F016
:1030900069C01092090310920A0310920B03109258
:1030A0000C0310920503109206031092070310926E
:1030B000080310920103109202031092030310926E
:1030C00004031092FD021092FE021092FF02109271
:1030D00000031092F9021092FA021092FB02109271
:1030E000FC0260E080E090E00E94E107609105034F
:1030F0007091060380910703909108030E946D1B55
:1031000081E090E00E94E107609101037091020369
:1031100080910303909104030E946D1B82E090E074
:103120000E94E1076091FD027091FE028091FF0212
:10313000909100030E946D1B83E090E00E94E107E4
:103140006091F9027091FA028091FB029091FC0269
:103150000E946D1B84E090E00E94E10710936901DA
:10316000009368010E94210FE0CA0E947204DC01F2
:10317000CB0180579E4FAF4FBF4F80939F039093DB
:10318000A003A093A103B093A203E092C403E0EFD5
:10319000EE1234CE80EFE82EF12CFFCDF0EFEF16DB
:1031A000F10409F039CEDECF8DE491E09093CC03A9
:1031B0008093CB038BEC93E00C94CB07E0E5F2E03B
:1031C0001382128288EE93E0A0E0B0E084839583BE
:1031D000A683B7832DE031E03183208325EC30E0F6
:1031E0003587248724EC30E03787268720EC30E0D1
:1031F000318B208B21EC30E0338B228B22EC30E0C2
:10320000358B248B26EC30E0378B268B118E128E7B
:10321000138E148EEDEEF2E0138212828483958376
:10322000A683B7832FE131E031832083EBECF3E019
:103230001382128284839583A683B7838DE491E001
:1032400091838083A2EEB3E08C918E7F8C93128E5B
:10325000118E148E138E168E158E12A211A210923C
:103260009F031092A0031092A1031092A203109248
:103270009D0310921C0310921B0310929E0388EC76
:1032800092E09093CA038093C903EDE0F3E08FE3EB
:1032900091E0918380838FEF9FEFDC0183839483A0
:1032A000A583B6831086178281E0858780E090E051
:1032B0000E94E307682F70E080E090E00E949C1B72
:1032C0006093090370930A0380930B0390930C039C
:1032D00081E090E00E94E307682F70E080E090E0DA
:1032E0000E949C1B60930503709306038093070361
:1032F0009093080382E090E00E94E307682F70E05B
:1033000080E090E00E949C1B609301037093020395
:10331000809303039093040383E090E00E94E3070B
:10332000682F70E080E090E00E949C1B6093FD029B
:103330007093FE028093FF029093000384E090E07C
:103340000E94E307682F70E080E090E00E949C1BE1
:103350006093F9027093FA028093FB029093FC024F
:103360000895FB01DC010D900020E9F7119705900D
:103370000D920020E1F70895FC0105900020E9F787
:10338000809590958E0F9F1F0895BB274A3031F48A
:10339000992322F4BDE2909581959F4F0C94D11909
:1033A000BB27FB015527AA27880F991FAA1FA4171F
:1033B00010F0A41B83955051B9F7A05DAA3308F013
:1033C000A95DA193009779F7B111B1931192CB0147
:1033D0000C94EA19DC01FC01672F71917723E1F766
:1033E000329704C07C916D9370836291AE17BF07D2
:1033F000C8F30895F999FECF92BD81BDF89A992737
:1034000080B50895262FF999FECF1FBA92BD81BDD0
:1034100020BD0FB6F894FA9AF99A0FBE0196089556
:103420005058BB27AA270E94281A0C943B1C0E94C4
:103430002D1C38F00E94341C20F039F49F3F19F401
:1034400026F40C94031C0EF4E095E7FB0C94FD1B92
:10345000E92F0E944C1C58F3BA17620773078407C0
:10346000950720F079F4A6F50C946E1C0EF4E09507
:103470000B2EBA2FA02D0B01B90190010C01CA012E
:10348000A0011124FF27591B99F0593F50F4503ED9
:1034900068F11A16F040A22F232F342F4427585FCB
:1034A000F3CF469537952795A795F0405395C9F7E3
:1034B0007EF41F16BA0B620B730B840BBAF091509B
:1034C000A1F0FF0FBB1F661F771F881FC2F70EC03A
:1034D000BA0F621F731F841F48F48795779567950D
:1034E000B795F7959E3F08F0B0CF9395880F08F0F9
:1034F0009927EE0F9795879508950E942D1C60F0EF
:1035000080E891E009F49EEF0E94341C28F040E826
:1035100051E071F45EEF0CC00C94031C0C946E1C13
:10352000E92FE0780E944C1C40F3092E052AB1F3E4
:10353000261737074807590738F00E2E07F8E025F9
:1035400069F0E025E0640AC0EF6307F8009407FA29
:10355000DB01B9019D01DC01CA01AD01EF930E94BD
:103560000B1B0E943B1C0E94C01A5F91552339F02F
:103570002BED3FE049E450FD49EC0C94111A0895FD
:10358000DF93DD27B92FBF7740E85FE316161706F4
:1035900048075B0718F4D92F0E947A1C9F938F93DA
:1035A0007F936F930E94131DE8E6F0E00E94061CD3
:1035B0000E943B1C2F913F914F915F910E94951C5F
:1035C000DD2351F09058A2EA2AED3FE049EC5FE399
:1035D000D0785D270E94281ADF910C943B1C0E9432
:1035E000D91B08F481E008950E94081B0C943B1C31
:1035F0000E94341C58F00E942D1C40F029F45F3FBB
:1036000029F00C94FD1B51110C946F1C0C94031C9D
:103610000E944C1C68F39923B1F3552391F3951B39
:10362000550BBB27AA2762177307840738F09F5FE3
:103630005F4F220F331F441FAA1FA9F335D00E2E50
:103640003AF0E0E832D091505040E695001CCAF7BD
:103650002BD0FE2F29D0660F771F881FBB1F261780
:1036600037074807AB07B0E809F0BB0B802DBF0157
:10367000FF2793585F4F3AF09E3F510578F00C9426
:10368000FD1B0C946F1C5F3FE4F3983ED4F38695CA
:1036900077956795B795F7959F5FC9F7880F911D47
:1036A0009695879597F90895E1E0660F771F881F33
:1036B000BB1F621773078407BA0720F0621B730BE6
:1036C000840BBA0BEE1F88F7E09508950E946D1BDE
:1036D0006894B1110C946F1C08950E94541C88F0DA
:1036E0009F5798F0B92F9927B751B0F0E1F0660FC6
:1036F000771F881F991F1AF0BA95C9F714C0B13007
:1037000091F00E946E1CB1E008950C946E1C672F1E
:10371000782F8827B85F39F0B93FCCF38695779535
:103720006795B395D9F73EF490958095709561951E
:103730007F4F8F4F9F4F0895E89409C097FB3EF449
:1037400090958095709561957F4F8F4F9F4F9923EE
:10375000A9F0F92F96E9BB279395F695879577956C
:103760006795B795F111F8CFFAF4BB0F11F460FF2C
:103770001BC06F5F7F4F8F4F9F4F16C0882311F084
:1037800096E911C0772321F09EE8872F762F05C098
:10379000662371F096E8862F70E060E02AF09A9533
:1037A000660F771F881FDAF7880F9695879597F928
:1037B0000895990F0008550FAA0BE0E8FEEF1616C2
:1037C0001706E807F907C0F012161306E407F50715
:1037D00098F0621B730B840B950B39F40A2661F089
:1037E000232B242B252B21F408950A2609F4A1402C
:1037F000A6958FEF811D811D089597F99F6780E839
:1038000070E060E008959FEF80EC0895DF93CF9320
:103810001F930F93FF92EF92DF927B018C016894CC
:1038200006C0DA2EEF010E94951CFE01E894A591D6
:103830002591359145915591A6F3EF010E94281AE3
:10384000FE019701A801DA9469F7DF90EF90FF90ED
:103850000F911F91CF91DF91089500240A941616BD
:10386000170618060906089500240A94121613066E
:10387000140605060895092E0394000C11F48823FC
:1038800052F0BB0F40F4BF2B11F460FF04C06F5F18
:103890007F4F8F4F9F4F089557FD9058440F551FEE
:1038A00059F05F3F71F04795880F97FB991F61F0C2
:1038B0009F3F79F087950895121613061406551F39
:1038C000F2CF4695F1DF08C0161617061806991FA5
:1038D000F1CF86957105610508940895E894BB279A
:1038E00066277727CB0197F908950E94D91B08F422
:1038F0008FEF08959B01AC0160E070E080E89FE3EA
:103900000C94F41A0E94951C0C943B1C0E942D1CD4
:1039100038F00E94341C20F0952311F00C94FD1B0C
:103920000C94031C11240C946F1C0E944C1C70F30B
:10393000959FC1F3950F50E0551F629FF001729F54
:10394000BB27F00DB11D639FAA27F00DB11DAA1F63
:10395000649F6627B00DA11D661F829F2227B00DB0
:10396000A11D621F739FB00DA11D621F839FA00D3B
:10397000611D221F749F3327A00D611D231F849F8B
:10398000600D211D822F762F6A2F11249F575040E2
:103990009AF0F1F088234AF0EE0FFF1FBB1F661F5D
:1039A000771F881F91505040A9F79E3F510580F026
:1039B0000C94FD1B0C946F1C5F3FE4F3983ED4F312
:1039C000869577956795B795F795E7959F5FC1F7CA
:1039D000FE2B880F911D9695879597F908950E9463
:1039E000541CE8F09E37E8F09639B8F49E3848F455
:1039F000672F782F8827985FF9CF869577956795F9
:103A000093959539D0F3B62FB1706B0F711D811D51
:103A100020F487957795679593950C94171D0C94D2
:103A2000321D0C946F1C9B01AC010C94821C8823EA
:103A300071F4772321F09850872B762F07C06623E7
:103A400011F499270DC09051862B70E060E02AF0A8
:103A50009A95660F771F881FDAF7880F96958795D6
:103A600097F908959F3F31F0915020F4879577950D
:103A70006795B795880F911D9695879597F9089545
:103A800097FB072E16F4009407D077FD09D00E940B
:103A9000541D07FC05D03EF4909581959F4F0895E5
:103AA000709561957F4F0895AA1BBB1B51E107C01C
:103AB000AA1FBB1FA617B70710F0A61BB70B881FBE
:103AC000991F5A95A9F780959095BC01CD0108954D
:103AD000EE0FFF1F0590F491E02D0994CF93DF9333
:103AE0008230910510F482E090E0E091F403F091CF
:103AF000F50320E030E0C0E0D0E0309711F14081E4
:103B0000518148175907C0F04817590761F482815D
:103B10009381209719F09B838A832BC09093F503A0
:103B20008093F40326C02115310519F0421753077D
:103B300018F49A01BE01DF01EF010280F381E02D4C
:103B4000DCCF2115310509F1281B390B2430310553
:103B500090F412968D919C9113976115710521F047
:103B6000FB019383828304C09093F5038093F40355
:103B7000FD01329644C0FD01E20FF31F8193919342
:103B8000225031092D933C933AC02091F203309199
:103B9000F303232B41F4209105013091060130936A
:103BA000F3032093F20320910301309104012115C6
:103BB000310541F42DB73EB74091070150910801FE
:103BC000241B350BE091F203F091F303E217F307A6
:103BD000A0F42E1B3F0B2817390778F0AC014E5F7D
:103BE0005F4F2417350748F04E0F5F1F5093F303C4
:103BF0004093F2038193919302C0E0E0F0E0CF01A3
:103C0000DF91CF9108950F931F93CF93DF93009788
:103C100009F48CC0FC013297138212820091F403E4
:103C20001091F5030115110581F420813181820F76
:103C3000931F2091F2033091F3032817390779F588
:103C4000F093F303E093F20371C0D80140E050E039
:103C5000AE17BF0750F412962D913C911397AD010A
:103C60002115310509F1D901F3CF9D01DA01338323
:103C7000228360817181860F971F8217930769F4F1
:103C8000EC0128813981260F371F2E5F3F4F31838A
:103C900020838A819B8193838283452B29F4F0932F
:103CA000F503E093F40342C01396FC93EE9312974E
:103CB000ED01499159919E01240F351FE217F30739
:103CC00071F480819181840F951F029611969C93C7
:103CD0008E938281938113969C938E931297E0E04A
:103CE000F0E0D80112968D919C911397009719F0EE
:103CF000F8018C01F6CF8D919C9198012E5F3F4F7A
:103D0000820F931F2091F2033091F3032817390794
:103D100069F4309729F41092F5031092F40302C06D
:103D2000138212821093F3030093F203DF91CF9179
:103D30001F910F91089581E090E0F8940C94BA1EC1
:103D4000FB01DC010D900020E9F7119701900D9225
:103D50000020E1F70895FB01DC014150504048F09C
:103D600001900D920020C9F701C01D9241505040B2
:103D7000E0F7089511E0C8E2D1E004C0FE010E941E
:0E3D8000681D2196C932D107C9F7F894FFCF0C
:103D8E000100060000F603800000000000F40F534F
:103D9E0001E40E3B10150FF30E070F000000009903
:103DAE0002690227033D0261024D023E020000003D
:103DBE0000000000002A037E017E0100000000E5E5
:103DCE000704042A0381052B030000000078035327
:103DDE00012703ED02EE020503D5020D0A00414450
:063DEE00584C333435008F
:00000001FF
