:100000000C9454020C947C020C947C020C94E40931
:100010000C94C0090C949C090C947C020C947C02F6
:100020000C947C020C947C020C947C020C947C0258
:100030000C947C020C947C020C947C020C947C0248
:100040000C9412060C947C020C9443050C941D0530
:100050000C947C020C947C020C947C020C947C0228
:100060000C9491070C947C02084AD73B3BCE016E5E
:1000700084BCBFFDC12F3D6C74319ABD56833DDAFF
:100080003D00C77F11BED9E4BB4C3E916BAAAABE0E
:10009000000000803F07634236B79BD8A71A396833
:1000A0005618AEBAAB558C1D3CB7CC5763BD6DED41
:1000B000FD753EF6177231BF000000803F0800005A
:1000C00000BE922449123EABAAAA2ABECDCCCC4C8B
:1000D0003E00000080BEABAAAAAA3E00000000BFFE
:1000E000000000803F0000000000084178D3BB43BF
:1000F00087D1133D190E3CC3BD4282AD2B3E68EC47
:100100008276BED98FE1A93E4C80EFFFBE01C4FFCD
:100110007F3F0000000000000000000024002700D6
:100120002A0000000008000201000003040700008C
:1001300000000000000000C20100010005000500F1
:100140000300030000E1000001000F000F000D009C
:100150000D0000960000020019001A001700170099
:10016000127A00000700200021001D001D00807091
:1001700000000B002300230020002000004B0000A3
:1001800014003700370034003400403800001E00EF
:100190004B004B0048004800482600003100710029
:1001A00071006F006F00E4250000310071007100E4
:1001B0006F006F0080250000320072007200700036
:1001C0007000C01200006E00E900E900E600E600E1
:1001D00060090000E500D801D801D501D501B004BF
:1001E0000000D301B403B403B103B103580200000B
:1001F000B40367076707620762072C0100006707FF
:10020000DD0EDD0EDA0EDA0E2000B000526F6C6CDF
:1002100000B00050697463680047005A2D41786946
:1002200073004700592D41786973004700582D41EC
:10023000786973005243540020202020472D5365D5
:100240006E736F720020524354204A6574692054C3
:100250006F6F6C730020202020472D53656E736FE5
:10026000720020524354204A65746920546F6F6CA9
:1002700073005072657373203C20746F2065786939
:10028000740053657474696E67732073746F72655C
:100290006421004261636B3A203C00536176653A09
:1002A00020557020616E6420446E00B020436F7250
:1002B0003A0056616C3A200056616C3A00536574FE
:1002C00020526F6C6C20746F2030B000B020436FF0
:1002D000723A0056616C3A200056616C3A005365E0
:1002E0007420506974636820746F2030B000472018
:1002F000436F723A00205A3A2000205A3A002053A5
:100300006574205A20746F20312E304700472043F7
:100310006F723A0020593A200020593A0020536564
:1003200074205920746F20302E3047004720436FCF
:10033000723A0020583A200020583A002053657441
:10034000205820746F20302E304700202020204776
:100350002D53656E736F720020524354204A6574AA
:100360006920546F6F6C730000070E091C1B121577
:10037000383F363124232A2D70777E796C6B626585
:10038000484F464154535A5DE0E7EEE9FCFBF2F575
:10039000D8DFD6D1C4C3CACD90979E998C8B828565
:1003A000A8AFA6A1B4B3BABDC7C0C9CEDBDCD5D255
:1003B000FFF8F1F6E3E4EDEAB7B0B9BEABACA5A245
:1003C0008F88818693949D9A2720292E3B3C353235
:1003D0001F18111603040D0A5750595E4B4C454225
:1003E0006F68616673747D7A898E878095929B9C15
:1003F000B1B6BFB8ADAAA3A4F9FEF7F0E5E2EBEC05
:10040000C1C6CFC8DDDAD3D4696E676075727B7CF4
:1004100051565F584D4A4344191E171005020B0CE4
:1004200021262F283D3A33344E49404752555C5BD4
:100430007671787F6A6D64633E39303722252C2BC4
:100440000601080F1A1D1413AEA9A0A7B2B5BCBBB4
:100450009691989F8A8D8483DED9D0D7C2C5CCCBA4
:10046000E6E1E8EFFAFDF4F30000000025002800C3
:100470002B000000000023002600290004040404CF
:10048000040404040202020202020303030303033E
:10049000010204081020408001020408102001021B
:1004A000040810204D1ADD1011241FBECFEFD8E034
:1004B000DEBFCDBF25E0A4E3B2E001C01D92AB39A1
:1004C000B207E1F712E0A0E0B1E0EAEBF6E402C027
:1004D00005900D92A433B107D9F712E0C3E5D2E03D
:1004E00004C02197FE010E942421C235D107C9F71B
:1004F0000E9415110C9450230C940000CF92DF92AF
:10050000EF92FF920F931F93CF93DF936C017A01C9
:100510008B01C0E0D0E0CE15DF0589F0D8016D91E8
:100520008D01D601ED91FC910190F081E02DC60185
:100530000995892B11F47E0102C02196ECCFC701E9
:10054000DF91CF911F910F91FF90EF90DF90CF90AF
:100550000895FC01918D828D981761F0828DDF01E5
:10056000A80FB11D5D968C91928D9F5F9F73928FA6
:1005700090E008958FEF9FEF0895FC01918D828D9B
:10058000981731F0828DE80FF11D858D90E0089568
:100590008FEF9FEF0895FC01918D228D892F90E0C0
:1005A000805C9F4F821B91098F73992708958CE57A
:1005B00093E00E94CB0221E0892B09F420E0822FF6
:1005C0000895FC01848DDF01A80FB11DA35ABF4F10
:1005D0002C91848D90E001968F739927848FA68942
:1005E000B7892C93A089B1898C9180648C93938D69
:1005F000848D981306C00288F389E02D80818F7D59
:1006000080830895EF92FF920F931F93CF93DF9310
:10061000EC0181E0888F9B8D8C8D981305C0E88953
:10062000F989808185FD24C0F62E0B8D10E00F5FC7
:100630001F4F0F731127E02E8C8DE8120CC00FB6E0
:1006400007FCFACFE889F989808185FFF5CFCE01D3
:100650000E94E102F1CF8B8DFE01E80FF11DE35AFC
:10066000FF4FF0820B8FEA89FB898081806207C08F
:10067000EE89FF896083E889F989808180648083BD
:1006800081E090E0DF91CF911F910F91FF90EF906B
:100690000895CF93DF93EC01888D8823C9F0EA8910
:1006A000FB89808185FD05C0A889B9898C9186FD6B
:1006B0000FC00FB607FCF5CF808185FFF2CFA88968
:1006C000B9898C9185FFEDCFCE010E94E102E7CF81
:1006D000DF91CF91089580E090E0892B29F00E946E
:1006E000D70281110C9400000895833081F028F422
:1006F000813099F08230A1F008958730A9F08830D8
:10070000B9F08430D1F4809180008F7D03C0809156
:1007100080008F7780938000089584B58F7702C022
:1007200084B58F7D84BD08958091B0008F7703C01C
:100730008091B0008F7D8093B000089585ED809307
:10074000BC008091BC0084FDFCCF10920203089590
:1007500040917602262F30E0240F311D21323105E1
:10076000DCF4209102032430C9F4FC0180E090E025
:10077000861758F4309176022191DC01AC5ABD4FB6
:10078000A30FB11D2C930196F3CF80917602680FD1
:100790006093760280E0089581E0089582E00895F4
:1007A0000895E091BB028091BA02E81730F4F0E0BE
:1007B000E454FD4F808190E008958FEF9FEF0895FE
:1007C0009091BB028091BA02981750F4E92FF0E0A3
:1007D000E454FD4F208130E09F5F9093BB0202C044
:1007E0002FEF3FEFC90108958091BA0290E0209168
:1007F000BB02821B91090895CF92DF92EF92FF9284
:100800000F931F93CF93DF937C01262F972F8A019D
:1008100080910303882391F0C62FD72F6E01C40E59
:10082000D51ECC15DD0571F06991D701ED91FC91D4
:100830000190F081E02DC7010995F3CF642F822F3D
:100840000E94A803C801DF91CF911F910F91FF90E3
:10085000EF90DF90CF900895CF93DF931F92CDB7A5
:10086000DEB76983209103032223D1F02091260370
:10087000203240F021E030E0FC013383228380E02D
:1008800090E015C080910403E82FF0E0EB5FFC4F8F
:10089000998190838F5F809304038093260305C022
:1008A00061E0CE0101960E94A80381E090E00F90E4
:1008B000DF91CF910895DC015196ED91FC91529713
:1008C000908150968C918095892380830895209102
:1008D0005A0330915B032817390781F4909158032C
:1008E00080915903981751F0E0915803F0E0EC5CC7
:1008F000FD4F8081082E000C990B08958FEF9FEF1C
:10090000089520915A0330915B032817390739F471
:100910008FB7F89410925903109258038FBF08951F
:1009200020915A0330915B032817390769F48091AD
:1009300059032091580390E08096821B910960E250
:1009400070E00E94DA2008958FEF9FEF08952091C4
:100950005A0330915B0328173907B9F49091580373
:10096000809159039817A1F0E0915803F0E0EC5CF6
:10097000FD4F80812091580330E02F5F3F4F2F7152
:1009800033272093580390E008958FEF9FEF089549
:100990008EEF9FEF089508950E9421230F931F93D8
:1009A000CF93DF938C01EB0188E2FB0111928A95D2
:1009B000E9F74BE050E066E571E0CE010E9441238B
:1009C0001B8681E090E0A0E0B0E08C879D87AE8739
:1009D000BF87F80183819481A581B681888B998B2B
:1009E000AA8BBB8B86E090E0A0E0B0E08C8B9D8B67
:1009F000AE8BBF8B1CA21DA21EA21FA28AE098EE86
:100A0000ACE1B3EC888F998FAA8FBB8F8AE098EE08
:100A1000ACE1B3E48C8F9D8FAE8FBF8F83EA9FEAEA
:100A2000A0E2BDE388A399A3AAA3BBA3DF91CF91C2
:100A30001F910F9108950C94BF211F920F920FB632
:100A40000F9211242F933F934F935F936F937F9354
:100A50008F939F93AF93BF93EF93FF938CE593E0B6
:100A60000E94E102FF91EF91BF91AF919F918F9111
:100A70007F916F915F914F913F912F910F900FBE9A
:100A80000F901F9018951F920F920FB60F9211247E
:100A90002F938F939F93EF93FF93E0916C03F091CB
:100AA0006D038081E0917203F091730382FD12C0A7
:100AB0009081809175038F5F8F73209176038217E9
:100AC00051F0E0917503F0E0E45AFC4F958F80936C
:100AD000750301C08081FF91EF919F918F912F91BC
:100AE0000F900FBE0F901F9018951F93CF93DF9319
:100AF000282F30E0F901EE5DFE4F8491F901E057B7
:100B0000FB4FD491F901E458FB4FC491CC23C9F0B9
:100B1000162F81110E947503EC2FF0E0EE0FFF1FDE
:100B2000E859FB4FA591B4918FB7F894111105C006
:100B30009C91ED2FE095E92302C0EC91ED2BEC9315
:100B40008FBFDF91CF911F910895CF93DF9390E0F6
:100B5000FC01E057FB4F2491FC01E458FB4F8491CA
:100B6000882361F190E0880F991FFC01E85EFE4F39
:100B7000C591D491FC01E859FB4FA591B491611145
:100B800009C09FB7F8948881209582238883EC91CF
:100B90002E230BC0623061F49FB7F8943881822F06
:100BA000809583238883EC912E2B2C939FBF06C0C6
:100BB0008FB7F894E8812E2B28838FBFDF91CF91D8
:100BC00008953FB7F8948091A0029091A102A0915E
:100BD000A202B091A30226B5A89B05C02F3F19F031
:100BE0000196A11DB11D3FBFBA2FA92F982F8827AD
:100BF000820F911DA11DB11DBC01CD0143E0660F07
:100C0000771F881F991F4A95D1F708952FB7F89439
:100C100060919C0270919D0280919E0290919F0232
:100C20002FBF08951F920F920FB60F9211242F938A
:100C30003F938F939F93AF93BF9380919C0290912A
:100C40009D02A0919E02B0919F0230919B0226E0EE
:100C5000230F2D3720F40296A11DB11D05C029E8F0
:100C6000230F0396A11DB11D20939B0280939C022C
:100C700090939D02A0939E02B0939F028091A00248
:100C80009091A102A091A202B091A3020196A11D90
:100C9000B11D8093A0029093A102A093A202B093F1
:100CA000A302BF91AF919F918F913F912F910F9090
:100CB0000FBE0F901F9018954F925F926F927F9288
:100CC0008F929F92AF92BF92CF92DF92EF92FF925C
:100CD0000F931F93CF93DF93982E842E722E07E0ED
:100CE00010E0612CEE24E394F12CC62FD0E0CE016D
:100CF0008E5D9E4F6C01FE01E057FB4F5F01C458B3
:100D0000DB4F660C60E0892D0E947505B701002E4F
:100D100001C0660F0A94EAF76721882D0E947505C5
:100D200061E0892D0E947505F6018491F5015490CA
:100D3000FE014490442081F081110E947503A42D8E
:100D4000B0E0AA0FBB1FAE58BB4FFD018591949137
:100D5000FC0180815822A9F40150110990F6862DDA
:100D6000DF91CF911F910F91FF90EF90DF90CF9087
:100D7000BF90AF909F908F907F906F905F904F90BB
:100D80000895862D8160682EE7CF0F931F93CF9330
:100D9000DF93EC01162F8D85882319F181E0809374
:100DA000030383E580932503109204031092260326
:100DB00089EF93E00E942C0481E00E94460E82E0BD
:100DC00090E00E94EB0E89EF93E00E94E003C82FB1
:100DD00089EF93E00E94E003982F88278C010C2B69
:100DE0001EC060E08C850E947505212F206C4A850D
:100DF0006B8589850E945C062FEF4A856B85898506
:100E00000E945C06082F2FEF4A856B8589850E941A
:100E10005C0610E0182B61E08C850E947505C80106
:100E2000DF91CF911F910F9108950F931F93CF934F
:100E3000DF938C01EB0184E2FB0111928A95E9F7C3
:100E400084E290E0A0E0B0E088839983AA83BB832A
:100E5000F80183819481A581B6818C839D83AE83C3
:100E6000BF8381E090E0A0E0B0E088879987AA87FF
:100E7000BB87188A198A1A8A1B8A62E3C8010E94F2
:100E8000C506BC01990F880B990B0E94171C2FE611
:100E900032E143E85BE30E94761C2AE038EE4CE145
:100EA00051E40E94761C6C8B7D8B8E8B9F8B64E350
:100EB000C8010E94C506BC01990F880B990B0E94BE
:100EC000171C2FE632E143E85BE30E94761C2AE020
:100ED00038EE4CE151E40E94761C688F798F8A8F3E
:100EE0009B8F66E3C8010E94C506BC01990F880B61
:100EF000990B0E94171C2FE632E143E85BE30E9446
:100F0000761C2AE038EE4CE151E40E94761C6C8F8E
:100F10007D8F8E8F9F8F81E0DF91CF911F910F91F9
:100F200008951F920F920FB60F9211242F933F93A3
:100F30004F935F936F937F938F939F93AF93BF93E1
:100F4000EF93FF938091B900887F803609F49CC0AD
:100F500068F5883209F45BC090F4803109F454C01C
:100F600038F4882309F4F6C0883009F44DC0F6C07F
:100F7000883109F44CC0803209F45DC0EFC0803480
:100F800009F468C048F4803309F455C0883309F087
:100F9000E5C080930003D8C0803509F44FC0883580
:100FA00009F45DC0883409F0D9C0D6C0883909F485
:100FB000C7C0A8F4883709F467C038F4883609F444
:100FC00063C0803709F460C0C9C0883809F4B8C06C
:100FD000803909F45FC0803809F0C0C05BC0803B35
:100FE00009F486C038F4803A09F466C0883A09F4F6
:100FF0007FC0B4C0803C09F4A7C0883C09F4A4C0F9
:10100000883B09F48AC0AAC08091DD0210C090918B
:10101000FF028091FE02981770F5E091FF0281E0D7
:101020008E0F8093FF02F0E0E252FD4F80818093AB
:10103000BB0085EC86C0809300038EC0E091FF0268
:1010400081E08E0F8093FF028091BB00F0E0E252BE
:10105000FD4F80839091FF028091FE026EC0E0916F
:10106000FF0281E08E0F8093FF028091BB00F0E0D1
:10107000E252FD4F80838091010381116DC081E0B8
:101080008093DC0284EA61C083E0809302031092C3
:101090009A02CFCF80919A02803208F051C0E0913D
:1010A0009A0281E08E0F80939A028091BB00F0E05B
:1010B000E658FD4F8083BDCF85EC8093BC00109235
:1010C000020380919A02803230F4E0919A02F0E0BB
:1010D000E658FD4F108260919A0270E0E09178022C
:1010E000F09179028AE792E0099510929A0236C04F
:1010F00084E0809302031092770210927602E091CE
:101100007402F0917502099580917602811105C0F3
:1011100081E08093760210925402E091770281E0A0
:101120008E0F80937702F0E0EC5AFD4F8081809320
:10113000BB009091770280917602981708F479CFDE
:1011400085E88093BC000AC085EC8093BC001092B7
:10115000020304C0109200030E949E03FF91EF91CE
:10116000BF91AF919F918F917F916F915F914F91BF
:101170003F912F910F900FBE0F901F90189520E078
:1011800001972FEF8F3F9207D9F70895CF92DF9203
:10119000EF92FF920F931F93CF93DF93EC01898D12
:1011A0009A8D009729F421E030E03B832A8364C0C4
:1011B000FFB6F89428E030E090E081E0482F462325
:1011C00009F09F5F880F21503109C1F78E8D811181
:1011D0009F5FE62E192F1095CE010E945B04898D2A
:1011E0009A8D04960E94BF0888E0C82ED12C01E099
:1011F000802F8E2139F0E989FA8990818889892B9D
:10120000808303C0CE010E945B04898D9A8D0E9469
:10121000BF08000F81E0C81AD10851F78E8D8823CE
:1012200039F0E989FA8990818889892B808303C004
:10123000CE010E945B04898D9A8D0E94BF0810FF29
:1012400007C0E989FA8990818889892B808303C046
:10125000CE010E945B04898D9A8D0E94BF08E989A6
:10126000FA8990818889892B8083FFBE8B8D9C8D24
:101270000E94BF0881E090E0DF91CF911F910F9114
:10128000FF90EF90DF90CF900895EF92FF920F9331
:101290001F93CF93DF93C0915A03D0915B032097A4
:1012A00009F443C08B899C890E94BF0888E0E82E1E
:1012B000F12C10E001E08D899E890E94BF08EE8527
:1012C000FF8590818D85892311F0102B03C0802F1D
:1012D00080951823000F81E0E81AF10861F78D89E5
:1012E0009E890E94BF088F89988D0E94BF088091B7
:1012F00059032091580390E001968F71992730E0AF
:101300008217930779F0E0915903F0E0EC5CFD4F10
:1013100010838091590390E001968F7199278093F3
:10132000590303C08D8D81608D8FDF91CF911F9107
:101330000F91FF90EF9008951F920F920FB60F92AA
:1013400011242F933F934F935F936F937F938F93CA
:101350009F93AF93BF93EF93FF930E944509FF9133
:10136000EF91BF91AF919F918F917F916F915F911D
:101370004F913F912F910F900FBE0F901F90189596
:101380001F920F920FB60F9211242F933F934F93FA
:101390005F936F937F938F939F93AF93BF93EF93DD
:1013A000FF930E944509FF91EF91BF91AF919F91EB
:1013B0008F917F916F915F914F913F912F910F90FE
:1013C0000FBE0F901F9018951F920F920FB60F929D
:1013D00011242F933F934F935F936F937F938F933A
:1013E0009F93AF93BF93EF93FF930E944509FF91A3
:1013F000EF91BF91AF919F918F917F916F915F918D
:101400004F913F912F910F900FBE0F901F90189505
:101410000C943C1D0895CF93DF93C0E0D0E0809101
:10142000510590E0C817D907ECF4209761F00197B7
:10143000C817D90741F081E020914F053091500540
:10144000C217D30709F480E0FE01E556FB4F608127
:101450008093700582E595E00E94C60810927005A1
:101460002196DDCFDF91CF910895E0915C03F0915B
:101470005D030190F081E02D682F8CE593E00994E5
:1014800080915A0390915B0382559540A1F0809121
:101490006F058E7F80936F058FB7F8941092590374
:1014A0001092580322E535E030935B0320935A03F2
:1014B0008FBF81E0089580E008952F923F924F9270
:1014C0005F926F927F928F929F92AF92BF92CF92D4
:1014D000DF92EF92FF920F931F93CF93DF93CDB7DD
:1014E000DEB728970FB6F894DEBF0FBECDBF2B0135
:1014F0003C0158874F8320E030E0A9010E94101C76
:1015000087FF05C060E070E080E09FEB04C060E012
:1015100070E080E09FE300E010E02F813885021743
:1015200013074CF420E030E040E251E40E94601EDA
:101530000F5F1F4FF2CF9B01AC01C301B2010E94AC
:10154000821D6B017C0120E030E0A901C301B201E2
:101550000E94101C87FF04C0F7FAF094F7F8F0948B
:1015600000E010E03DEC39836CEC6A832CEC222E19
:101570003DE3332E20E030E040E251E469817A819E
:10158000C1010E94761C5B01982E892EA70196014D
:101590000E94101C18163CF00F5F1F4FA982BA82E0
:1015A000292C382CE7CF0115110529F058017FEFC0
:1015B000A71AB70A03C092E0A92EB12C20E030E0B0
:1015C000A901C301B2010E94101C87FF03C08FEF65
:1015D000A81AB80A8F8198850196A80EB91E1A1408
:1015E0001B0444F081E090E0DC01AA19BB09BC8334
:1015F000AB8302C01C821B8220E030E0A901C30142
:10160000B2010E94101C87FF07C08DE2809348033F
:10161000AA24A394B12C02C0A12CB12C0115110550
:1016200041F4F501E85BFC4F80E38083F5013196DE
:101630005F01812C912C94012A0D3B1D3E832D834B
:1016400080169106B1F129813A81A101C701B60145
:101650000E94601E0E94D21E2B013C016D817E8182
:10166000685B7C4F4AE0C2010E94DB1BB201550C53
:10167000880B990B0E94171C29813A81A1010E94B5
:10168000761C9B01AC01C701B6010E94811D6B0154
:101690007C0120E030E040E251E469817A81C101BF
:1016A0000E94601E69837A831C01FFEF8F1A9F0AD4
:1016B000C2CF89016F817885161617063CF4F901AF
:1016C000E85BFC4F8EE280830F5F1F4FA12CB12C93
:1016D0008F819885A816B9064CF520E030E040E2ED
:1016E00051E4C701B6010E94761C2B013C010E9407
:1016F000D21E6B017C01B501600F711F685B7C4FCE
:101700004AE0C6010E94DB1BB601DD0C880B990B79
:101710000E94171C9B01AC01C301B2010E94811DF4
:101720006B017C017FEFA71AB70AD2CF97FF02C0E7
:1017300080E090E0080F191FAB81BC81AB2B81F0DA
:101740009801F801E85BFC4F40E20F5F1F4F4193A7
:10175000C801821B930B6B817C8186179707ACF3C2
:10176000F801E85BFC4F108288E493E028960FB6FE
:10177000F894DEBF0FBECDBFDF91CF911F910F91C7
:10178000FF90EF90DF90CF90BF90AF909F908F90A1
:101790007F906F905F904F903F902F900895A7E7B4
:1017A000B5E020E040E250E15A0F21111FC0FC01DA
:1017B00034913323D9F03C93119601965A13F5CF07
:1017C00080E090E020E030E2DC01A958BA4F21111E
:1017D00010C0FB01E80FF91FE491EE2351F0509681
:1017E000EC9301968031910579F708954C9321E0AF
:1017F000E3CF50963C9321E0F4CFCF93DF93E8E31F
:10180000F3E001900020E9F73197E853F340C8E393
:10181000D3E0A7E7B5E080E090E28E1718F42881C6
:101820002C9301C09C938F5F219611968031A9F76C
:10183000E8E2F3E001900020E9F73197E852F34045
:1018400080E090E020E2DC01A958BA4F8E1738F40E
:10185000EC01C85DDC4F388150963C9302C0509635
:101860002C9301968031910571F7DF91CF91089506
:101870002F923F924F925F926F927F928F929F92A0
:10188000AF92BF92CF92DF92EF92FF920F931F938E
:10189000CF93DF93CDB7DEB7A0970FB6F894DEBF36
:1018A0000FBECDBF909199049923C9F02EE72093E4
:1018B0009B0422E920939C0423E220939D049093AF
:1018C0009E0490910301992311F0915003C010924E
:1018D000990496E09093030104E010E002C000E058
:1018E00010E090919904911197C19EE790939B0409
:1018F0009FE990939C0410929D0496E290939E041D
:1019000094EA90939F049CEA9093A00497E09093AC
:10191000A1041092A2048111E8C080E480939D0488
:1019200070909A04809027049090280408E010E0BA
:10193000612CD62CD70CED2DF0E0E815F9050CF054
:10194000C7C0DF01AA0FBB1FA758BB4FAD90BC900B
:10195000A114B10409F4B8C0D29430EFD322C80165
:10196000895D9B4F7C01DC01AC58BF4FDC92E7598D
:10197000FB4FC080CC2021F093E09C1590F104C077
:10198000D5016D917C9130C06C2D70E080E090E0CD
:101990000E94151C9B01AC0160E070E080E291E4C4
:1019A0000E943C1FF50120813181428153810E94B8
:1019B000761C1B012C0120E030E0A9010E942F1FA2
:1019C00020E030E040E05FE387FD05C0C201B101E7
:1019D0000E94821D04C0C201B1010E94811D0E94AB
:1019E000D21EF3E0FC15B0F0F701EC58FF4F8D2D3F
:1019F000816080837F79D12C20E2C29ED02CCC24C0
:101A000011246C297D2931966083319670830D5F96
:101A10001F4F5AC084E0C81211C0F701EC58FF4FA5
:101A20008D2D846080833196D5018C918083319691
:101A300011968C9180833196108219C0B6E0BC1546
:101A4000C8F0F701EC58FF4F8D2D85608083F501BC
:101A50008281F701EB58FF4F8083D50111968C915D
:101A600011973196808331968C918F7180830C5FB2
:101A70001F4F2AC0B9E0CB1227C0F701EC58FF4F27
:101A80008D2D89608083F5018381F701EB58FF4F2D
:101A90008083D50112968C9112973196808311968E
:101AA0008C911197319680838C91F801E156FB4F10
:101AB00080838C91853421F08E3421F4108202C011
:101AC000B0E2B0830B5F1F4F6394E6E06E1231CF3C
:101AD00086E0870D282F30E0281539051CF4809307
:101AE0009A047BC010929A0478C0E0912703F0E03A
:101AF000EE0FFF1FE75DFB4F608171817E01F1E119
:101B0000EF0EF11CC7010E94D41BE0912703F0E007
:101B1000EE0FFF1FE75BFB4F608171818E010F5F4E
:101B20001F4FC8010E94D41B809127038093A304F8
:101B3000F70101900020E9F73197EE19FF09EE0F48
:101B4000EE0FEE0FD8010D900020E9F71197A01BC2
:101B5000B10BA370EA2BE093A404D7012AE030E094
:101B6000F70101900020E9F73197AF014E195F09A5
:101B7000F901EC58FF4FBD016E197F096417750715
:101B800038F49D91E95DFB4F90832F5F3F4FE8CF85
:101B9000E95DFB4FA801201B310BB901640F751FD4
:101BA000D8010D900020E9F71197A01BB10B7A0125
:101BB000E01AF10AEA16FB0628F4DA019D91AD015C
:101BC0009193EBCF8B018F5F90E060912704709130
:101BD00028040E94DA208093270380919D049EEFC1
:101BE000900F892B80939D0422E0E0E0822F90E00B
:101BF000801791075CF4DC01A556BB4F8C91E82758
:101C0000F0E0E859FC4FE4912F5FF0CFD801A556E2
:101C1000BB4FEC930F5F1F4FC801895D9B4FFC01C9
:101C2000EC58FF4F2EEF20831093500500934F0583
:101C3000D801A456BB4FE7E7F5E020E22E0F319123
:101C40003D932E13FCCFFC01EB56FF4F8FEF8083AB
:101C50000E5D1F4F0093510581E0A0960FB6F894DA
:101C6000DEBF0FBECDBFDF91CF911F910F91FF90CF
:101C7000EF90DF90CF90BF90AF909F908F907F902C
:101C80006F905F904F903F902F900895382F209144
:101C9000260390912503213208F049C08091020368
:101CA0008111FCCF42E040930203309301033FEFE8
:101CB000309300031092FF022093FE02A5E0B3E0F0
:101CC0004EED52E0FA013E2F341B321718F43D91CD
:101CD0003193F9CF1092DD022091DD02990F922B02
:101CE0009093DD029091DC02913061F41092DC025D
:101CF0009091DD029093BB009091BC0093FDF8CFD2
:101D000095EC01C095EE9093BC0090910203923047
:101D1000E1F3909100039F3F79F0809100038032BE
:101D200041F080910003803331F084E005C081E010
:101D300003C082E001C083E01092040310922603E6
:101D40001092030308951F93CF93DF931F92CDB793
:101D5000DEB7282F162F809126048823D9F081E042
:101D60008093030383E5809325031092040310926C
:101D70002603622F89EF93E00E942C04612F89EFE4
:101D800093E00E942C0481E00F90DF91CF911F918E
:101D90000C94460E60E08091250429830E9475050D
:101DA00029814091230460912404809122040E949F
:101DB0005C06212F40912304609124048091220429
:101DC0000E945C0661E0809125040F90DF91CF9125
:101DD0001F910C947505909102039111FCCF8132F3
:101DE00008F080E291E090930203909301032FEFBB
:101DF000209300031092FF02280F2093FE0290937D
:101E0000DD029091DD02966A9093DD029091DC02F2
:101E1000913061F41092DC029091DD029093BB004E
:101E20009091BC0093FDF8CF95EC01C095EE909396
:101E3000BC00909102039130E1F39091FF0298175A
:101E400010F48091FF02AEEDB2E02CEB32E0F9012C
:101E50009E2F921B981718F49D919193F9CF109291
:101E6000BB028093BA020895CF93C82F80912604B5
:101E70008823D9F081E08093030383E580932503D1
:101E800010920403109226036C2F89EF93E00E94B6
:101E90002C0481E00E94460E81E090E00E94EB0E4F
:101EA00089EF93E00E94E0031FC060E08091250469
:101EB0000E9475052C2F2068409123046091240412
:101EC000809122040E945C062FEF409123046091D0
:101ED0002404809122040E945C06C82F61E0809156
:101EE00025040E9475058C2FCF910895009769F005
:101EF000FC0101900020E9F73197AF01481B590B15
:101F0000BC018CE593E00C947E0280E090E00895A3
:101F10008F929F92AF92BF920F931F93CF93DF93B5
:101F2000CDB7DEB7A1970FB6F894DEBF0FBECDBF19
:101F300019A2423008F44AE08E010F5D1F4F842E33
:101F4000912CA12CB12CA50194010E94EE20E62F2A
:101F5000B901CA0101501109EA3014F4E05D01C071
:101F6000E95CD801EC93232B242B252B61F7C801C6
:101F70000E94760FA1960FB6F894DEBF0FBECDBFBC
:101F8000DF91CF911F910F91BF90AF909F908F9055
:101F90000895CF93DF930E94760FEC0184E791E0E0
:101FA0000E94760F8C0F9D1FDF91CF9108950C94A6
:101FB000760F4F925F926F927F928F929F92AF9225
:101FC000BF92CF92DF92EF92FF926B017C01B42E11
:101FD0009B01AC010E94B41F882319F088E292E0B3
:101FE00027C026013701E89477F82FEF3FEF4FE73E
:101FF0005FE7C301B2010E94B41F81110DC02FEF32
:102000003FEF4FE75FE7C301B2010E94101C1816B3
:102010001CF48CE292E00CC02FEF3FEF4FE75FE43F
:10202000C701B6010E942F1F181684F480E392E0C6
:10203000FF90EF90DF90CF90BF90AF909F908F90E8
:102040007F906F905F904F900C94760F2FEF3FEF43
:102050004FE75FECC701B6010E94101C87FDE6CF79
:1020600020E030E0A901C701B6010E94101C87FFE3
:1020700009C08DE20E94350A4C01F7FAF094F7F896
:10208000F09402C0812C912CA12C60E070E080E0E3
:102090009FE3AB1441F020E030E040E251E40E94C5
:1020A000601EA394F6CF9B01AC01C701B6010E944C
:1020B000821D2B013C010E94D91E6B017C010E94F4
:1020C000151C9B01AC01C301B2010E94811D2B01B3
:1020D0003C014AE0C701B6010E94880F7C01E80C70
:1020E000F91CBB2029F08EE20E94350AE80EF91E89
:1020F000DB2CDD2021F120E030E040E251E4C3019F
:10210000B2010E94761C2B013C010E94D91E4B019A
:10211000A12CB12C4AE0C501B4010E94880FE80E41
:10212000F91EC501B4010E94151C9B01AC01C3013D
:10213000B2010E94811D2B013C01DA94DACFC70164
:10214000FF90EF90DF90CF90BF90AF909F908F90D7
:102150007F906F905F904F900895CF92DF92EF92B3
:10216000FF92CF93DF936C01990FEE08FF08F7FE03
:1021700017C08DE20E94350AEC0166277727CB0154
:102180006C197D098E099F094AE00E94880F8C0F07
:102190009D1FDF91CF91FF90EF90DF90CF9008953A
:1021A0004AE0C701B601DF91CF91FF90EF90DF9039
:1021B000CF900C94880F0C94341D8EE291E0909394
:1021C00053058093520520915E05263140F5283055
:1021D00028F02E3030F0ECE6F0E005C0EDE6F0E05F
:1021E00002C0EBE6F0E03081283038F481E090E086
:1021F00001C0880F2A95EAF70FC0422F50E02E3019
:1022000018F44850510902C04E50510981E090E045
:1022100001C0880F4A95EAF78095832380838091D7
:102220007105909172050C94BF21CF93DF93CDB7C8
:10223000DEB7E0970FB6F894DEBF0FBECDBF78943F
:1022400084B5826084BD84B5816084BD85B58260BB
:1022500085BD85B5816085BD80916E00816080936C
:102260006E001092810080918100826080938100D5
:1022700080918100816080938100809180008160E5
:10228000809380008091B10084608093B100809140
:10229000B00081608093B00080917A008460809368
:1022A0007A0080917A00826080937A0080917A002F
:1022B0008E7F80937A0080917A00806880937A0084
:1022C0001092C100E0916C03F0916D0382E0808375
:1022D000E0916803F09169031082E0916A03F09144
:1022E0006B0387E6808310927403E0917003F09192
:1022F000710386E08083E0916E03F0916F0380812B
:1023000080618083E0916E03F0916F03808188602B
:102310008083E0916E03F0916F03808180688083F9
:10232000E0916E03F0916F0380818F7D8083109226
:10233000000161E08DE00E94A50561E08DE00E9452
:10234000750586E791E00E94C90F8EE591E00E9435
:10235000D70F409175055091760560917105709188
:1023600072058CE593E00E947E0284E791E00E9472
:10237000760F87E791E00E94C90F82EA91E00E9400
:10238000C90F86E791E00E94C90F84ED91E00E9499
:10239000C90F86E791E00E94C90F61E083E00E94C7
:1023A000A50510926E0510926D0510926C051092A5
:1023B0006B0510926A0510926905109268051092DB
:1023C0006705109266051092650586E391E020E0AE
:1023D00030E0FC014591559165917491443E554220
:1023E0006105710509F034C04EE0429FC001439F72
:1023F000900D1124FC01E65CFE4F25913491309341
:10240000660520936505FC01E45CFE4F259134913F
:102410003093680520936705FC01E25CFE4F25912F
:10242000349130936A0520936905FC01E05CFE4F0E
:102430002591349130936C0520936B05FC01EE5B84
:10244000FE4F8591949190936E0580936D0507C022
:102450002F5F3F4F0E962F30310509F0BACF809194
:10246000690590916A05892B09F446C090915E0533
:102470009631E0F520916800983050F031E09E30C0
:1024800008F430E081E001C0880F3A95EAF701C016
:1024900084E0822B80936800983038F09E3040F0C2
:1024A000963148F4ECE6F0E008C0EDE6F0E005C057
:1024B000EBE6F0E002C0E0E0F0E04081983030F47C
:1024C00081E001C0880F9A95EAF70EC0292F30E00D
:1024D0009E3018F42850310902C02E50310981E095
:1024E00001C0880F2A95EAF7842B808380916B05C1
:1024F00090916C050E94BF080E94400A20E030E0E5
:102500004FE753E46091150470911604809117040D
:10251000909118040E94101C811108C0109215049B
:1025200010921604109217041092180420E030E064
:102530004FE753E4609111047091120480911304E9
:10254000909114040E94101C811108C01092110473
:1025500010921204109213041092140420E030E040
:102560004FE753E460910D0470910E0480910F04C5
:10257000909110040E94101C811108C010920D044B
:1025800010920E0410920F041092100420E030E01C
:102590004FE753E46091090470910A0480910B04A1
:1025A00090910C040E94101C811108C01092090423
:1025B00010920A0410920B0410920C0420E030E0F8
:1025C0004FE753E46091050470910604809107047D
:1025D000909108040E94101C811108C010920504FB
:1025E000109206041092070410920804C09015047B
:1025F000D0901604E0901704F090180420E030E02A
:102600004CEF52E4C701B6010E942F1F181684F444
:1026100020E030E04FE753E4C701B6010E94811D7E
:102620006093150470931604809317049093180414
:10263000C0901104D0901204E0901304F0901404A0
:1026400020E030E04CEF52E4C701B6010E942F1F9A
:10265000181684F420E030E04FE753E4C701B601D8
:102660000E94811D609311047093120480931304DF
:1026700090931404C0900D04D0900E04E0900F04C9
:10268000F090100420E030E04CEF52E4C701B601B6
:102690000E942F1F181684F420E030E04FE753E427
:1026A000C701B6010E94811D60930D0470930E0452
:1026B00080930F0490931004C0900904D0900A04F2
:1026C000E0900B04F0900C0420E030E04CEF52E47A
:1026D000C701B6010E942F1F181684F420E030E0D5
:1026E0004FE753E4C701B6010E94811D60930904BE
:1026F00070930A0480930B0490930C04C09005041B
:10270000D0900604E0900704F090080420E030E048
:102710004CEF52E4C701B6010E942F1F181684F433
:1027200020E030E04FE753E4C701B6010E94811D6D
:102730006093050470930604809307049093080443
:1027400080912604882341F11092BB021092BA02B4
:1027500010920403109226031092020381E08093EA
:1027600001031092DC0261E082E10E94750561E0E4
:1027700083E10E9475058091B9008E7F8093B90036
:102780008091B9008D7F8093B90080E28093B8007A
:1027900085E48093BC0019C061E0809125040E940B
:1027A000A50561E0809122040E94A50561E0809169
:1027B00022040E94750561E0809123040E94A50512
:1027C00060E0809124040E94A50580E00E94340FFF
:1027D000853E61F0682F70E080E090E040E10E946B
:1027E000880F84E791E00E94760F04C068E08DE2D4
:1027F0000E94A30E81E30E94340F807F682F6B60DC
:1028000081E30E94A30E83E090E0909321048093E3
:1028100020046CE08CE20E94A30E68E372E085E481
:1028200092E00E94CF0B84E392E090932A0480937D
:10283000290488E092E090934A04809349048091AF
:102840002704909128049C012F5F3F4FF901EE0F60
:10285000FF1FE75DFB4F4DE252E051834083FC01D7
:10286000EE0FFF1FE55BFB4F4BE252E051834083CD
:10287000FC01EE0FFF1FE558FB4F11821082F9019A
:10288000E759FB4F10822E5F3F4FF901EE0FFF1FFC
:10289000E95DFB4F44E252E051834083FC01EE0FBF
:1028A000FF1FE35BFB4F42E252E051834083FC0198
:1028B000EE0FFF1FE358FB4F11821082FC01E55918
:1028C000FB4F1082AC014C5F5F4FFA01EE0FFF1F10
:1028D000E95DFB4F6BE172E071836083FC01EE0FF9
:1028E000FF1FE15BFB4F69E172E071836083FC01D4
:1028F000EE0FFF1FE158FB4F11821082F901E759DB
:10290000FB4F10822E5F3F4FF901EE0FFF1FE95D75
:10291000FB4F63E172E071836083FC01EE0FFF1FE8
:10292000EF5AFB4F61E172E071836083FC01EE0FAF
:10293000FF1FEF57FB4F11821082FA01E759FB4F3F
:1029400010824E5F5F4FFA01EE0FFF1FE95DFB4FF4
:102950006CE072E071836083FC01EE0FFF1FED5AA3
:10296000FB4F6AE072E071836083880F991FFC015E
:10297000ED57FB4F11821082F901E759FB4F10828E
:10298000509328044093270486EB92E090937C04B4
:1029900080937B0481E080936A0422EB32E03093E1
:1029A0007E0420937D0480936B042EEA32E0309302
:1029B000800420937F0480936C048CEA92E09093CF
:1029C00082048093810410926D048AEA92E09093CD
:1029D00084048093830410926E0481E00E94380C7A
:1029E0000E940B0A0E94E1054B015C0184E1C82EA4
:1029F000D12CE12CF12C0E94E105DC01CB018819DE
:102A00009909AA09BB09883E9340A105B10558F070
:102A100021E0C21AD108E108F10888EE880E83E0AF
:102A2000981EA11CB11CC114D104E104F10419F7D2
:102A3000809127038111D1CF60E08DE00E94750560
:102A400003E610E0BE016F5F7F4F89E194E00E94D2
:102A500015078D889E88AF88B88C2FE236E842E84B
:102A60005FE3C501B4010E94761C0E948C1F20E028
:102A700030E040E251E40E94601E6B017C0120E0E6
:102A800030E040E251E460911504709116048091A9
:102A90001704909118040E94601E9B01AC01C701AD
:102AA000B6010E94811D6DA37EA38FA398A7498CB8
:102AB0005A8C6B8C7C8C2FE236E842E85FE3C301D2
:102AC000B2010E94761C0E948C1F20E030E040E2A0
:102AD00051E40E94601E6B017C0120E030E040E286
:102AE00051E460911104709112048091130490914B
:102AF00014040E94601E9B01AC01C701B6010E9434
:102B0000811D69A77AA78BA79CA7CD8CDE8CEF8C43
:102B1000F8A02FE236E842E85FE3C701B6010E9461
:102B2000761C0E948C1F20E030E040E251E40E94BD
:102B3000601E6DA77EA78FA798AB20E030E040E233
:102B400051E460910D0470910E0480910F049091F6
:102B500010040E94601E9B01AC016DA57EA58FA58F
:102B600098A90E94821D6093AE027093AF02809379
:102B7000B0029093B1028DA19EA1AFA1B8A5B058AB
:102B80008093B6029093B702A093B802B093B902B3
:102B900089A59AA5ABA5BCA5B0588093B202909325
:102BA000B302A093B402B093B502A7019601C50188
:102BB000B4010E94011E4B015C01A7019601C301F3
:102BC000B2010E94011E20EE3EE245E652E40E9460
:102BD000761C209105043091060440910704509121
:102BE00008040E94811D0E94D21E6B017C0120EE10
:102BF0003EE245E652E4C501B4010E94761C2091F4
:102C0000090430910A0440910B0450910C040E9475
:102C1000811D0E94D21E7195619571097093AD025C
:102C20006093AC02D194C194D108D092AB02C0920F
:102C3000AA028BED91E00E94D70F6091B6027091CD
:102C4000B7028091B8029091B90242E00E94D90F78
:102C50008FED91E00E94D70F6091B2027091B302A4
:102C60008091B4029091B50242E00E94D90F84EEA7
:102C700091E00E94D70F6091AE027091AF028091F7
:102C8000B0029091B10242E00E94D90F89EE91E02A
:102C90000E94D70F8091AC029091AD020E94AD10BE
:102CA00082EF91E00E94D70F8091AA029091AB022F
:102CB0000E94AD108AEF91E00E94D70F6091150439
:102CC00070911604809117049091180442E00E94BC
:102CD000D90F82E092E00E94D70F609111047091A9
:102CE0001204809113049091140442E00E94D90FC1
:102CF0008AE092E00E94D70F60910D0470910E045B
:102D000080910F049091100442E00E94D90F82E15B
:102D100092E00E94D70F6091090470910A0480919B
:102D20000B0490910C0442E00E94D90F8AE192E0DA
:102D30000E94D70F609105047091060480910704EA
:102D40009091080442E00E94D90F84E791E00E942C
:102D5000760F0E9406060E940B0A0E9406066B016F
:102D60007C0160E083E00E94A50562E084E00E94AF
:102D7000A5050E94400A82E595E00E94810482E553
:102D800095E00E949004892B61F40E940606DC0104
:102D9000CB018C199D09AE09BF090697A105B105A4
:102DA00070F382E595E00E949004181619060CF065
:102DB000A4C182E595E00E94A70420910101309111
:102DC00002012817390709F498C1909302018093F2
:102DD00001012091A8023091A9028039910509F4DE
:102DE00011C144F48036910509F41BC18037910567
:102DF000B9F083C1803D910539F1803E910529F0FC
:102E0000803B910509F079C17AC02830310509F479
:102E100074C12F5F3F4F3093A9022093A8026DC168
:102E20002336310521F41092A9021092A802809154
:102E3000A8029091A902009709F45FC101979093AD
:102E4000A9028093A80259C12130310579F420E00C
:102E500030E040E85FE360911504709116048091C2
:102E60001704909118040E94821D5AC02230310527
:102E700079F420E030E040E85FE360911104709164
:102E8000120480911304909114040E94821D62C068
:102E90002330310579F420E030E040E85FE36091D1
:102EA0000D0470910E0480910F04909110040E9403
:102EB000821D6AC02430310579F420E030E040E81A
:102EC0005FE36091090470910A0480910B04909172
:102ED0000C040E94821D72C02530310509F00DC11D
:102EE00020E030E040E85FE3609105047091060463
:102EF00080910704909108040E94821D7AC02130BD
:102F00003105B9F420E030E040E85FE3609115045A
:102F10007091160480911704909118040E94811DED
:102F2000609315047093160480931704909318040B
:102F3000E4C022303105B9F420E030E040E85FE33E
:102F40006091110470911204809113049091140403
:102F50000E94811D609311047093120480931304E6
:102F600090931404CAC023303105B9F420E030E056
:102F700040E85FE360910D0470910E0480910F04AE
:102F8000909110040E94811D60930D0470930E04B3
:102F900080930F0490931004B0C024303105B9F42D
:102FA00020E030E040E85FE36091090470910A049A
:102FB00080910B0490910C040E94811D6093090480
:102FC00070930A0480930B0490930C0496C02530F0
:102FD000310509F092C020E030E040E85FE3609105
:102FE00005047091060480910704909108040E94E2
:102FF000811D6093050470930604809307049093E9
:1030000008047BC02630310509F077C060911504B3
:103010007091160480911704909118040E94D91E93
:103020002CC0232B09F069C01092150410921604CD
:1030300010921704109218041092110410921204A6
:10304000109213041092140410920D0410920E04A6
:1030500010920F04109210041092090410920A04A6
:1030600010920B0410920C041092050410920604A6
:10307000109207041092080460E080E090E00E9443
:10308000080A6091110470911204809113049091C8
:1030900014040E94D91E81E090E00E94080A609109
:1030A0000D0470910E0480910F04909110040E9401
:1030B000D91E82E090E00E94080A60910904709194
:1030C0000A0480910B0490910C040E94D91E83E0A5
:1030D00090E00E94080A60910504709106048091B6
:1030E0000704909108040E94D91E84E090E00E9499
:1030F000080A1093A9020093A8028091A802909157
:10310000A9028830910509F4A3C11092A702109278
:10311000A6028330910509F4B7C06CF481309105A3
:1031200029F10CF06AC0892B09F098C16BE473E0B7
:1031300088E593E091C18530910509F42CC10CF428
:10314000EAC08630910509F470C18336910509F013
:1031500085C1109238031092280362E872E088E378
:1031600093E00E94C91B62E772E06BC110923803C2
:10317000109228036CE373E088E393E00E94C91B7C
:1031800020E030E0A9016091B6027091B702809111
:10319000B8029091B9020E94101C87FF03C068E337
:1031A00073E002C063E373E088E293E00E94C91B0E
:1031B000109248036091B6027091B7028091B802F4
:1031C0009091B90241E050E00E945D0A68E473E02A
:1031D00088E293E00E942F236CE273E088E293E0A0
:1031E0000E94C91B10924803609115047091160447
:1031F00080911704909118040DC110923803109219
:1032000028036DE173E088E393E00E94C91B20E08E
:1032100030E0A9016091B2027091B3028091B402D2
:103220009091B5020E94101C87FF03C069E173E012
:1032300002C064E173E088E293E00E94C91B10922F
:1032400048036091B2027091B3028091B4029091F0
:10325000B50241E050E00E945D0A68E473E088E254
:1032600093E00E942F236DE073E088E293E00E94D8
:10327000C91B10924803609111047091120480914F
:10328000130490911404C6C01092380310922803BE
:103290006EEF72E088E393E00E94C91B20E030E00B
:1032A000A9016091AE027091AF028091B00290913D
:1032B000B1020E94101C87FF03C06AEF72E002C0D7
:1032C00065EF72E088E293E00E94C91B1092480308
:1032D0006091AE027091AF028091B0029091B10204
:1032E00041E050E00E945D0A68E473E088E293E008
:1032F0000E942F236EEE72E088E293E00E94C91BC9
:103300001092480360910D0470910E0480910F0497
:10331000909110047FC010923803109228036EED34
:1033200072E088E393E00E94C91B8091AC02909107
:10333000AD0297FF03C069ED72E002C063ED72E079
:1033400088E293E00E94C91B109248036091AC028E
:103350007091AD02072E000C880B990B0E94171C70
:1033600040E050E00E945D0A68E473E088E293E088
:103370000E942F236CEC72E088E293E00E94C91B4C
:10338000109248036091090470910A0480910B0423
:1033900090910C043FC010923803109228036DEBFB
:1033A00072E088E393E00E94C91B8091AA02909189
:1033B000AB0297FF03C068EB72E002C062EB72E001
:1033C00088E293E00E94C91B109248036091AA0210
:1033D0007091AB02072E000C880B990B0E94171CF2
:1033E00040E050E00E945D0A68E473E088E293E008
:1033F0000E942F236BEA72E088E293E00E94C91BCF
:1034000010924803609105047091060480910704AE
:103410009091080440E050E00E945D0A68E473E087
:1034200088E293E00E942F2310C01092380310927C
:1034300028036BE972E088E393E00E94C91B63E90B
:1034400072E088E293E00E94C91B0E94FD0B06C057
:1034500065E572E082E692E00E94CF0B8091A402C3
:103460009091A50201969093A5028093A4020597DE
:1034700044F081E00E94380C1092A5021092A40240
:1034800003C080E00E94380C0E94060661E084E0E0
:103490000E94A5050E946B03D5CA10925F0310928B
:1034A0005E0388EE93E0A0E0B0E080936003909329
:1034B0006103A0936203B09363032EE031E0309385
:1034C0005D0320935C0325EC30E030936903209387
:1034D000680324EC30E030936B0320936A0320EC04
:1034E00030E030936D0320936C0321EC30E0309397
:1034F0006F0320936E0322EC30E03093710320932E
:10350000700326EC30E03093730320937203109223
:10351000750310927603109277031092780310923D
:10352000FC031092FB038093FD039093FE03A09392
:10353000FF03B09300048EE191E09093FA0380932F
:10354000F903109272051092710510927405109291
:103550007305109276051092750566E070E080E0C4
:1035600090E00E9457220097A1F0909372058093FB
:10357000710525E030E030937405209373052091A8
:10358000750530917605232B09F0F8C0FC011082F7
:10359000F5C08091710590917205009711F00E941D
:1035A000BF2110927205109271051092760510924B
:1035B00075051092740510927305109255051092BE
:1035C000540588EE93E0A0E0B0E080935605909318
:1035D0005705A0935805B09359058EE291E090935A
:1035E000530580935205109266051092650510925E
:1035F00068051092670510926A051092690510928D
:103600006C0510926B0510926E0510926D058091FD
:103610006F058E7F80936F0561E084E00E94A505B1
:1036200061E084E00E947505E4E9F4E0E491E09350
:103630006205E0E8F4E0E491F0E0EE0FFF1FE859E6
:10364000FB4F85919491909364058093630562E0AC
:1036500083E00E94A50583E080935E05E3E9F4E042
:10366000E491E0935F05EFE7F4E0E491F0E0EE0F22
:10367000FF1FEE58FB4F85919491909361058093C5
:103680006005109299041092280410922704109259
:10369000510510929A048CE491E090931A0480935F
:1036A00019048FEF9FEFDC0180931C0490931D049D
:1036B000A0931E04B0931F041092210410922004C2
:1036C00081E08093260480E090E00E94DB10682F68
:1036D00070E080E090E00E94151C609315047093E8
:1036E0001604809317049093180481E090E00E94E0
:1036F000DB10682F70E080E090E00E94151C609362
:10370000110470931204809313049093140482E0C4
:1037100090E00E94DB10682F70E080E090E00E9453
:10372000151C60930D0470930E0480930F04909306
:10373000100483E090E00E94DB10682F70E080E0CE
:1037400090E00E94151C6093090470930A04809312
:103750000B0490930C0484E090E00E94DB10682F2F
:1037600070E080E090E00E94151C60930504709367
:1037700006048093070490930804089525E030E040
:10378000309376052093750562E272E00E943A2339
:1037900014CFFB01DC010D900020E9F71197059093
:1037A0000D920020E1F70895FB01DC0105900D92D8
:1037B0000020E1F70895BB274A3031F4992322F421
:1037C000BDE2909581959F4F0C94E71BBB27FB01B1
:1037D0005527AA27880F991FAA1FA41710F0A41B0A
:1037E00083955051B9F7A05DAA3308F0A95DA19364
:1037F000009779F7B111B1931192CB010C94001C91
:10380000DC01FC01672F71917723E1F7329704C047
:103810007C916D9370836291AE17BF07C8F30895D2
:103820000E94521C08F481E00895E89409C097FBB7
:103830003EF490958095709561957F4F8F4F9F4F87
:103840009923A9F0F92F96E9BB279395F6958795CB
:1038500077956795B795F111F8CFFAF4BB0F11F48E
:1038600060FF1BC06F5F7F4F8F4F9F4F16C0882335
:1038700011F096E911C0772321F09EE8872F762F6B
:1038800005C0662371F096E8862F70E060E02AF0AC
:103890009A95660F771F881FDAF7880F9695879598
:1038A00097F90895990F0008550FAA0BE0E8FEEF6D
:1038B00016161706E807F907C0F012161306E407F4
:1038C000F50798F0621B730B840B950B39F40A26ED
:1038D00061F0232B242B252B21F408950A2609F4CB
:1038E000A140A6958FEF811D811D08950E94891C1E
:1038F0000C94FA1C0E94EC1C38F00E94F31C20F07F
:10390000952311F00C94E31C0C94E91C11240C94E5
:103910002E1D0E940B1D70F3959FC1F3950F50E073
:10392000551F629FF001729FBB27F00DB11D639F71
:10393000AA27F00DB11DAA1F649F6627B00DA11D17
:10394000661F829F2227B00DA11D621F739FB00DBD
:10395000A11D621F839FA00D611D221F749F33272D
:10396000A00D611D231F849F600D211D822F762FC6
:103970006A2F11249F5750409AF0F1F088234AF0A3
:10398000EE0FFF1FBB1F661F771F881F915050400F
:10399000A9F79E3F510580F00C94E31C0C942E1D5A
:1039A0005F3FE4F3983ED4F3869577956795B79596
:1039B000F795E7959F5FC1F7FE2B880F911D9695B0
:1039C000879597F9089597F99F6780E870E060E020
:1039D00008959FEF80EC089500240A9416161706A8
:1039E00018060906089500240A94121613061406F0
:1039F00005060895092E0394000C11F4882352F053
:103A0000BB0F40F4BF2B11F460FF04C06F5F7F4F0A
:103A10008F4F9F4F089557FD9058440F551F59F0F1
:103A20005F3F71F04795880F97FB991F61F09F3FAB
:103A300079F087950895121613061406551FF2CFD4
:103A40004695F1DF08C0161617061806991FF1CF24
:103A500086957105610508940895E894BB2766274B
:103A60007727CB0197F90895F999FECF92BD81BDD3
:103A7000F89A992780B50895262FF999FECF1FBA95
:103A800092BD81BD20BD0FB6F894FA9AF99A0FBE87
:103A9000019608952F923F924F925F926F927F927C
:103AA0008F929F92AF92BF92CF92DF92EF92FF924E
:103AB0000F931F93CF93DF93CDB7DEB7CA1BDB0BFA
:103AC0000FB6F894DEBF0FBECDBF09942A8839889F
:103AD00048885F846E847D848C849B84AA84B984A6
:103AE000C884DF80EE80FD800C811B81AA81B981B2
:103AF000CE0FD11D0FB6F894DEBF0FBECDBFED01C6
:103B000008955058BB27AA270E94991D0C94FA1CAF
:103B10000E94EC1C38F00E94F31C20F039F49F3F07
:103B200019F426F40C94E91C0EF4E095E7FB0C94D0
:103B3000E31CE92F0E940B1D58F3BA1762077307A5
:103B40008407950720F079F4A6F50C942D1D0EF44A
:103B5000E0950B2EBA2FA02D0B01B90190010C019D
:103B6000CA01A0011124FF27591B99F0593F50F4B5
:103B7000503E68F11A16F040A22F232F342F44270D
:103B8000585FF3CF469537952795A795F040539505
:103B9000C9F77EF41F16BA0B620B730B840BBAF0D5
:103BA0009150A1F0FF0FBB1F661F771F881FC2F740
:103BB0000EC0BA0F621F731F841F48F48795779554
:103BC0006795B795F7959E3F08F0B0CF9395880F0E
:103BD00008F09927EE0F9795879508950E94EC1CA1
:103BE00060F080E891E009F49EEF0E94F31C28F059
:103BF00040E851E071F45EEF0CC00C94E91C0C94A9
:103C00002D1DE92FE0780E940B1D40F3092E052A97
:103C1000B1F3261737074807590738F00E2E07F873
:103C2000E02569F0E025E0640AC0EF6307F800943E
:103C300007FADB01B9019D01DC01CA01AD01EF9377
:103C40000E94771E0E94FA1C0E94311E5F9155232C
:103C500039F02BED3FE049E450FD49EC0C94821D16
:103C60000895DF93DD27B92FBF7740E85FE316168D
:103C7000170648075B0718F4D92F0E94341F9F933B
:103C80008F937F936F930E94B01FE8E6F0E00E944D
:103C9000081F0E94FA1C2F913F914F915F910E9443
:103CA000891CDD2351F09058A2EA2AED3FE049EC4F
:103CB0005FE3D0785D270E94991DDF910C94FA1C78
:103CC0000E94741E0C94FA1C0E94F31C58F00E946F
:103CD000EC1C40F029F45F3F29F00C94E31C5111D7
:103CE0000C942E1D0C94E91C0E940B1D68F3992363
:103CF000B1F3552391F3951B550BBB27AA276217E8
:103D00007307840738F09F5F5F4F220F331F441FF4
:103D1000AA1FA9F335D00E2E3AF0E0E832D0915028
:103D20005040E695001CCAF72BD0FE2F29D0660F15
:103D3000771F881FBB1F261737074807AB07B0E858
:103D400009F0BB0B802DBF01FF2793585F4F3AF05E
:103D50009E3F510578F00C94E31C0C942E1D5F3FA0
:103D6000E4F3983ED4F3869577956795B795F795E4
:103D70009F5FC9F7880F911D9695879597F90895CC
:103D8000E1E0660F771F881FBB1F62177307840768
:103D9000BA0720F0621B730B840BBA0BEE1F88F777
:103DA000E09508950E94D91E6894B1110C942E1DBF
:103DB00008950E94131D88F09F5798F0B92F9927F6
:103DC000B751B0F0E1F0660F771F881F991F1AF006
:103DD000BA95C9F714C0B13091F00E942D1DB1E021
:103DE00008950C942D1D672F782F8827B85F39F020
:103DF000B93FCCF3869577956795B395D9F73EF49F
:103E000090958095709561957F4F8F4F9F4F089546
:103E1000DF93CF931F930F93FF92EF92DF927B017B
:103E20008C01689406C0DA2EEF010E94891CFE0105
:103E3000E894A5912591359145915591A6F3EF010F
:103E40000E94991DFE019701A801DA9469F7DF909D
:103E5000EF90FF900F911F91CF91DF9108950E94F5
:103E6000521C08F48FEF08959B01AC0160E070E0F4
:103E700080E89FE30C94601EFA01EE0FFF1F30965E
:103E800021053105A1F16115710561F48038BFE3A9
:103E90009B0749F168949038810561F08038BFEF45
:103EA0009B0741F099234AF5FF3FE10531052105C4
:103EB00019F1E8940894E795D901AA2329F4AB2FC6
:103EC000BE2FF85FD0F310C0FF5F70F4A695E0F747
:103ED000F73950F019F0FF3A38F49F779F930DD0DF
:103EE0000F9007FC9058089546F00C94E91C60E090
:103EF00070E080E89FE308954FE79F775F934F93CB
:103F00003F932F930E945E202F913F914F915F919D
:103F10000E94761C0C94C11F0E94131DE8F09E376E
:103F2000E8F09639B8F49E3848F4672F782F882740
:103F3000985FF9CF86957795679593959539D0F3E6
:103F4000B62FB1706B0F711D811D20F48795779589
:103F5000679593950C94F31F0C940E200C942E1DD2
:103F60009B01AC010C94761C0E94521C880B990B8F
:103F7000089529F416F00C94E31C0C942D1D0C9458
:103F8000E91C0E94131DA8F39638A0F707F80F92BA
:103F9000E8942BE33AEA48EB5FE70E948C1C0F920F
:103FA0000F920F924DB75EB70F920E94A620E5E9DF
:103FB000F0E00E94081F4F915F91EF91FF91E5950E
:103FC000EE1FFF1F49F0FE57E0684427EE0F441F25
:103FD000FA95E1F74195550B0E9420200F9007FEBE
:103FE0000C94341F0895882371F4772321F098509E
:103FF000872B762F07C0662311F499270DC09051A7
:10400000862B70E060E02AF09A95660F771F881F74
:10401000DAF7880F9695879597F908959F3F31F0C5
:10402000915020F4879577956795B795880F911DE6
:104030009695879597F908950C94E31C0C940E209F
:104040000E94131DD8F39923C9F3940F511DA3F3B4
:104050009150504094F059F0882332F0660F771F4A
:10406000881F91505040C1F79E3F51052CF7880F93
:10407000911D9695879597F908955F3FACF0983E0E
:104080009CF0BB27869577956795B79508F4B16046
:104090009395C1F7BB0F58F711F460FFE8CF6F5F3E
:1040A0007F4F8F4F9F4FE3CF0C942E1D16F00C9433
:1040B0000E200C94E91C68940C94E31C0E94131DC0
:1040C000A8F39923C1F3AEF3DF93CF931F930F931C
:1040D000FF92C92FDD2788232AF02197660F771FCB
:1040E000881FDAF720E030E040E85FEB9FE3883993
:1040F00020F0803E38F021968F770E94821DEDEBF4
:10410000F0E004C00E94821DEAEEF0E00E94081F69
:104110008B01BE01EC01FB2E6F5771097595771F5E
:10412000880B990B0E94171C28E132E741E35FE3FB
:104130000E94891CAF2D9801AE01FF900F911F9135
:10414000CF91DF910E94991D0C94FA1CFA01DC01B9
:10415000AA0FBB1F9B01AC01BF5728F422273327AE
:104160004427507820C0B75190F4AB2F00244695D7
:1041700037952795011CA395D2F3002071F0220FEB
:10418000331F441FB395DAF30ED00C94811D6130B8
:104190007105A0E88A07B94630F49B01AC01662797
:1041A000772788279078309621F0208331834283C7
:1041B0005383089597FB072E16F4009407D077FDDC
:1041C00009D00E94102107FC05D03EF490958195FE
:1041D0009F4F0895709561957F4F0895A1E21A2E23
:1041E000AA1BBB1BFD010DC0AA1FBB1FEE1FFF1F9B
:1041F000A217B307E407F50720F0A21BB30BE40BEB
:10420000F50B661F771F881F991F1A9469F7609531
:104210007095809590959B01AC01BD01CF010895EB
:10422000AA1BBB1B51E107C0AA1FBB1FA617B707DC
:1042300010F0A61BB70B881F991F5A95A9F78095F8
:104240009095BC01CD010895EE0FFF1F0590F491EC
:10425000E02D0994CF93DF938230910510F482E032
:1042600090E0E0919905F0919A0520E030E0C0E0FF
:10427000D0E0309711F14081518148175907C0F0C3
:104280004817590761F482819381209719F09B8325
:104290008A832BC090939A058093990526C0211597
:1042A000310519F04217530718F49A01BE01DF01D6
:1042B000EF010280F381E02DDCCF2115310509F1FA
:1042C000281B390B2430310590F412968D919C9166
:1042D00013976115710521F0FB019383828304C05C
:1042E00090939A0580939905FD01329644C0FD0193
:1042F000E20FF31F81939193225031092D933C9348
:104300003AC02091970530919805232B41F42091D4
:10431000060130910701309398052093970520916D
:104320000401309105012115310541F42DB73EB747
:104330004091080150910901241B350BE09197052C
:10434000F0919805E217F307A0F42E1B3F0B2817F6
:10435000390778F0AC014E5F5F4F2417350748F0FE
:104360004E0F5F1F5093980540939705819391934B
:1043700002C0E0E0F0E0CF01DF91CF9108950F930C
:104380001F93CF93DF93009709F48CC0FC01329701
:10439000138212820091990510919A050115110559
:1043A00081F420813181820F931F209197053091F4
:1043B00098052817390779F5F0939805E093970544
:1043C00071C0D80140E050E0AE17BF0750F412961C
:1043D0002D913C911397AD012115310509F1D901BA
:1043E000F3CF9D01DA013383228360817181860FCF
:1043F000971F8217930769F4EC0128813981260FF2
:10440000371F2E5F3F4F318320838A819B819383A7
:104410008283452B29F4F0939A05E093990542C0D5
:104420001396FC93EE931297ED01499159919E01D9
:10443000240F351FE217F30771F480819181840FF7
:10444000951F029611969C938E9382819381139669
:104450009C938E931297E0E0F0E0D80112968D9134
:104460009C911397009719F0F8018C01F6CF8D916C
:104470009C9198012E5F3F4F820F931F20919705CB
:10448000309198052817390769F4309729F410926C
:104490009A051092990502C0138212821093980512
:1044A00000939705DF91CF911F910F910895A0E0A0
:1044B000B0E0EDE5F2E20C944E1DEC01009721F422
:1044C000CB010E942A21B8C0FC01E60FF71F9C0116
:1044D00022503109E217F30708F4ACC0D9010D915D
:1044E0001C91119706171707B0F00530110508F455
:1044F0009FC0C80104978617970708F499C0025017
:104500001109061B170B019311936D937C93CF0137
:104510000E94BF218DC05B01A01AB10A4C01800E20
:10452000911EA0919905B0919A0540E050E0E12CD0
:10453000F12C109709F44AC0A815B905D1F56D9072
:104540007C901197630182E0C80ED11CCA14DB0471
:1045500080F1A3014A195B096A0182E0C80ED11CEF
:104560001296BC9012971396AC91B5E0CB16D1047D
:1045700040F0B282A38351834083D9016D937C9331
:104580000AC00E5F1F4FC301800F911FF901918375
:104590008083EB2DFA2FE114F10431F0D70113964B
:1045A000FC93EE93129744C0F0939A05E09399051B
:1045B0003FC08D919C9111974817590708F4AC01A1
:1045C0007D0112960D90BC91A02DB3CF80919705DF
:1045D0009091980588159905E1F446175707C8F496
:1045E0008091040190910501009741F48DB79EB729
:1045F0004091080150910901841B950BE817F907B8
:10460000C8F4F0939805E0939705F90171836083EE
:104610000FC0CB010E942A217C01009759F0A8010C
:10462000BE010E942623CE010E94BF21C70104C003
:10463000CE0102C080E090E0CDB7DEB7EEE00C9492
:104640006A1D81E090E0F8940C945023FB01DC019A
:1046500002C001900D9241505040D8F70895FB01DF
:10466000DC010D900020E9F7119701900D920020D8
:10467000E1F70895FB01DC0101900D920020E1F7C4
:104680000895FB01DC014150504048F001900D922B
:104690000020C9F701C01D9241505040E0F7089535
:1046A00012E0C3E5D2E004C0FE010E94242121965D
:0A46B000C435D107C9F7F894FFCF15
:1046BA0001F0000600009B058000000000000203D4
:1046CA007E02CB02A902BD024903000000002C04AD
:1046DA00FC03F403E003D103D00300000000C60882
:1046EA007E029004A7046704810400000000000011
:1046FA000000CB04CC04CC04000000000A0A1B050D
:10470A00CB041507CE044144584C33343500524388
:10471A002D54686F756768747320472D53656E73DF
:10472A006F7220000D0A0064657369676E206279F2
:10473A00205465726F2053616C6D696E656E2040FE
:10474A002052432D54686F75676874732032303174
:10475A0037004672656520616E64206F70656E2D44
:10476A00736F75726365202D2052656C6561736580
:10477A006420756E646572204D49542D6C696365B9
:10478A006E73650052656164792100583A200020F1
:10479A00593A2000205A3A20002050697463683A36
:1047AA00200020526F6C6C3A2000207843616C3AEA
:1047BA002000207943616C3A2000207A43616C3AE8
:1047CA002000207043616C3A2000207243616C3AE9
:1047DA002000762E312E31006E616E00696E660001
:0447EA006F76660080
:00000001FF
