:100000000C945D010C9485010C9485010C948E0771
:100010000C948E070C948E070C9485010C9485012A
:100020000C9485010C9485010C9485010C94850138
:100030000C9485010C9485010C9485010C94850128
:100040000C94D5040C9485010C9406040C94E003E4
:100050000C9485010C9485010C9485010C94850108
:100060000C9454060C94850107634236B79BD8A7BD
:100070001A39685618AEBAAB558C1D3CB7CC5763CD
:10008000BD6DEDFD753EF6177231BF000000803F7B
:1000900008000000BE922449123EABAAAA2ABECD97
:1000A000CCCC4C3E00000080BEABAAAAAA3E000009
:1000B0000000BF000000803F000000000008417801
:1000C000D3BB4387D1133D190E3CC3BD4282AD2B38
:1000D0003E68EC8276BED98FE1A93E4C80EFFFBE30
:1000E00001C4FF7F3F00000000000000000024006A
:1000F00027002A0000000008000201000003040796
:1001000000000000000000000000000023002600A6
:10011000290000000000250028002B00040404042E
:1001200004040404020202020202030303030303A1
:10013000010204081020408001020408102001027E
:100140000408102047005A2D417869730047005970
:100150002D41786973004700582D4178697300522A
:1001600043542D470020472D53656E736F722076E0
:10017000312E340020524354204A65746920546F54
:100180006F6C730020472D53656E736F722076314C
:100190002E340020524354204A65746920546F6FF6
:1001A0006C73005072657373203C20546F20457847
:1001B00069740053657474696E67732053746F7249
:1001C00065642100507265737320446F776E00532D
:1001D000617665204375722E2053657475700050EA
:1001E0007265737320446F776E00526573746F721B
:1001F000652044656661756C747300507265737335
:1002000020446F776E00302E30304700302E30475C
:1002100000446563696D616C733A200050726573C8
:100220007320446F776E0046696C74657265640074
:100230005261770053656E736F723A200020436FEE
:10024000723A005A3A20005A3A0043616C69622EB1
:10025000205A20746F20312E30470020436F723AAD
:1002600000593A2000593A0043616C69622E2059C6
:1002700020746F20302E30470020436F723A0058B0
:100280003A2000583A0043616C69622E205820746D
:100290006F20302E30470020472D53656E736F72EC
:1002A0002076312E340020524354204A6574692050
:1002B000546F6F6C73000711FD1011241FBECFEF38
:1002C000D8E0DEBFCDBF11E0A0E0B1E0EAEFF2E49C
:1002D00002C005900D92A636B107D9F724E0A6E634
:1002E000B1E001C01D92AC33B207E1F711E0CCE5FB
:1002F000D1E004C02197FE010E941E20CB35D1071A
:10030000C9F70E94C8110C9470210C940000CF9280
:10031000DF92EF92FF920F931F93CF93DF936C01C5
:100320007A018B01C0E0D0E0CE15DF0589F0D8015D
:100330006D918D01D601ED91FC910190F081E02D40
:10034000C6010995892B11F47E0102C02196ECCFDC
:10035000C701DF91CF911F910F91FF90EF90DF9038
:10036000CF900895833081F028F4813099F0823065
:10037000A1F008958730A9F08830B9F08430D1F425
:10038000809180008F7D03C0809180008F77809363
:100390008000089584B58F7702C084B58F7D84BDB9
:1003A00008958091B0008F7703C08091B0008F7D59
:1003B0008093B000089585ED8093BC008091BC00CF
:1003C00084FDFCCF10921002089540919A01262FCF
:1003D00030E0240F311D21323105DCF42091100270
:1003E0002430C9F4FC0180E090E0861758F4309185
:1003F0009A012191DC01A858BE4FA30FB11D2C9387
:100400000196F3CF80919A01680F60939A0180E082
:10041000089581E0089582E008950895E091C9016A
:100420008091C801E81730F4F0E0E653FE4F808178
:1004300090E008958FEF9FEF08959091C90180910A
:10044000C801981750F4E92FF0E0E653FE4F2081E1
:1004500030E09F5F9093C90102C02FEF3FEFC901C9
:1004600008958091C80190E02091C901821B9109F3
:100470000895CF92DF92EF92FF920F931F93CF9345
:10048000DF937C01262F972F8A0180911102882308
:1004900091F0C62FD72F6E01C40ED51ECC15DD05E9
:1004A00071F06991D701ED91FC910190F081E02DFF
:1004B000C7010995F3CF642F822F0E94E501C8017F
:1004C000DF91CF911F910F91FF90EF90DF90CF9030
:1004D0000895CF93DF931F92CDB7DEB76983209144
:1004E00011022223D1F020913402203240F021E089
:1004F00030E0FC013383228380E090E015C08091DE
:100500001202E82FF0E0ED5EFD4F998190838F5F3E
:10051000809312028093340205C061E0CE010196FF
:100520000E94E50181E090E00F90DF91CF91089566
:100530000895DC015196ED91FC915297908150966F
:100540008C91809589238083089520913604309181
:1005500037042817390771F49091340480913504D9
:10056000981741F0E0913404F0E0E859FE4F8081A3
:1005700090E008958FEF9FEF08950895209136043D
:10058000309137042817390769F480913504209198
:10059000340490E04096821B910960E170E00E9473
:1005A000F61F089580E090E0089520913604309180
:1005B000370428173907B9F4909134048091350431
:1005C000981789F0E0913404F0E0E859FE4F8081FB
:1005D0002091340430E02F5F3F4F2F70332720935A
:1005E000340490E008958FEF9FEF0895089580E020
:1005F00090E00895089585E392E00E941B0F21E0AA
:10060000892B09F420E0822F08950F931F93CF9335
:10061000DF938C01EB0188E2FB0111928A95E9F7E7
:100620004BE050E06BE571E0CE010E9461211B863A
:1006300081E090E0A0E0B0E08C879D87AE87BF8727
:10064000F80183819481A581B681888B998BAA8BCF
:10065000BB8B86E090E0A0E0B0E08C8B9D8BAE8BF6
:10066000BF8B1CA21DA21EA21FA28AE098EEACE1C5
:10067000B3EC888F998FAA8FBB8F8AE098EEACE19C
:10068000B3E48C8F9D8FAE8FBF8F83EA9FEAA0E289
:10069000BDE388A399A3AAA3BBA3DF91CF911F9128
:1006A0000F910895CF92DF92EF92FF920F931F93D5
:1006B000CF93DF93EC0189A19AA1009729F421E05F
:1006C00030E03B832A8371C00FB7F8948F8D98A1D7
:1006D000892B91F028E030E090E081E0482F46231C
:1006E00009F09F5F880F21503109C1F7888D811172
:1006F0009F5F192F109501C010E0F62ECE010E94C9
:10070000990289A19AA10197F1F788E0C82ED12C0E
:10071000EE24E3948E2D8F2139F0E989FA899081B6
:100720008889892B808303C0CE010E94990289A108
:100730009AA10197F1F7EE0C81E0C81AD10851F7A0
:100740008E89882389F0888D882339F0E989FA8990
:1007500090818889892B808303C0CE010E949902F1
:1007600089A19AA10197F1F78F8D98A1892B81F02A
:1007700010FF07C0E989FA8990818889892B8083D5
:1007800003C0CE010E9499028F8D98A10197F1F7C5
:10079000E989FA8990818889892B80830FBF8D8DA3
:1007A0009E8D0197F1F781E090E0DF91CF911F914D
:1007B0000F91FF90EF90DF90CF9008950C94B920A7
:1007C0001F920F920FB60F9211242F933F934F93C6
:1007D0005F936F937F938F939F93AF93BF93EF93A9
:1007E000FF9385E392E00E947310FF91EF91BF9118
:1007F000AF919F918F917F916F915F914F913F91B9
:100800002F910F900FBE0F901F9018951F920F926F
:100810000FB60F9211242F938F939F93EF93FF9313
:10082000E0914502F09146028081E0914B02F09107
:100830004C0282FD12C0908180914E028F5F8F73B7
:1008400020914F02821751F0E0914E02F0E0EB5CF4
:10085000FD4F958F80934E0201C08081FF91EF91F3
:100860009F918F912F910F900FBE0F901F90189511
:100870001F93CF93DF93282F30E0F901EC50FF4F07
:100880008491F901E05DFE4FD491F901E45EFE4FE1
:10089000C491CC23C9F0162F81110E94B201EC2F14
:1008A000F0E0EE0FFF1FEE5EFE4FA591B4918FB703
:1008B000F894111105C09C91ED2FE095E92302C039
:1008C000EC91ED2BEC938FBFDF91CF911F910895A9
:1008D000CF93DF9390E0FC01E05DFE4F2491FC019B
:1008E000E45EFE4F8491882361F190E0880F991FA8
:1008F000FC01E651FF4FC591D491FC01EE5EFE4F25
:10090000A591B491611109C09FB7F8948881209591
:1009100082238883EC912E230BC0623061F49FB751
:10092000F8943881822F809583238883EC912E2B35
:100930002C939FBF06C08FB7F894E8812E2B288395
:100940008FBFDF91CF9108953FB7F8948091C40194
:100950009091C501A091C601B091C70126B5A89B91
:1009600005C02F3F19F00196A11DB11D3FBFBA2F41
:10097000A92F982F8827820F911DA11DB11DBC01A1
:10098000CD0143E0660F771F881F991F4A95D1F765
:1009900008952FB7F8946091C0017091C1018091C2
:1009A000C2019091C3012FBF08951F920F920FB6FD
:1009B0000F9211242F933F938F939F93AF93BF93E5
:1009C0008091C0019091C101A091C201B091C30179
:1009D0003091BF0126E0230F2D3720F40296A11D90
:1009E000B11D05C029E8230F0396A11DB11D209359
:1009F000BF018093C0019093C101A093C201B09345
:100A0000C3018091C4019091C501A091C601B0912C
:100A1000C7010196A11DB11D8093C4019093C5012A
:100A2000A093C601B093C701BF91AF919F918F91E1
:100A30003F912F910F900FBE0F901F9018954F92DE
:100A40005F926F927F928F929F92AF92BF92CF925E
:100A5000DF92EF92FF920F931F93CF93DF93982E25
:100A6000842E722E07E010E0612CEE24E394F12C2A
:100A7000C62FD0E0CE018C509F4F6C01FE01E05D8F
:100A8000FE4F5F01C45EDE4F660C60E0892D0E9460
:100A90003804B701002E01C0660F0A94EAF76721F7
:100AA000882D0E94380461E0892D0E943804F601E7
:100AB0008491F5015490FE014490442081F081110D
:100AC0000E94B201A42DB0E0AA0FBB1FA85FBE4FC9
:100AD000FD0185919491FC0180815822A9F4015077
:100AE000110990F6862DDF91CF911F910F91FF9004
:100AF000EF90DF90CF90BF90AF909F908F907F90BE
:100B00006F905F904F900895862D8160682EE7CF9B
:100B10000F931F93CF93DF93EC01162F8D858823BE
:100B200019F181E08093110283E5809333021092E2
:100B300012021092340282ED92E00E94690281E07A
:100B40000E94B80D82E090E00E945D0E82ED92E07E
:100B50000E941D02C82F82ED92E00E941D02982F74
:100B600088278C010C2B1EC060E08C850E94380405
:100B7000212F206C4A856B8589850E941F052FEFE8
:100B80004A856B8589850E941F05082F2FEF4A85AE
:100B90006B8589850E941F0510E0182B61E08C850C
:100BA0000E943804C801DF91CF911F910F910895E1
:100BB0000F931F93CF93DF938C01EB0184E2FB0132
:100BC00011928A95E9F784E290E0A0E0B0E0888392
:100BD0009983AA83BB83F80183819481A581B6811F
:100BE0008C839D83AE83BF8381E090E0A0E0B0E082
:100BF00088879987AA87BB87188A198A1A8A1B8AC5
:100C000062E3C8010E948805BC01990F880B990B0B
:100C10000E94101D2FE632E143E85BE30E94C51DF0
:100C20002AE038EE4CE151E40E94C51D6C8B7D8BAF
:100C30008E8B9F8B64E3C8010E948805BC01990FCD
:100C4000880B990B0E94101D2FE632E143E85BE30D
:100C50000E94C51D2AE038EE4CE151E40E94C51DFA
:100C6000688F798F8A8F9B8F66E3C8010E94880501
:100C7000BC01990F880B990B0E94101D2FE632E1E1
:100C800043E85BE30E94C51D2AE038EE4CE151E4E5
:100C90000E94C51D6C8F7D8F8E8F9F8F81E0DF91AD
:100CA000CF911F910F9108951F920F920FB60F923F
:100CB00011242F933F934F935F936F937F938F9361
:100CC0009F93AF93BF93EF93FF938091B900887F79
:100CD000803609F49CC068F5883209F45BC090F452
:100CE000803109F454C038F4882309F4F6C0883000
:100CF00009F44DC0F6C0883109F44CC0803209F4C3
:100D00005DC0EFC0803409F468C048F4803309F452
:100D100055C0883309F0E5C080930E02D8C08035F5
:100D200009F44FC0883509F45DC0883409F0D9C092
:100D3000D6C0883909F4C7C0A8F4883709F467C059
:100D400038F4883609F463C0803709F460C0C9C03C
:100D5000883809F4B8C0803909F45FC0803809F0D8
:100D6000C0C05BC0803B09F486C038F4803A09F407
:100D700066C0883A09F47FC0B4C0803C09F4A7C0BB
:100D8000883C09F4A4C0883B09F48AC0AAC08091B9
:100D9000EB0110C090910D0280910C02981770F534
:100DA000E0910D0281E08E0F80930D02F0E0E4519E
:100DB000FE4F80818093BB0085EC86C080930E023D
:100DC0008EC0E0910D0281E08E0F80930D02809124
:100DD000BB00F0E0E451FE4F808390910D028091C2
:100DE0000C026EC0E0910D0281E08E0F80930D0227
:100DF0008091BB00F0E0E451FE4F808380910F02B0
:100E000081116DC081E08093EA0184EA61C083E0D2
:100E1000809310021092BE01CFCF8091BE0180322C
:100E200008F051C0E091BE0181E08E0F8093BE01B9
:100E30008091BB00F0E0E256FE4F8083BDCF85EC91
:100E40008093BC00109210028091BE01803230F479
:100E5000E091BE01F0E0E256FE4F10826091BE01CB
:100E600070E0E0919C01F0919D018EE991E009957F
:100E70001092BE0136C084E08093100210929B0154
:100E800010929A01E0919801F09199010995809151
:100E90009A01811105C081E080939A011092780136
:100EA000E0919B0181E08E0F80939B01F0E0E85878
:100EB000FE4F80818093BB0090919B0180919A01AD
:100EC000981708F479CF85E88093BC000AC085ECB8
:100ED0008093BC001092100204C010920E020E9477
:100EE000DB01FF91EF91BF91AF919F918F917F9126
:100EF0006F915F914F913F912F910F900FBE0F9087
:100F00001F901895862798E027E087FF03C0880F79
:100F1000822701C0880F9150C1F708951F920F9248
:100F20000FB60F9211242F933F934F935F936F93BC
:100F30007F938F939F93AF93BF93CF93DF93EF9361
:100F4000FF93E0913604F0913704309709F477C0AD
:100F50002F933F934F935F936F937F93AF93BF9381
:100F6000C685D78588812585822309F060C0818D5B
:100F7000928D0197F1F7438D548D68E070E030E079
:100F800081E0DA011197F1F79881922311F0382B63
:100F900003C0982F90953923880F6150710989F704
:100FA0008091350490E001968F7099276091340408
:100FB000681749F0A0913504B0E0A859BE4F3C93A2
:100FC0008093350403C087898160878B8689882355
:100FD000F1F0CA010197F1F78881282381E090E0C0
:100FE000A0E0B0E004C0880F991FAA1FBB1F2A957C
:100FF000D2F7409166015091670160E070E0842B68
:10100000952BA62BB72B9093670180936601878D54
:1010100090A1009711F00197F1F7858D968D0197BA
:10102000F1F7A389B4899C918589892B8C93BF9111
:10103000AF917F916F915F914F913F912F91FF9170
:10104000EF91DF91CF91BF91AF919F918F917F9160
:101050006F915F914F913F912F910F900FBE0F9025
:101060001F901895E0913604F0913704E817F907BE
:1010700069F4A389B4899C918589809589238C938F
:10108000109237041092360481E0089580E00895AC
:101090000C94E61B0C94DE1B08950F931F93CF93C3
:1010A000C82F0CEA13E0F801608F682FC8010E9476
:1010B0005203F801108E8C2FCF911F910F9108953C
:1010C0002F923F924F925F926F927F928F929F9258
:1010D000AF92BF92CF92DF92EF92FF920F931F9346
:1010E000CF93DF93CDB7DEB72A970FB6F894DEBF64
:1010F0000FBECDBF8C012A013B013A87298720E032
:1011000030E0A901C301B2010E94611C87FF05C044
:1011100060E070E080E09FEB04C060E070E080E0A1
:101120009FE3E12CF12CA985BA85EA16FB0654F45D
:1011300020E030E040E251E40E94661C2FEFE21A0A
:10114000F20AF1CF9B01AC01C301B2010E94F51B71
:101150006B017C0120E030E0A901C301B2010E94D3
:10116000611C87FF04C0F7FAF094F7F8F094A12C03
:10117000B12CBDECB983ECECEA83FCECFB832DE3F2
:101180002C8320E030E040E251E469817A818B8158
:101190009C810E94C51D962E872E382E292EA701D0
:1011A00096010E94611C181644F03FEFA31AB30A7F
:1011B00099828A823B822C82E4CFA114B10429F067
:1011C00045016FEF861A960A03C092E0892E912C92
:1011D00020E030E0A901C301B2010E94611C87FF39
:1011E00003C07FEF871A970A89859A850196880E32
:1011F000991E1814190444F081E090E0DC01A8194C
:10120000B909BE83AD8302C01E821D8220E030E09A
:10121000A901C301B2010E94611C87FF07C08DE2D2
:10122000F801808388248394912C02C0812C912C16
:10123000A114B10449F4F801E80DF91D80E380839D
:1012400094012F5F3F4F4901212C312CB101680DD2
:10125000791D78876F832A143B04D1F129813A8163
:101260004B815C81C701B6010E94661C0E94D81C9C
:101270002B013C016F817885600F711F4AE0C2012C
:101280000E94A91BB201550C880B990B0E94101DDE
:1012900029813A814B815C810E94C51D9B01AC0173
:1012A000C701B6010E94F41B6B017C0120E030E015
:1012B00040E251E469817A818B819C810E94661CA5
:1012C00069837A838B839C833FEF231A330ABECFD3
:1012D0005B0189859A851816190644F4F801E60F12
:1012E000F71F8EE28083DB0111965D01812C912C2A
:1012F000E985FA858E169F064CF520E030E040E245
:1013000051E4C701B6010E94C51D2B013C010E949A
:10131000D81C6B017C01B4016A0D7B1D600F711F2D
:101320004AE0C6010E94A91BB601DD0C880B990B8F
:101330000E94101D9B01AC01C301B2010E94F41B6D
:101340006B017C01BFEF8B1A9B0AD2CFCF01F7FF55
:1013500002C080E090E0A80EB91E2D813E81232BB3
:1013600089F09501F801EA0DFB1D40E26FEFA61A26
:10137000B60A4193C501821B930BAD81BE818A17CA
:101380009B07A4F3F801EA0DFB1D1082C8012A9601
:101390000FB6F894DEBF0FBECDBFDF91CF911F9186
:1013A0000F91FF90EF90DF90CF90BF90AF909F9004
:1013B0008F907F906F905F904F903F902F90089507
:1013C0002F923F924F925F926F927F928F929F9255
:1013D000AF92BF92CF92DF92EF92FF920F931F9343
:1013E000CF93DF93C090A603D090A703E090A8030B
:1013F000F090A9030E94C90420917E032223E9F002
:1014000060E08EE70E944D0861E082E90E944D088D
:1014100061E083E20E944D0861E080917E030E94BA
:101420004D0880910001882311F0815003C0109273
:101430007E0386E08093000170C324EFC20E21E09A
:10144000D21EE11CF11C11E0C616D706E806F9060B
:1014500008F010E060E08EE70E944D0861E08FE93F
:101460000E944D08111170C080917F03A091FC0271
:10147000B091FD02E82FF0E0EE0FFF1FE25AFC4FA3
:1014800020813181232B49F48F5F282F30E02A17E8
:101490003B0784F310927F0302C080937F03609127
:1014A0007F03F6E0E0E026E030E0E12C40E050E0B1
:1014B00070E0CA01860F971F8A179B07A4F5009753
:1014C00009F1E394880F991FFC01E25CFC4F8081D5
:1014D0008F718830A1F0813019F4C901039615C0CD
:1014E000811103C0C901029610C0853019F4C901E9
:1014F00004960BC0893019F0C901019606C0C901D4
:10150000059603C0C9012F2F3E2F4F5F5F4F40311B
:10151000510551F08B31910514F0EA9404C0F22F7B
:10152000E32F9C01C6CFC901C82FC06481E080931E
:10153000C4036C2F8CEA93E00E94520360E08C2F6E
:101540000E948207C82F1DC0E091CF03F0E0EE0F8C
:10155000FF1FE15CFC4F8081C82FCF71829586957B
:101560008770C80FC85F81E08093C4036C2F8CEA3A
:1015700093E00E94520360E08C2F0E948207C82FE4
:10158000E12CD1E0D093C40361E18CEA93E00E94A6
:1015900052036C2F81E10E948207C82FD093C403AD
:1015A00064EA8CEA93E00E9452036C2F84EA0E9462
:1015B0008207C82FD093C40362E08CEA93E00E94B4
:1015C00052036C2F82E00E948207C82FD093C4037D
:1015D00062E08CEA93E00E9452036C2F82E00E944A
:1015E0008207C82FD093C40360E08CEA93E00E9486
:1015F00052031092C4036C2F80E00E948207F82EE1
:101600001111EAC1C0917F036E2C6C0E2091FC0277
:101610003091FD02C61551F0772473947C0E7092C0
:101620007F030C2F10E00217130754F080917F0303
:1016300090E0821793070CF46CC210927F0369C28A
:10164000CC2309F4C7C1E091AA03F091AB0309953B
:10165000C295C07F680131E2C30ED11CC601880F5C
:10166000991FFC01E450FD4F5F0180818F7190E074
:101670008530910509F4BEC0F4F5009709F495C0D2
:10168000019709F0A7C1000F111FF801E25AFC4FA2
:101690000190F081E02D00811181C160D093C403DD
:1016A0006C2F8CEA93E00E9452036F2D8C2F0E94C6
:1016B0008207C82F1F79F501208122952695277072
:1016C00030E0322F22273295330F307E022B132B3E
:1016D000D093C403602F8CEA93E00E9452036C2FD6
:1016E000802F0E948207082F912F9F79F501C081DA
:1016F000C07EC92B74C08830910521F0099709F488
:10170000C2C068C1C860D093C4036C2F8CEA93E058
:101710000E9452036F2D8C2F0E948207C82F000F4A
:10172000111FF801E25AFC4F0190F081E02D8081F9
:101730009181A281B3816C017D01FFE9FF22D093E9
:10174000C4036C2D8CEA93E00E9452036C2F8C2D05
:101750000E948207C82F2D2C3E2C4F2C552447FC6D
:101760005A94D093C403622D8CEA93E00E945203F2
:101770006C2F822D0E948207C82F1701552437FC39
:101780005094452CD093C403622D8CEA93E00E94C0
:1017900052036C2F822D0E948207182F9F2D9F7954
:1017A000F501C081C07EC92B62C0000F111FF80176
:1017B000E25AFC4F0190F081E02D1081D093C403D8
:1017C0006C2F8CEA93E00E9452036F2D8C2F0E94A5
:1017D0008207082F1F79F501C081C07EC12BD093ED
:1017E000C4036C2F8CEA93E00E9452031092C4034E
:1017F000602F47C0C560D093C4036C2F8CEA93E080
:101800000E9452031092C4036F2D8C2F0E948207F6
:10181000F82E000F111FF801E25AFC4F0190F081E1
:10182000E02D118102819081F5012081229526957C
:101830002770213011F0C0E001C0C0E4C92BD09363
:10184000C403602F8CEA93E00E9452036F2D802F17
:101850000E948207082FD093C403612F8CEA93E083
:101860000E945203602F812F0E948207182FD0936D
:10187000C4036C2F8CEA93E00E9452031092C403BD
:10188000612F8C2FA4C0C960D093C4036C2F8CEA45
:1018900093E00E9452036F2D8C2F0E948207C82F65
:1018A000000F111FF801E25AFC4F0190F081E02D6A
:1018B00080809180A280B38020E030E0A901C50142
:1018C000B4010E94C01D18161CF4C501B40103C068
:1018D000C501B40190580E94DF1C8B0180E090E0AC
:1018E0000E940E1D9B01AC01C501B4010E94F41BB6
:1018F0002AE939E949E15FE30E94C51D20E030E5AE
:1019000043EC57E40E94C51D1B012C0120E030E090
:10191000A9010E94C01D18161CF4C201B10103C028
:10192000C201B10190580E94DF1C562EF72E812F64
:101930008170F601EE0FFF1FE450FD4F90819295EC
:1019400096959770913011F090E001C090E2192FB8
:10195000182B20E030E0A901C501B4010E94611CF0
:10196000881F8827881F8295880F880F807C182BF6
:10197000D093C403652D8CEA93E00E9452036C2F30
:10198000852D0E948207C82FD093C4036F2D8CEA47
:1019900093E00E9452036C2F8F2D0E948207C82F64
:1019A000D093C403602F8CEA93E00E9452036C2F03
:1019B000802F0E948207C82FD093C403612F8CEA26
:1019C00093E00E9452031092C4036C2F812F0E9457
:1019D0008207F82EC72D1ACEC091CF03D093C4032F
:1019E0006C2F8CEA93E00E9452036F2D8C2F0E9483
:1019F0008207B82E0C2F10E06801CC0CDD1C96017C
:101A0000215C3C4F4901F9012081922F9F71F8E040
:101A10009F9F70011124229526952770E22AD0936A
:101A2000C4036E2D8CEA93E00E9452031092C4030B
:101A30006B2D8E2D0E948207F82EF601E250FD4F8D
:101A4000D081AD2EB180772473942A2D2D1B30E0E8
:101A5000F40180818F7190E028173907A4F4F50113
:101A6000E4907092C4036E2D8CEA93E00E945203BE
:101A70001092C4036F2D8E2D0E948207F82EFFEF67
:101A8000AF1ABF0AE2CF000F111FD801A25EBC4FF0
:101A9000DC910D2F11961C919601215C3C4F690140
:101AA000BB24B394202F2D1B30E0F601808182955A
:101AB0008695877090E0281739079CF4F801E49028
:101AC000B092C4036E2D8CEA93E00E9452031092F0
:101AD000C4036F2D8E2D0E948207F82E0F5F1F4FBB
:101AE000E1CFCF5FC093CF038C2F90E02091FC0219
:101AF0003091FD028217930714F01092CF030E94D9
:101B0000C9046093A6037093A7038093A8039093DE
:101B1000A90361E08F2D0E944D08E091AA03F09186
:101B2000AB03099560E08EEF0E944D08C4E8D3E056
:101B30001C2F105E61E089910E944D081C13FACFA2
:101B400060E08FEF0E944D0881E0DF91CF911F91FF
:101B50000F91FF90EF90DF90CF90BF90AF909F904C
:101B60008F907F906F905F904F903F902F9008954F
:101B7000382F2091340290913302213208F049C06D
:101B8000809110028111FCCF42E04093100230930B
:101B90000F023FEF30930E0210920D0220930C02C1
:101BA000A3E1B2E04CEE51E0FA013E2F341B3217B4
:101BB00018F43D913193F9CF1092EB012091EB0194
:101BC000990F922B9093EB019091EA01913061F47F
:101BD0001092EA019091EB019093BB009091BC00B0
:101BE00093FDF8CF95EC01C095EE9093BC009091D9
:101BF00010029230E1F390910E029F3F79F08091B4
:101C00000E02803241F080910E02803331F084E088
:101C100005C081E003C082E001C083E0109212029F
:101C2000109234021092110208951F93CF93DF9304
:101C30001F92CDB7DEB7282F162F8091FB02882385
:101C4000D9F081E08093110283E5809333021092F2
:101C5000120210923402622F82ED92E00E94690219
:101C6000612F82ED92E00E94690281E00F90DF9186
:101C7000CF911F910C94B80D60E08091FA022983F6
:101C80000E94380429814091F8026091F902809104
:101C9000F7020E941F05212F4091F8026091F9027E
:101CA0008091F7020E941F0561E08091FA020F9077
:101CB000DF91CF911F910C943804909110029111F3
:101CC000FCCF813208F080E291E090931002909373
:101CD0000F022FEF20930E0210920D02280F209377
:101CE0000C029093EB019091EB01966A9093EB01BB
:101CF0009091EA01913061F41092EA019091EB0128
:101D00009093BB009091BC0093FDF8CF95EC01C07F
:101D100095EE9093BC00909110029130E1F3909178
:101D20000D02981710F480910D02ACEEB1E02AEC90
:101D300031E0F9019E2F921B981718F49D91919311
:101D4000F9CF1092C9018093C8010895CF93C82F8D
:101D50008091FB028823D9F081E08093110283E512
:101D60008093330210921202109234026C2F82ED93
:101D700092E00E94690281E00E94B80D81E090E04B
:101D80000E945D0E82ED92E00E941D021FC060E085
:101D90008091FA020E9438042C2F20684091F802AA
:101DA0006091F9028091F7020E941F052FEF409188
:101DB000F8026091F9028091F7020E941F05C82F76
:101DC00061E08091FA020E9438048C2FCF9108952F
:101DD0000E945121FC01538D448D252F30E0842F2A
:101DE00090E0821B930B541710F0CF960895019743
:101DF0000895FC01918D828D981761F0828DDF012D
:101E0000A80FB11D5D968C91928D9F5F9F73928FED
:101E100090E008958FEF9FEF0895FC01918D828DE2
:101E2000981731F0828DE80FF11D858D90E00895AF
:101E30008FEF9FEF0895FC01918D228D892F90E007
:101E4000805C9F4F821B91098F739927089580E0D2
:101E500090E0892B29F00E94FB0281110C94000074
:101E60000895CF92DF92FF920F931F93CF93DF934A
:101E70002091FC023091FD0220313105CCF56B013F
:101E800089010F5F1F4FF801EE0FFF1FE450FD4F58
:101E900091838083F901EE0FFF1FE25EFC4F718397
:101EA0006083F901EE0FFF1FE25AFC4F118210828E
:101EB000220F331FE901C25CDC4F18820E94A01B75
:101EC000982F9F718981807EF82EF92AC6010E9481
:101ED000A01B8295880F807E9F2D9F71F92EF82A76
:101EE000F9821093FD020093FC028FEF800F01C076
:101EF0008FEFDF91CF911F910F91FF90DF90CF90E7
:101F00000895CF93DF938CEA93E00E943208CCEAE5
:101F1000D3E061E08C850E94680461E08C85DF91EC
:101F2000CF910C9438048091C9039091CA03892BF6
:101F300031F1809136049091370423E08C3A920776
:101F4000F1F0009711F00E9432088091C3038E7F58
:101F50008093C30310923504109234048CEA93E00A
:101F60009093370480933604E091BF03F091C0034F
:101F700090818091C103892B808381E0089580E066
:101F800008950F931F93CF93DF938C01EB010E9471
:101F9000A01BA4E8B3E090E020E2981740F4A80169
:101FA0004F5F5F4FF80104910C938A0101C02C939D
:101FB0009F5F1196903189F7CE010E94A01BA4E982
:101FC000B3E090E020E2981740F4AE014F5F5F4F1E
:101FD000FE01C491CC93EA0101C02C939F5F11963E
:101FE000903189F7DF91CF911F910F910895CF9391
:101FF000DF93FC0101900020E9F73197E81B20E016
:1020000030E0F0E2A90148575F4F2E1748F4EA018B
:10201000C450DD4FDC01A20FB31FAC91A88304C0F4
:10202000DA01A450BD4FFC932F5F3F4F20313105A3
:1020300049F7FB0101900020E9F73197E61B80E0AA
:1020400090E040E29C0128563F4F8E1748F4E9018A
:10205000C450DD4FDB01A80FB91F5C91588304C049
:10206000D901A450BD4F4C9301968031910551F791
:10207000DF91CF9108958F929F92AF92BF92CF92AE
:10208000DF92EF92FF920E94A4044B015C0188EE64
:10209000C82E83E0D82EE12CF12C0E94A404DC0190
:1020A000CB0188199909AA09BB09883E9340A1056B
:1020B000B10558F021E0C21AD108E108F10888EE14
:1020C000880E83E0981EA11CB11CC114D104E10448
:1020D000F10419F7FF90EF90DF90CF90BF90AF9091
:1020E0009F908F900895FC01848DDF01A80FB11D92
:1020F000A35ABF4F2C91848D90E001968F7399273E
:10210000848FA689B7892C93A089B1898C9180642A
:102110008C93938D848D981306C00288F389E02DEB
:1021200080818F7D80830895EF92FF920F931F939C
:10213000CF93DF93EC0181E0888F9B8D8C8D98137A
:1021400005C0E889F989808185FD24C0F62E0B8DB4
:1021500010E00F5F1F4F0F731127E02E8C8DE812D8
:102160000CC00FB607FCFACFE889F989808185FF9A
:10217000F5CFCE010E947310F1CF8B8DFE01E80FD9
:10218000F11DE35AFF4FF0820B8FEA89FB898081B2
:10219000806207C0EE89FF896083E889F9898081C0
:1021A0008064808381E090E0DF91CF911F910F9157
:1021B000FF90EF900895CF93DF93EC01888D8823F3
:1021C000C9F0EA89FB89808185FD05C0A889B989A4
:1021D0008C9186FD0FC00FB607FCF5CF808185FF7F
:1021E000F2CFA889B9898C9185FFEDCFCE010E94ED
:1021F0007310E7CFDF91CF9108958DE491E0909334
:10220000AD038093AC038CEA93E00C943208E5E3D1
:10221000F2E01382128288EE93E0A0E0B0E08483C3
:102220009583A683B7832DE031E03183208325ECAD
:1022300030E03587248724EC30E03787268720EC90
:1022400030E0318B208B21EC30E0338B228B22EC81
:1022500030E0358B248B26EC30E0378B268B118ECB
:10226000128E138E148EE2EDF2E0138212828483BA
:102270009583A683B7832FE131E031832083ECEA95
:10228000F3E01382128284839583A683B7838DE45F
:1022900091E091838083A3ECB3E08C918E7F8C934B
:1022A000128E118E148E138E168E158E12A211A2FE
:1022B0001092800310928103109282031092830384
:1022C00010927E031092FD021092FC0210927F0386
:1022D00088E992E09093AB038093AA03EEEEF2E0DC
:1022E0008FE391E0918380838FEF9FEFDC01838305
:1022F0009483A583B6831086178281E0858780E06A
:1023000090E00E944A08682F70E080E090E00E9410
:102310000E1D6093EA027093EB028093EC0290939F
:10232000ED0281E090E00E944A08682F70E080E0B2
:1023300090E00E940E1D6093E6027093E702809386
:10234000E8029093E90282E090E00E944A08682F38
:1023500070E080E090E00E940E1D6093E2027093B6
:10236000E3028093E4029093E50283E090E00E9410
:102370004A0890E09093E1028093E00284E090E0CC
:102380000E944A0890E09093DF028093DE02089555
:10239000CF93DF93CDB7DEB7C456D1090FB6F8940B
:1023A000DEBF0FBECDBF789484B5826084BD84B596
:1023B000816084BD85B5826085BD85B5816085BD40
:1023C00080916E00816080936E00109281008091F8
:1023D0008100826080938100809181008160809380
:1023E0008100809180008160809380008091B100A5
:1023F00084608093B1008091B00081608093B000D0
:1024000080917A00846080937A0080917A00826063
:1024100080937A0080917A008E7F80937A008091F9
:102420007A00806880937A001092C10061E08DE0AC
:102430000E94680461E08DE00E94380461E083E05E
:102440000E94680460E083E00E94380480911A04CE
:1024500090911B04909302018093010165E671E065
:1024600084E791E00E94C10F8FE591E09093FF0215
:102470008093FE0210921F0310921E0310925F03BE
:1024800010925E0310923E0385E080933F0381E04B
:1024900090E09093FD028093FC0261E083E00E9453
:1024A000380461E083E00E94680413E3E12E11E048
:1024B000F12EF70184918093BC030FE111E0F80144
:1024C000849190E0880F991F8E5E9E4FFC012591AC
:1024D00034913093BE032093BD0360E083E00E94FB
:1024E000680461E083E00E94380483E08093B803CD
:1024F000F701E490E092B903F8010491E02FF0E0D5
:10250000EE0FFF1FE85FFE4F859194919093BB0300
:102510008093BA0381E08093C20383EC90E09093B0
:10252000CE038093CD0325E430E03093C60320939F
:10253000C50324EC30E03093C8032093C70341E186
:1025400052E05093CA034093C9033093CC032093C5
:10255000CB03209168002460209368002DE630E0D2
:102560003093C0032093BF0328E02093C103019759
:10257000F1F70E94930F0E94810F20E030E04FE7B7
:1025800053E46091EA027091EB028091EC02909129
:10259000ED020E94611C811108C01092EA021092A3
:1025A000EB021092EC021092ED0220E030E04FE7D7
:1025B00053E46091E6027091E7028091E802909105
:1025C000E9020E94611C811108C01092E60210927B
:1025D000E7021092E8021092E90220E030E04FE7B3
:1025E00053E46091E2027091E3028091E4029091E1
:1025F000E5020E94611C811108C01092E202109253
:10260000E3021092E4021092E5028091E0029091C0
:10261000E1028F3F910521F41092E1021092E00255
:102620008091DE029091DF028F3F910531F481E0CD
:1026300090E09093DF028093DE028091E00290911F
:10264000E102039724F01092E1021092E0028091DF
:10265000DE029091DF020197029730F081E090E076
:102660009093DF028093DE02C090EA02D090EB02EA
:10267000E090EC02F090ED0220E030E04CEF52E40C
:10268000C701B6010E94C01D181684F420E030E096
:1026900040E853E4C701B6010E94F41B6093EA02CC
:1026A0007093EB028093EC029093ED02C090E602EF
:1026B000D090E702E090E802F090E90220E030E0FC
:1026C0004CEF52E4C701B6010E94C01D181684F4F5
:1026D00020E030E040E853E4C701B6010E94F41B5B
:1026E0006093E6027093E7028093E8029093E90218
:1026F000C090E202D090E302E090E402F090E502A4
:1027000020E030E04CEF52E4C701B6010E94C01D4A
:10271000181684F420E030E040E853E4C701B60125
:102720000E94F41B6093E2027093E3028093E40240
:102730009093E5021091DE0266E571E088E591E094
:102740000E94310F8031A0F490E0FC01EE0FFF1FDA
:10275000E25AFC4F24E234E031832083880F991F32
:10276000FC01E25CFC4F1295110F107E1860108383
:102770001091DE026DE471E08FE491E00E94310F70
:102780008031A0F490E0FC01EE0FFF1FE25AFC4FF5
:1027900020E234E031832083880F991FFC01E25C42
:1027A000FC4F1295110F107E186010831091DE02FD
:1027B00064E471E086E491E00E94310F8031A0F47E
:1027C00090E0FC01EE0FFF1FE25AFC4F2CE134E0D9
:1027D00031832083880F991FFC01E25CFC4F129526
:1027E000110F107E186010838091FB02882341F145
:1027F0001092C9011092C801109212021092340274
:102800001092100281E080930F021092EA0161E0C1
:1028100082E10E94380461E083E10E9438048091E3
:10282000B9008E7F8093B9008091B9008D7F80932D
:10283000B90080E28093B80085E48093BC0019C0A1
:1028400061E08091FA020E94680461E08091F702E1
:102850000E94680461E08091F7020E94380461E000
:102860008091F8020E94680460E08091F9020E9461
:10287000680480E00E94A60E853ED9F190E0A0E0B9
:10288000B0E019A2BE016F5D7F4F8C019D010F70FA
:1028900011272227332744E0B695A795979587956A
:1028A0004A95D1F7615071090A30110521053105AA
:1028B00010F4005D01C0095CFB0100830097A105D5
:1028C000B10519F76115710559F001900020E9F77C
:1028D0003197AF01461B570B85E392E00E948701B9
:1028E00042E050E063E671E085E392E00E948701F8
:1028F00004C068E08DE20E94150E81E30E94A60EDE
:10290000807F682F6B6081E30E94150E83E090E06A
:102910009093F6028093F5026CE08CE20E94150E13
:102920000E94E00960E08DE00E943804BE016F5F04
:102930007F4F8EEE92E00E94D8052AE038EE4CE1FF
:1029400051E46D897E898F89988D0E94661C6B0188
:102950007C0120E030E048EC52E46091EA027091A2
:10296000EB028091EC029091ED020E94661C9B01AB
:10297000AC01C701B6010E94F41B6B017C012AE087
:1029800038EE4CE151E4698D7A8D8B8D9C8D0E94DF
:10299000661C4B015C0120E030E048EC52E46091A1
:1029A000E6027091E7028091E8029091E9020E94AC
:1029B000661C9B01AC01C501B4010E94F51B4B01D3
:1029C0005C0160932C0470932D0480932E049093EB
:1029D0002F042AE038EE4CE151E46D8D7E8D8F8D11
:1029E00098A10E94661C2B013C0120E030E048ECDD
:1029F00052E46091E2027091E3028091E4029091CE
:102A0000E5020E94661C9B01AC01C301B2010E9459
:102A1000F51BA5966CAF7DAF8EAF9FAFA59760936A
:102A200028047093290480932A0490932B04F7FAC6
:102A3000F094F7F8F094C0923004D0923104E09210
:102A40003204F09233048091E0029091E102019708
:102A500009F02BC28091E0039091E103A091E20381
:102A6000B091E3036D968CAF9DAFAEAFBFAF6D97E6
:102A70008093DC039093DD03A093DE03B093DF0328
:102A80004090E4035090E5036090E6037090E70304
:102A90004092E0035092E1036092E2037092E303FC
:102AA0008091D4039091D503A091D603B091D70320
:102AB000A1968CAF9DAFAEAFBFAFA1978093D0036F
:102AC0009093D103A093D203B093D3038091D80302
:102AD0009091D903A091DA03B091DB0369968CAF92
:102AE0009DAFAEAFBFAF69978093D4039093D503EA
:102AF000A093D603B093D70327EB31E34DE651E41F
:102B0000C701B6010E94661C9B01AC016093E403FF
:102B10007093E5038093E6039093E7036D966CADA5
:102B20007DAD8EAD9FAD6D970E94F51B6B017C0155
:102B3000A3019201C301B2010E94F51B9B01AC01EC
:102B4000C701B6010E94F51B6B017C012BEB3AE536
:102B500043ED5EEBA1966CAD7DAD8EAD9FADA197C3
:102B60000E94C51D9B01AC01C701B6010E94F51B67
:102B70006B017C012FE23DE442E95FE369966CADB5
:102B80007DAD8EAD9FAD69970E94C51D9B01AC01C7
:102B9000C701B6010E94F51B6B017C016093D8034D
:102BA0007093D9038093DA039093DB036091DE0284
:102BB0007091DF02072E000C880B990B0E94101DEC
:102BC0009B01AC0160E070E080E291E40E94321E63
:102BD0006D966CAF7DAF8EAF9FAF6D979B01AC01D3
:102BE000C701B6010E94C51D0E94821E0E94D81C0A
:102BF0006093240470932504809326049093270403
:102C0000C090F803D090F903E090FA03F090FB0332
:102C1000C092F403D092F503E092F603F092F7032A
:102C20004090FC035090FD036090FE037090FF0302
:102C30004092F8035092F9036092FA037092FB03FA
:102C40008091EC039091ED03A091EE03B091EF031E
:102C500069968CAF9DAFAEAFBFAF69978093E80325
:102C60009093E903A093EA03B093EB038091F00300
:102C70009091F103A091F203B091F303A1968CAF70
:102C80009DAFAEAFBFAFA1978093EC039093ED03E0
:102C9000A093EE03B093EF0327EB31E34DE651E44D
:102CA000C501B4010E94661C9B01AC016093FC034A
:102CB0007093FD038093FE039093FF03C701B60159
:102CC0000E94F51B6B017C01A3019201C301B201BB
:102CD0000E94F51B9B01AC01C701B6010E94F51BC8
:102CE0006B017C012BEB3AE543ED5EEB69966CAD35
:102CF0007DAD8EAD9FAD69970E94C51D9B01AC0156
:102D0000C701B6010E94F51B6B017C012FE23DE477
:102D100042E95FE3A1966CAD7DAD8EAD9FADA1970D
:102D20000E94C51D9B01AC01C701B6010E94F51BA5
:102D30006093F0037093F1038093F2039093F30395
:102D40006D962CAD3DAD4EAD5FAD6D970E94C51D2E
:102D50000E94821E0E94D81C60932004709321045C
:102D60008093220490932304409010045090110407
:102D7000609012047090130440920C0450920D0461
:102D800060920E0470920F04C0901404D090150449
:102D9000E0901604F0901704C0921004D092110431
:102DA000E0921204F09213048090040490900504C1
:102DB000A0900604B0900704809200049092010451
:102DC000A0920204B0920304809108049091090437
:102DD000A0910A04B0910B0469968CAF9DAFAEAF81
:102DE000BFAF69978093040490930504A0930604F1
:102DF000B093070427EB31E34DE651E4A5966CADA3
:102E00007DAD8EAD9FADA5970E94661C9B01AC0168
:102E10006093140470931504809316049093170420
:102E2000C301B2010E94F51B2B013C01A7019601D1
:102E3000C701B6010E94F51B9B01AC01C301B201A1
:102E40000E94F51B6B017C012BEB3AE543ED5EEB39
:102E5000C501B4010E94C51D9B01AC01C701B601AB
:102E60000E94F51B6B017C012FE23DE442E95FE328
:102E700069966CAD7DAD8EAD9FAD69970E94C51D05
:102E80009B01AC01C701B6010E94F51B60930804C9
:102E90007093090480930A0490930B046D962CADF3
:102EA0003DAD4EAD5FAD6D9740C06091DE0270915B
:102EB000DF02072E000C880B990B0E94101D9B014E
:102EC000AC0160E070E080E291E40E94321E2B01D0
:102ED0003C019B01AC01C701B6010E94C51D0E94C7
:102EE000821E0E94D81C6093240470932504809352
:102EF000260490932704A3019201C501B4010E9406
:102F0000C51D0E94821E0E94D81C609320047093ED
:102F100021048093220490932304A3019201A59697
:102F20006CAD7DAD8EAD9FADA5970E94C51D0E9475
:102F3000821E0E94D81C60931C0470931D04809311
:102F40001E0490931F0480911A0490911B048A30F0
:102F5000910521F01092190410921804209101019A
:102F6000309102012817390721F0909302018093D4
:102F700001018430910509F42EC1ACF48130910532
:102F800009F441C044F4892B09F08DC167E972E06E
:102F900086EA92E086C18230910509F47DC00397EC
:102FA00009F4D0C080C18730910509F45CC1ACF44C
:102FB0008530910509F42FC1069709F074C1269652
:102FC0001FAE26971DAA6AEE71E0CE018B5B9F4F64
:102FD0000E94951B6FED71E053C18A30910509F491
:102FE0005CC18336910509F05EC126961FAE269717
:102FF0001DAA63EB71E0CE018B5B9F4F0E94951B76
:1030000063EA71E03DC126961FAE26971DAA66E8C9
:1030100072E0CE018B5B9F4F0E94951B20E030E059
:10302000A901609130047091310480913204909133
:1030300033040E94611C87FF03C063E872E002C092
:103040006FE772E0CE01C5960E94951B1DA24091CC
:10305000300450913104609132047091330422E0C5
:1030600030E0CE0185960E946008BE016B5D7F4F07
:10307000CE01C5960E94562169E772E0CE01C59641
:103080000E94951B1DA24091EA025091EB026091B3
:10309000EC027091ED0248C026961FAE26971DAA3D
:1030A00068E672E0CE018B5B9F4F0E94951B20E08B
:1030B00030E0A90160912C0470912D0480912E04C0
:1030C00090912F040E94611C87FF03C065E672E0A7
:1030D00002C061E672E0CE01C5960E94951B1DA25A
:1030E00040912C0450912D0460912E0470912F0476
:1030F00022E030E0CE0185960E946008BE016B5D43
:103100007F4FCE01C5960E9456216BE572E0CE013D
:10311000C5960E94951B1DA24091E6025091E702C0
:103120006091E8027091E90220E030E0CE018596DE
:103130000E946008BE016B5D7F4FCE01C5960E9464
:103140005621A2C026961FAE26971DAA6AE472E0F9
:10315000CE018B5B9F4F0E94951B20E030E0A901C0
:10316000609128047091290480912A0490912B0485
:103170000E94611C87FF03C067E472E002C063E441
:1031800072E0CE01C5960E94951B1DA240912804B5
:103190005091290460912A0470912B0422E030E0C0
:1031A000CE0185960E946008BE016B5D7F4FCE0107
:1031B000C5960E9456216DE372E0CE01C5960E942D
:1031C000951B1DA24091E2025091E3026091E4023E
:1031D0007091E502A9CF26961FAE26971DAA64E33B
:1031E00072E0CE018B5B9F4F0E94951B8091E002A5
:1031F0009091E102009719F460E372E004C0019736
:1032000039F467E272E0CE018B5B9F4F0E94951B01
:103210006CE172E035C026961FAE26971DAA61E1CB
:1032200072E0CE018B5B9F4F0E94951B8091DE0266
:103230009091DF02019739F46CE072E0CE018B5B74
:103240009F4F0E94951B8091DE029091DF020297B2
:1032500039F466E072E0CE018B5B9F4F0E94951BB4
:103260006BEF71E00DC026961FAE26971DAA6FEC7E
:1032700071E0CE018B5B9F4F0E94951B64EC71E067
:10328000CE01C5960E94951BBE016B5C7F4FCE019F
:103290008B5B9F4F0E94F70F06C064E871E083E9E3
:1032A00091E00E94C10F8CEA93E00E9432080E94D4
:1032B000810F0E94E00960E08091B8030E946804D9
:1032C00061E08091B8030E9438040E94930F0E942D
:1032D000930F0E94C9046B017C01A4E6CA0ED11CA5
:1032E000E11CF11C00E010E00E94C9046C157D0592
:1032F0008E059F0578F58CEA93E00E94BE021816B1
:10330000190694F78CEA93E00E94BE02181619067B
:1033100014F000E01AC08CEA93E00E94D502082F56
:103320008091A5038013E4C1809080039090810375
:10333000A0908203B09083030E94C904861697066A
:10334000A806B90608F4D4C1E4CF10E001151105B0
:1033500059F2E6C1003F110509F4C7C10115110575
:1033600009F4C3C1003B110509F4AFC024F40037D0
:103370001105C9F0BAC1003D110569F1003E110502
:1033800009F0B3C180911A0490911B048A30910511
:1033900009F4ABC1019688309105C1F410921B0469
:1033A00010921A04A2C180911A0490911B048336D2
:1033B000910521F410921B0410921A0480911A04B2
:1033C00090911B04009709F490C1019790931B04FE
:1033D00080931A048AC180911A0490911B04813051
:1033E0009105B9F420E030E040E85FE36091EA0243
:1033F0007091EB028091EC029091ED020E94F51B1E
:103400006093EA027093EB028093EC029093ED02DA
:103410006CC182309105B9F420E030E040E85FE310
:103420006091E6027091E7028091E8029091E902D2
:103430000E94F51B6093E6027093E7028093E80216
:103440009093E90252C183309105B9F420E030E055
:1034500040E85FE36091E2027091E3028091E40250
:103460009091E5020E94F51B6093E2027093E302E3
:103470008093E4029093E50238C18430910591F481
:103480008091E0029091E1028130910529F410923F
:10349000E1021092E00229C101969093E10280932B
:1034A000E00223C1059709F020C18091DE029091CE
:1034B000DF028230910519F481E090E001C00196AD
:1034C0009093DF028093DE0210C100911A041091E4
:1034D0001B0401301105B9F420E030E040E85FE35F
:1034E0006091EA027091EB028091EC029091ED0202
:1034F0000E94F41B6093EA027093EB028093EC024B
:103500009093ED0259C002301105B9F420E030E08B
:1035100040E85FE36091E6027091E7028091E80283
:103520009091E9020E94F41B6093E6027093E70217
:103530008093E8029093E9023FC003301105B9F48B
:1035400020E030E040E85FE36091E2027091E30246
:103550008091E4029091E5020E94F41B6093E202E4
:103560007093E3028093E4029093E5027DC00430FF
:10357000110579F48091E0029091E102009719F42D
:1035800081E090E001C001979093E1028093E00216
:103590006BC00530110581F48091DE029091DF024D
:1035A0008130910519F482E090E001C00197909379
:1035B000DF028093DE0258C00630110509F054C0C6
:1035C0001092EA021092EB021092EC021092ED02BD
:1035D0001092E6021092E7021092E8021092E902BD
:1035E0001092E2021092E3021092E4021092E502BD
:1035F0001092E1021092E00281E090E09093DF02ED
:103600008093DE0260E080E090E00E9448086091D4
:10361000E6027091E7028091E8029091E9020E942F
:10362000DF1C81E090E00E9448086091E202709106
:10363000E3028091E4029091E5020E94DF1C82E0A7
:1036400090E00E9448086091E00283E090E00E94D0
:1036500048086091DE0284E090E00E9448080E94E1
:103660003B10E0E0F0E0099580911A0490911B0472
:103670000797D9F56091EA027091EB028091EC0214
:103680009091ED020E94DF1C80E090E00E944808CB
:103690006091E6027091E7028091E8029091E90260
:1036A0000E94DF1C81E090E00E9448086091E202E5
:1036B0007091E3028091E4029091E5020E94DF1C88
:1036C00082E090E00E9448086091E00283E090E090
:1036D0000E9448086091DE0284E090E00E94480861
:1036E0000E943B10E0E0F0E009950E94270F1EC900
:1036F0000E94C904DC01CB0180579E4FAF4FBF4FE2
:103700008093800390938103A0938203B0938303FB
:103710000093A503003F09F018CE00EF10E0E4CDC0
:10372000003F110509F01ECEE0CFFB01DC010D903A
:103730000020E9F7119705900D920020E1F7089518
:10374000FC0105900020E9F7809590958E0F9F1F52
:103750000895BB274A3031F4992322F4BDE29095B5
:1037600081959F4F0C94B51BBB27FB015527AA27BA
:10377000880F991FAA1FA41710F0A41B83955051FE
:10378000B9F7A05DAA3308F0A95DA193009779F776
:10379000B111B1931192CB010C94CE1BDC01FC0151
:1037A000672F71917723E1F7329704C07C916D9375
:1037B00070836291AE17BF07C8F30895F999FECFE1
:1037C00092BD81BDF89A992780B50895262FF99961
:1037D000FECF1FBA92BD81BD20BD0FB6F894FA9AF4
:1037E000F99A0FBE019608955058BB27AA270E9448
:1037F0000C1C0C94861D0E94781D38F00E947F1DC1
:1038000020F039F49F3F19F426F40C94751D0EF442
:10381000E095E7FB0C946F1DE92F0E94971D58F36C
:10382000BA17620773078407950720F079F4A6F5A5
:103830000C94B91D0EF4E0950B2EBA2FA02D0B01A0
:10384000B90190010C01CA01A0011124FF27591BE5
:1038500099F0593F50F4503E68F11A16F040A22FEB
:10386000232F342F4427585FF3CF4695379527955C
:10387000A795F0405395C9F77EF41F16BA0B620B5B
:10388000730B840BBAF09150A1F0FF0FBB1F661FA2
:10389000771F881FC2F70EC0BA0F621F731F841FE5
:1038A00048F4879577956795B795F7959E3F08F00B
:1038B000B0CF9395880F08F09927EE0F97958795CD
:1038C00008950E944B1D08F481E008950E947A1C1F
:1038D0000C94861D0E947F1D58F00E94781D40F0B8
:1038E00029F45F3F29F00C946F1D51110C94BA1DFF
:1038F0000C94751D0E94971D68F39923B1F355230D
:1039000091F3951B550BBB27AA27621773078407F2
:1039100038F09F5F5F4F220F331F441FAA1FA9F388
:1039200035D00E2E3AF0E0E832D091505040E69576
:10393000001CCAF72BD0FE2F29D0660F771F881FD7
:10394000BB1F261737074807AB07B0E809F0BB0BCA
:10395000802DBF01FF2793585F4F3AF09E3F5105DE
:1039600078F00C946F1D0C94BA1D5F3FE4F3983E01
:10397000D4F3869577956795B795F7959F5FC9F7C7
:10398000880F911D9695879597F90895E1E0660F48
:10399000771F881FBB1F621773078407BA0720F0C1
:1039A000621B730B840BBA0BEE1F88F7E09508952A
:1039B0000E94DF1C6894B1110C94BA1D08950E94F6
:1039C0009F1D88F09F5798F0B92F9927B751B0F0F5
:1039D000E1F0660F771F881F991F1AF0BA95C9F793
:1039E00014C0B13091F00E94B91DB1E008950C945B
:1039F000B91D672F782F8827B85F39F0B93FCCF30E
:103A0000869577956795B395D9F73EF4909580950F
:103A1000709561957F4F8F4F9F4F0895E89409C02F
:103A200097FB3EF490958095709561957F4F8F4FF1
:103A30009F4F9923A9F0F92F96E9BB279395F69507
:103A4000879577956795B795F111F8CFFAF4BB0F85
:103A500011F460FF1BC06F5F7F4F8F4F9F4F16C0E9
:103A6000882311F096E911C0772321F09EE8872F73
:103A7000762F05C0662371F096E8862F70E060E02F
:103A80002AF09A95660F771F881FDAF7880F9695A8
:103A9000879597F90895990F0008550FAA0BE0E84C
:103AA000FEEF16161706E807F907C0F01216130600
:103AB000E407F50798F0621B730B840B950B39F440
:103AC0000A2661F0232B242B252B21F408950A26A6
:103AD00009F4A140A6958FEF811D811D089597F9E6
:103AE0009F6780E870E060E008959FEF80EC0895A4
:103AF00000240A94161617061806090608950024CD
:103B00000A9412161306140605060895092E039446
:103B1000000C11F4882352F0BB0F40F4BF2B11F4BA
:103B200060FF04C06F5F7F4F8F4F9F4F089557FD19
:103B30009058440F551F59F05F3F71F04795880F1B
:103B400097FB991F61F09F3F79F0879508951216B2
:103B500013061406551FF2CF4695F1DF08C016165E
:103B600017061806991FF1CF86957105610508940F
:103B70000895E894BB2766277727CB0197F9089526
:103B80000E944B1D08F48FEF08950E94D81D0C94DD
:103B9000861D0E94781D38F00E947F1D20F095231D
:103BA00011F00C946F1D0C94751D11240C94BA1D0A
:103BB0000E94971D70F3959FC1F3950F50E0551F1C
:103BC000629FF001729FBB27F00DB11D639FAA2772
:103BD000F00DB11DAA1F649F6627B00DA11D661FC1
:103BE000829F2227B00DA11D621F739FB00DA11DE2
:103BF000621F839FA00D611D221F749F3327A00D9C
:103C0000611D231F849F600D211D822F762F6A2F37
:103C100011249F5750409AF0F1F088234AF0EE0F9C
:103C2000FF1FBB1F661F771F881F91505040A9F7C9
:103C30009E3F510580F00C946F1D0C94BA1D5F3FA0
:103C4000E4F3983ED4F3869577956795B795F79505
:103C5000E7959F5FC1F7FE2B880F911D969587957D
:103C600097F90895FA01EE0FFF1F309621053105EF
:103C7000A1F16115710561F48038BFE39B0749F13B
:103C800068949038810561F08038BFEF9B0741F060
:103C900099234AF5FF3FE1053105210519F1E89423
:103CA0000894E795D901AA2329F4AB2FBE2FF85F1A
:103CB000D0F310C0FF5F70F4A695E0F7F73950F02D
:103CC00019F0FF3A38F49F779F930DD00F9007FCBF
:103CD0009058089546F00C94751D60E070E080E8FF
:103CE0009FE308954FE79F775F934F933F932F9301
:103CF0000E947A1F2F913F914F915F910E94C51DA5
:103D00000C94AE1E0E949F1DE8F09E37E8F0963995
:103D1000B8F49E3848F4672F782F8827985FF9CF3A
:103D200086957795679593959539D0F3B62FB170B1
:103D30006B0F711D811D20F487957795679593957D
:103D40000C94E01E0C94FB1E0C94BA1D29F416F082
:103D50000C946F1D0C94B91D0C94751D0E949F1D31
:103D6000A8F39638A0F707F80F92E8942BE33AEA05
:103D700048EB5FE70E94DB1D0F920F920F924DB749
:103D80005EB70F920E94C21FE8E6F0E00E94091F92
:103D90004F915F91EF91FF91E595EE1FFF1F49F065
:103DA000FE57E0684427EE0F441FFA95E1F741956E
:103DB000550B0E943C1F0F9007FE0C94301F089576
:103DC000882371F4772321F09850872B762F07C032
:103DD000662311F499270DC09051862B70E060E0A6
:103DE0002AF09A95660F771F881FDAF7880F969545
:103DF000879597F908959F3F31F0915020F487956A
:103E000077956795B795880F911D9695879597F942
:103E10000895DF93CF931F930F93FF92EF92DF925A
:103E20007B018C01689406C0DA2EEF010E94D81D38
:103E3000FE01E894A5912591359145915591A6F300
:103E4000EF010E940C1CFE019701A801DA9469F7AA
:103E5000DF90EF90FF900F911F91CF91DF91089528
:103E60009B01AC0160E070E080E89FE30C94661C6D
:103E70000C946F1D0C94FB1E0E949F1DD8F3992378
:103E8000C9F3940F511DA3F39150504094F059F091
:103E9000882332F0660F771F881F91505040C1F77A
:103EA0009E3F51052CF7880F911D9695879597F9A0
:103EB00008955F3FACF0983E9CF0BB2786957795C0
:103EC0006795B79508F4B1609395C1F7BB0F58F7A4
:103ED00011F460FFE8CF6F5F7F4F8F4F9F4FE3CFAD
:103EE0000C94BA1D16F00C94FB1E0C94751D68946E
:103EF0000C946F1D0E949F1DA8F39923C1F3AEF38C
:103F0000DF93CF931F930F93FF92C92FDD27882351
:103F10002AF02197660F771F881FDAF720E030E03C
:103F200040E85FEB9FE3883920F0803E38F021962F
:103F30008F770E94F51BE0E9F0E004C00E94F51BBA
:103F4000EDEBF0E00E94091F8B01BE01EC01FB2E9E
:103F50006F5771097595771F880B990B0E94101D7B
:103F600028E132E741E35FE30E94D81DAF2D9801BD
:103F7000AE01FF900F911F91CF91DF910E940C1C19
:103F80000C94861DFA01DC01AA0FBB1F9B01AC013A
:103F9000BF5728F4222733274427507820C0B75131
:103FA00090F4AB2F0024469537952795011CA395D7
:103FB000D2F3002071F0220F331F441FB395DAF3C0
:103FC0000ED00C94F41B61307105A0E88A07B94645
:103FD00030F49B01AC0166277727882790783096CC
:103FE00021F02083318342835383089597FB072E6A
:103FF00016F4009407D077FD09D00E940A2007FC30
:1040000005D03EF4909581959F4F089570956195E8
:104010007F4F0895AA1BBB1B51E107C0AA1FBB1FFE
:10402000A617B70710F0A61BB70B881F991F5A9544
:10403000A9F780959095BC01CD010895EE0FFF1F63
:104040000590F491E02D0994CF93DF938230910590
:1040500010F482E090E0E0913A04F0913B0420E01B
:1040600030E0C0E0D0E0309711F140815181481735
:104070005907C0F04817590761F48281938120974E
:1040800019F09B838A832BC090933B0480933A045E
:1040900026C02115310519F04217530718F49A016B
:1040A000BE01DF01EF010280F381E02DDCCF21159D
:1040B000310509F1281B390B2430310590F4129693
:1040C0008D919C9113976115710521F0FB019383EC
:1040D000828304C090933B0480933A04FD0132969E
:1040E00044C0FD01E20FF31F8193919322503109E7
:1040F0002D933C933AC02091380430913904232BFE
:1041000041F4209105013091060130933904209348
:10411000380420910301309104012115310541F447
:104120002DB73EB74091070150910801241B350B74
:10413000E0913804F0913904E217F307A0F42E1B44
:104140003F0B2817390778F0AC014E5F5F4F2417FB
:10415000350748F04E0F5F1F5093390440933804E1
:104160008193919302C0E0E0F0E0CF01DF91CF9125
:1041700008950F931F93CF93DF93009709F48CC09A
:10418000FC0132971382128200913A0410913B0491
:104190000115110581F420813181820F931F209137
:1041A0003804309139042817390779F5F093390428
:1041B000E093380471C0D80140E050E0AE17BF076B
:1041C00050F412962D913C911397AD0121153105B4
:1041D00009F1D901F3CF9D01DA0133832283608194
:1041E0007181860F971F8217930769F4EC0128816C
:1041F0003981260F371F2E5F3F4F318320838A81FD
:104200009B8193838283452B29F4F0933B04E093B5
:104210003A0442C01396FC93EE931297ED01499134
:1042200059919E01240F351FE217F30771F4808125
:104230009181840F951F029611969C938E93828193
:10424000938113969C938E931297E0E0F0E0D8014F
:1042500012968D919C911397009719F0F8018C019B
:10426000F6CF8D919C9198012E5F3F4F820F931F47
:1042700020913804309139042817390769F43097B0
:1042800029F410923B0410923A0402C01382128265
:104290001093390400933804DF91CF911F910F914F
:1042A000089581E090E0F8940C947021FB01DC010A
:1042B0000D900020E9F7119701900D920020E1F791
:1042C0000895FB01DC014150504048F001900D92EF
:1042D0000020C9F701C01D9241505040E0F70895F9
:1042E00011E0CCE5D1E004C0FE010E941E20219621
:0A42F000CD35D107C9F7F894FFCFD0
:1042FA0006010000003C04800000000000941087C2
:10430A0001EA0EDB101B0FF90E0D0F000000006909
:10431A00023902F7020D0231021D020E02000000EC
:10432A000000000000FA02E80EE80E000000004C4F
:10433A0008DE03FA02D805050300000000520387CD
:10434A0001F702BD02BE02D502A5024144584C3310
:06435A003435000D0A00DD
:00000001FF
