:100000000C9454020C947C020C947C020C9487098E
:100010000C9463090C943F090C947C020C947C02B0
:100020000C947C020C947C020C947C020C947C0258
:100030000C947C020C947C020C947C020C947C0248
:100040000C94B5050C947C020C945C040C94110A7D
:100050000C947C020C947C020C947C020C947C0228
:100060000C9434070C947C02084AD73B3BCE016EBB
:1000700084BCBFFDC12F3D6C74319ABD56833DDAFF
:100080003D00C77F11BED9E4BB4C3E916BAAAABE0E
:10009000000000803F07634236B79BD8A71A396833
:1000A0005618AEBAAB558C1D3CB7CC5763BD6DED41
:1000B000FD753EF6177231BF000000803F0800005A
:1000C00000BE922449123EABAAAA2ABECDCCCC4C8B
:1000D0003E00000080BEABAAAAAA3E00000000BFFE
:1000E000000000803F0000000000084178D3BB43BF
:1000F00087D1133D190E3CC3BD4282AD2B3E68EC47
:100100008276BED98FE1A93E4C80EFFFBE01C4FFCD
:100110007F3F0000000000000000000024002700D6
:100120002A0000000008000201000003040700008C
:1001300000000000000000C20100010005000500F1
:100140000300030000E1000001000F000F000D009C
:100150000D0000960000020019001A001700170099
:10016000127A00000700200021001D001D00807091
:1001700000000B002300230020002000004B0000A3
:1001800014003700370034003400403800001E00EF
:100190004B004B0048004800482600003100710029
:1001A00071006F006F00E4250000310071007100E4
:1001B0006F006F0080250000320072007200700036
:1001C0007000C01200006E00E900E900E600E600E1
:1001D00060090000E500D801D801D501D501B004BF
:1001E0000000D301B403B403B103B103580200000B
:1001F000B40367076707620762072C0100006707FF
:10020000DD0EDD0EDA0EDA0E2000B000526F6C6CDF
:1002100000B00050697463680047005A2D41786946
:1002200073004700592D41786973004700582D41EC
:10023000786973005243540020202020472D5365D5
:100240006E736F720020524354204A6574692054C3
:100250006F6F6C730020202020472D53656E736FE5
:10026000720020524354204A65746920546F6F6CA9
:1002700073005072657373203C20746F2065786939
:10028000740053657474696E67732073746F72655C
:100290006421004261636B3A203C00536176653A09
:1002A00020557020616E6420446E00B020436F7250
:1002B0003A0056616C3A200056616C3A00536574FE
:1002C00020526F6C6C20746F2030B000B020436FF0
:1002D000723A0056616C3A200056616C3A005365E0
:1002E0007420506974636820746F2030B000472018
:1002F000436F723A00205A3A2000205A3A002053A5
:100300006574205A20746F20312E304700472043F7
:100310006F723A0020593A200020593A0020536564
:1003200074205920746F20302E3047004720436FCF
:10033000723A0020583A200020583A002053657441
:10034000205820746F20302E304700202020204776
:100350002D53656E736F720020524354204A6574AA
:100360006920546F6F6C730000070E091C1B121577
:10037000383F363124232A2D70777E796C6B626585
:10038000484F464154535A5DE0E7EEE9FCFBF2F575
:10039000D8DFD6D1C4C3CACD90979E998C8B828565
:1003A000A8AFA6A1B4B3BABDC7C0C9CEDBDCD5D255
:1003B000FFF8F1F6E3E4EDEAB7B0B9BEABACA5A245
:1003C0008F88818693949D9A2720292E3B3C353235
:1003D0001F18111603040D0A5750595E4B4C454225
:1003E0006F68616673747D7A898E878095929B9C15
:1003F000B1B6BFB8ADAAA3A4F9FEF7F0E5E2EBEC05
:10040000C1C6CFC8DDDAD3D4696E676075727B7CF4
:1004100051565F584D4A4344191E171005020B0CE4
:1004200021262F283D3A33344E49404752555C5BD4
:100430007671787F6A6D64633E39303722252C2BC4
:100440000601080F1A1D1413AEA9A0A7B2B5BCBBB4
:100450009691989F8A8D8483DED9D0D7C2C5CCCBA4
:10046000E6E1E8EFFAFDF4F30000000025002800C3
:100470002B000000000023002600290004040404CF
:10048000040404040202020202020303030303033E
:10049000010204081020408001020408102001021B
:1004A000040810208C188D0F11241FBECFEFD8E048
:1004B000DEBFCDBF25E0A2EEB1E001C01D92A934A0
:1004C000B207E1F711E0A0E0B1E0EAEEF2E402C029
:1004D00005900D92A23EB107D9F712E0C3E5D2E034
:1004E00004C02197FE010E943C1FC235D107C9F705
:1004F0000E94C50F0C9468210C940000FC01918DA2
:10050000828D981761F0828DDF01A80FB11D5D9675
:100510008C91928D9F5F9F73928F90E008958FEFE3
:100520009FEF0895FC01918D828D981731F0828D97
:10053000E80FF11D858D90E008958FEF9FEF0895EE
:10054000FC01918D228D892F90E0805C9F4F821B52
:1005500091098F739927089580E090E0892B29F005
:100560000E94070A81110C9400000895833081F0E5
:1005700028F4813099F08230A1F008958730A9F0F5
:100580008830B9F08430D1F4809180008F7D03C031
:10059000809180008F7780938000089584B58F7755
:1005A00002C084B58F7D84BD08958091B0008F779F
:1005B00003C08091B0008F7D8093B000089585EDD9
:1005C0008093BC008091BC0084FDFCCF10928E0211
:1005D000089540912402262F30E0240F311D21324E
:1005E0003105DCF420918E022430C9F4FC0180E056
:1005F00090E0861758F4309124022191DC01AE5F1F
:10060000BD4FA30FB11D2C930196F3CF809124020F
:10061000680F6093240280E0089581E0089582E0ED
:1006200008950895E091240580912305E81730F49A
:10063000F0E0EB5DFA4F808190E008958FEF9FEF3F
:1006400008959091240580912305981750F4E92F7F
:10065000F0E0EB5DFA4F208130E09F5F909324053E
:1006600002C02FEF3FEFC90108958091230590E06C
:1006700020912405821B91090895CF92DF92EF9279
:10068000FF920F931F93CF93DF937C01262F972F19
:100690008A0180918F02882391F0C62FD72F6E0197
:1006A000C40ED51ECC15DD0571F06991D701ED9111
:1006B000FC910190F081E02DC7010995F3CF642FE3
:1006C000822F0E94E902C801DF91CF911F910F9103
:1006D000FF90EF90DF90CF900895CF93DF931F921C
:1006E000CDB7DEB7698320918F022223D1F020910C
:1006F000B202203240F021E030E0FC01338322835B
:1007000080E090E015C080919002E82FF0E0EF5675
:10071000FD4F998190838F5F809390028093B20206
:1007200005C061E0CE0101960E94E90281E090E0FF
:100730000F90DF91CF910895DC015196ED91FC91DE
:100740005297908150968C9180958923808308954B
:100750002091E6023091E7022817390781F4909141
:10076000E4028091E502981751F0E091E402F0E094
:10077000EE51FE4F8081082E000C990B08958FEFEB
:100780009FEF08952091E6023091E702281739077C
:1007900039F48FB7F8941092E5021092E4028FBFFB
:1007A00008952091E6023091E7022817390769F48D
:1007B0008091E5022091E40290E08096821B9109ED
:1007C00060E270E00E94141F08958FEF9FEF08957C
:1007D0002091E6023091E70228173907B9F4909189
:1007E000E4028091E5029817A1F0E091E402F0E0C4
:1007F000EE51FE4F80812091E40230E02F5F3F4FA9
:100800002F7133272093E40290E008958FEF9FEF3C
:1008100008958EEF9FEF089508950F931F93CF9340
:10082000DF938C01EB0188E2FB0111928A95E9F7D5
:100830004BE050E066E571E0CE010E9459211B8635
:1008400081E090E0A0E0B0E08C879D87AE87BF8715
:10085000F80183819481A581B681888B998BAA8BBD
:10086000BB8B86E090E0A0E0B0E08C8B9D8BAE8BE4
:10087000BF8B1CA21DA21EA21FA28AE098EEACE1B3
:10088000B3EC888F998FAA8FBB8F8AE098EEACE18A
:10089000B3E48C8F9D8FAE8FBF8F83EA9FEAA0E277
:1008A000BDE388A399A3AAA3BBA3DF91CF911F9116
:1008B0000F9108950C94D71F1F920F920FB60F92AD
:1008C00011242F938F939F93EF93FF93E091F8025E
:1008D000F091F9028081E091FE02F091FF0282FD29
:1008E00012C09081809101038F5F8F73209102036A
:1008F000821751F0E0910103F0E0E851FD4F958F30
:100900008093010301C08081FF91EF919F918F91AE
:100910002F910F900FBE0F901F901895FC01848DA2
:10092000DF01A80FB11DA35ABF4F2C91848D90E019
:1009300001968F739927848FA689B7892C93A089F4
:10094000B1898C9180648C93938D848D981306C0AB
:100950000288F389E02D80818F7D80830895EF9256
:10096000FF920F931F93CF93DF93EC0181E0888F69
:100970009B8D8C8D981305C0E889F989808185FD50
:1009800024C0F62E0B8D10E00F5F1F4F0F73112741
:10099000E02E8C8DE8120CC00FB607FCFACFE88968
:1009A000F989808185FFF5CFCE010E948E04F1CFB9
:1009B0008B8DFE01E80FF11DE35AFF4FF0820B8F84
:1009C000EA89FB898081806207C0EE89FF896083A4
:1009D000E889F98980818064808381E090E0DF91FB
:1009E000CF911F910F91FF90EF900895CF93DF93D8
:1009F000EC01888D8823C9F0EA89FB89808185FD17
:100A000005C0A889B9898C9186FD0FC00FB607FC77
:100A1000F5CF808185FFF2CFA889B9898C9185FFB8
:100A2000EDCFCE010E948E04E7CFDF91CF910895E4
:100A30001F93CF93DF93282F30E0F901EE5DFE4F37
:100A40008491F901E057FB4FD491F901E458FB4F31
:100A5000C491CC23C9F0162F81110E94B602EC2F4D
:100A6000F0E0EE0FFF1FE859FB4FA591B4918FB74F
:100A7000F894111105C09C91ED2FE095E92302C077
:100A8000EC91ED2BEC938FBFDF91CF911F910895E7
:100A9000CF93DF9390E0FC01E057FB4F2491FC01E2
:100AA000E458FB4F8491882361F190E0880F991FEF
:100AB000FC01E85EFE4FC591D491FC01E859FB4F63
:100AC000A591B491611109C09FB7F89488812095D0
:100AD00082238883EC912E230BC0623061F49FB790
:100AE000F8943881822F809583238883EC912E2B74
:100AF0002C939FBF06C08FB7F894E8812E2B2883D4
:100B00008FBFDF91CF9108953FB7F89480914E0247
:100B100090914F02A0915002B091510226B5A89B2E
:100B200005C02F3F19F00196A11DB11D3FBFBA2F7F
:100B3000A92F982F8827820F911DA11DB11DBC01DF
:100B4000CD0143E0660F771F881F991F4A95D1F7A3
:100B500008952FB7F89460914A0270914B028091EA
:100B60004C0290914D022FBF08951F920F920FB625
:100B70000F9211242F933F938F939F93AF93BF9323
:100B800080914A0290914B02A0914C02B0914D028B
:100B90003091490226E0230F2D3720F40296A11D43
:100BA000B11D05C029E8230F0396A11DB11D209397
:100BB000490280934A0290934B02A0934C02B09357
:100BC0004D0280914E0290914F02A0915002B0913F
:100BD00051020196A11DB11D80934E0290934F02C8
:100BE000A0935002B0935102BF91AF919F918F910A
:100BF0003F912F910F900FBE0F901F9018954F921D
:100C00005F926F927F928F929F92AF92BF92CF929C
:100C1000DF92EF92FF920F931F93CF93DF93982E63
:100C2000842E722E07E010E0612CEE24E394F12C68
:100C3000C62FD0E0CE018E5D9E4F6C01FE01E057C5
:100C4000FB4F5F01C458DB4F660C60E0892D0E94AA
:100C50001805B701002E01C0660F0A94EAF7672154
:100C6000882D0E94180561E0892D0E941805F60163
:100C70008491F5015490FE014490442081F081114B
:100C80000E94B602A42DB0E0AA0FBB1FAE58BB4F06
:100C9000FD0185919491FC0180815822A9F40150B5
:100CA000110990F6862DDF91CF911F910F91FF9042
:100CB000EF90DF90CF90BF90AF909F908F907F90FC
:100CC0006F905F904F900895862D8160682EE7CFDA
:100CD0000F931F93CF93DF93EC01162F8D858823FD
:100CE00019F181E080938F0283E58093B102109225
:100CF00090021092B20285E893E00E946D0381E0B9
:100D00000E943D0E82E090E00E94E20E85E893E0B2
:100D10000E942103C82F85E893E00E942103982FA9
:100D200088278C010C2B1EC060E08C850E94180562
:100D3000212F206C4A856B8589850E94FF052FEF46
:100D40004A856B8589850E94FF05082F2FEF4A850C
:100D50006B8589850E94FF0510E0182B61E08C856A
:100D60000E941805C801DF91CF911F910F9108953E
:100D70000F931F93CF93DF938C01EB0184E2FB0170
:100D800011928A95E9F784E290E0A0E0B0E08883D0
:100D90009983AA83BB83F80183819481A581B6815D
:100DA0008C839D83AE83BF8381E090E0A0E0B0E0C0
:100DB00088879987AA87BB87188A198A1A8A1B8A03
:100DC00062E3C8010E946806BC01990F880B990B69
:100DD0000E94561A2FE632E143E85BE30E94B51AFF
:100DE0002AE038EE4CE151E40E94B51A6C8B7D8B01
:100DF0008E8B9F8B64E3C8010E946806BC01990F2B
:100E0000880B990B0E94561A2FE632E143E85BE308
:100E10000E94B51A2AE038EE4CE151E40E94B51A5E
:100E2000688F798F8A8F9B8F66E3C8010E9468065E
:100E3000BC01990F880B990B0E94561A2FE632E1DC
:100E400043E85BE30E94B51A2AE038EE4CE151E436
:100E50000E94B51A6C8F7D8F8E8F9F8F81E0DF91FE
:100E6000CF911F910F9108951F920F920FB60F927D
:100E700011242F933F934F935F936F937F938F939F
:100E80009F93AF93BF93EF93FF938091B900887FB7
:100E9000803609F49CC068F5883209F45BC090F490
:100EA000803109F454C038F4882309F4F6C088303E
:100EB00009F44DC0F6C0883109F44CC0803209F401
:100EC0005DC0EFC0803409F468C048F4803309F491
:100ED00055C0883309F0E5C080938C02D8C08035B6
:100EE00009F44FC0883509F45DC0883409F0D9C0D1
:100EF000D6C0883909F4C7C0A8F4883709F467C098
:100F000038F4883609F463C0803709F460C0C9C07A
:100F1000883809F4B8C0803909F45FC0803809F016
:100F2000C0C05BC0803B09F486C038F4803A09F445
:100F300066C0883A09F47FC0B4C0803C09F4A7C0F9
:100F4000883C09F4A4C0883B09F48AC0AAC08091F7
:100F5000690210C090918B0280918A02981770F5F7
:100F6000E0918B0281E08E0F80938B02F0E0E659D6
:100F7000FD4F80818093BB0085EC86C080938C02FE
:100F80008EC0E0918B0281E08E0F80938B02809166
:100F9000BB00F0E0E659FD4F808390918B02809179
:100FA0008A026EC0E0918B0281E08E0F80938B02EB
:100FB0008091BB00F0E0E659FD4F808380918D0267
:100FC00081116DC081E08093680284EA61C083E092
:100FD00080938E0210924802CFCF809148028032D7
:100FE00008F051C0E091480281E08E0F80934802E2
:100FF0008091BB00F0E0E85DFD4F8083BDCF85ECC4
:101000008093BC0010928E0280914802803230F4AE
:10101000E0914802F0E0E85DFD4F108260914802E7
:1010200070E0E0912602F091270288E292E00995B3
:101030001092480236C084E080938E0210922502FE
:1010400010922402E0912202F091230209958091EE
:101050002402811105C081E08093240210920202D3
:10106000E091250281E08E0F80932502F0E0EE5F93
:10107000FD4F80818093BB009091250280912402D6
:10108000981708F479CF85E88093BC000AC085ECF6
:101090008093BC0010928E0204C010928C020E94B9
:1010A000DF02FF91EF91BF91AF919F918F917F915F
:1010B0006F915F914F913F912F910F900FBE0F90C5
:1010C0001F90189520E001972FEF8F3F9207D9F7D7
:1010D0000895CF92DF92EF92FF920F931F93CF93D9
:1010E000DF93EC01898D9A8D009729F421E030E09F
:1010F0003B832A8364C0FFB6F89428E030E090E098
:1011000081E0482F462309F09F5F880F2150310965
:10111000C1F78E8D81119F5FE62E192F1095CE019C
:101120000E949C03898D9A8D04960E94620888E033
:10113000C82ED12C01E0802F8E2139F0E989FA895F
:1011400090818889892B808303C0CE010E949C03F3
:10115000898D9A8D0E946208000F81E0C81AD1081B
:1011600051F78E8D882339F0E989FA899081888931
:10117000892B808303C0CE010E949C03898D9A8DA8
:101180000E94620810FF07C0E989FA899081888966
:10119000892B808303C0CE010E949C03898D9A8D88
:1011A0000E946208E989FA8990818889892B808365
:1011B000FFBE8B8D9C8D0E94620881E090E0DF91E4
:1011C000CF911F910F91FF90EF90DF90CF900895F6
:1011D000EF92FF920F931F93CF93DF93C091E6029C
:1011E000D091E702209709F443C08B899C890E9423
:1011F000620888E0E82EF12C10E001E08D899E89DC
:101200000E946208EE85FF8590818D85892311F00B
:10121000102B03C0802F80951823000F81E0E81A5F
:10122000F10861F78D899E890E9462088F89988DE7
:101230000E9462088091E5022091E40290E001960C
:101240008F71992730E08217930779F0E091E502DA
:10125000F0E0EE51FE4F10838091E50290E00196A0
:101260008F7199278093E50203C08D8D81608D8FEA
:10127000DF91CF911F910F91FF90EF9008951F92F2
:101280000F920FB60F9211242F933F934F935F93BA
:101290006F937F938F939F93AF93BF93EF93FF933E
:1012A0000E94E808FF91EF91BF91AF919F918F91BC
:1012B0007F916F915F914F913F912F910F900FBE52
:1012C0000F901F9018951F920F920FB60F92112436
:1012D0002F933F934F935F936F937F938F939F933E
:1012E000AF93BF93EF93FF930E94E808FF91EF91B4
:1012F000BF91AF919F918F917F916F915F914F912E
:101300003F912F910F900FBE0F901F9018951F9235
:101310000F920FB60F9211242F933F934F935F9329
:101320006F937F938F939F93AF93BF93EF93FF93AD
:101330000E94E808FF91EF91BF91AF919F918F912B
:101340007F916F915F914F913F912F910F900FBEC1
:101350000F901F9018950C947B1B0C94731B089591
:10136000CF93DF93C0E0D0E08091DD0490E0C81718
:10137000D907ECF4209761F00197C817D90741F01D
:1013800081E02091DB043091DC04C217D30709F41B
:1013900080E0FE01E95DFB4F60818093FC048EEDEF
:1013A00094E00E9469081092FC042196DDCFDF9141
:1013B000CF910895CF92DF92EF92FF920F931F93F8
:1013C000CF93DF936C017A018B01C0E0D0E0CE15A2
:1013D000DF0589F0D8016D918D01D601ED91FC9169
:1013E0000190F081E02DC6010995892B11F47E0151
:1013F00002C02196ECCFC701DF91CF911F910F91D1
:10140000FF90EF90DF90CF9008950E94392188EEF1
:1014100092E00E94A00221E0892B09F420E0822FB3
:1014200008951F920F920FB60F9211242F933F939E
:101430004F935F936F937F938F939F93AF93BF93DC
:10144000EF93FF9388EE92E00E948E04FF91EF915C
:10145000BF91AF919F918F917F916F915F914F91CC
:101460003F912F910F900FBE0F901F901895809174
:10147000E6029091E7028E5D9440A1F08091FB041A
:101480008E7F8093FB048FB7F8941092E502109240
:10149000E4022EED34E03093E7022093E6028FBFA2
:1014A00081E0089580E008952F923F924F925F92DD
:1014B0006F927F928F929F92AF92BF92CF92DF9264
:1014C000EF92FF920F931F93CF93DF93CDB7DEB7C9
:1014D00028970FB6F894DEBF0FBECDBF2B013C019D
:1014E00058874F8320E030E0A9010E944F1A87FF00
:1014F00005C060E070E080E09FEB04C060E070E059
:1015000080E09FE300E010E02F8138850217130789
:101510004CF420E030E040E251E40E949F1C0F5F59
:101520001F4FF2CF9B01AC01C301B2010E94C11B4E
:101530006B017C0120E030E0A901C301B2010E94EF
:101540004F1A87FF04C0F7FAF094F7F8F09400E020
:1015500010E03DEC39836CEC6A832CEC222E3DE3E9
:10156000332E20E030E040E251E469817A81C1010C
:101570000E94B51A5B01982E892EA70196010E9440
:101580004F1A18163CF00F5F1F4FA982BA82292C00
:10159000382CE7CF0115110529F058017FEFA71A64
:1015A000B70A03C092E0A92EB12C20E030E0A901D7
:1015B000C301B2010E944F1A87FF03C08FEFA81A20
:1015C000B80A8F8198850196A80EB91E1A141B04BB
:1015D00044F081E090E0DC01AA19BB09BC83AB8335
:1015E00002C01C821B8220E030E0A901C301B201CD
:1015F0000E944F1A87FF07C08DE28093D402AA246D
:10160000A394B12C02C0A12CB12C0115110541F4F9
:10161000F501EC52FD4F80E38083F50131965F01C7
:10162000812C912C94012A0D3B1D3E832D83801625
:101630009106B1F129813A81A101C701B6010E9449
:101640009F1C0E94111D2B013C016D817E816C52FB
:101650007D4F4AE0C2010E941A1AB201550C880B54
:10166000990B0E94561A29813A81A1010E94B51A4C
:101670009B01AC01C701B6010E94C01B6B017C013C
:1016800020E030E040E251E469817A81C1010E94AA
:101690009F1C69837A831C01FFEF8F1A9F0AC2CFB8
:1016A00089016F817885161617063CF4F901EC5212
:1016B000FD4F8EE280830F5F1F4FA12CB12C8F81D5
:1016C0009885A816B9064CF520E030E040E251E4D8
:1016D000C701B6010E94B51A2B013C010E94111DE1
:1016E0006B017C01B501600F711F6C527D4F4AE0A8
:1016F000C6010E941A1AB601DD0C880B990B0E94D4
:10170000561A9B01AC01C301B2010E94C01B6B01C0
:101710007C017FEFA71AB70AD2CF97FF02C080E003
:1017200090E0080F191FAB81BC81AB2B81F09801B1
:10173000F801EC52FD4F40E20F5F1F4F4193C8018B
:10174000821B930B6B817C8186179707ACF3F801A2
:10175000EC52FD4F108284ED92E028960FB6F8947B
:10176000DEBF0FBECDBFDF91CF911F910F91FF90D4
:10177000EF90DF90CF90BF90AF909F908F907F9031
:101780006F905F904F903F902F900895A3E0B5E049
:1017900020E040E250E15A0F21111FC0FC013491BA
:1017A0003323D9F03C93119601965A13F5CF80E07C
:1017B00090E020E030E2DC01AD5FBA4F211110C0B3
:1017C000FB01E80FF91FE491EE2351F05096EC93E2
:1017D00001968031910579F708954C9321E0E3CF8C
:1017E00050963C9321E0F4CFCF93DF93E4ECF2E00A
:1017F00001900020E9F73197E45CF240C4ECD2E0BC
:10180000A3E0B5E080E090E28E1718F428812C93D5
:1018100001C09C938F5F219611968031A9F7E4EB6C
:10182000F2E001900020E9F73197E45BF24080E0BC
:1018300090E020E2DC01AD5FBA4F8E1738F4EC0186
:10184000CC54DD4F388150963C9302C050962C9377
:1018500001968031910571F7DF91CF9108952F9214
:101860003F924F925F926F927F928F929F92AF9230
:10187000BF92CF92DF92EF92FF920F931F93CF937D
:10188000DF93CDB7DEB7A0970FB6F894DEBF0FBEDB
:10189000CDBF909125049923C9F02EE7209327040A
:1018A00022E92093280423E22093290490932A0418
:1018B00090910301992311F0915003C010922504D7
:1018C00096E09093030104E010E002C000E010E015
:1018D00090912504911197C19EE7909327049FE969
:1018E000909328041092290496E290932A0494EA93
:1018F00090932B049CEA90932C0497E090932D04F2
:1019000010922E048111E8C080E480932904709025
:1019100026048090B3039090B40308E010E0612C9B
:10192000D62CD70CED2DF0E0E815F9050CF0C7C06A
:10193000DF01AA0FBB1FAB5FBB4FAD90BC90A114E2
:10194000B10409F4B8C0D29430EFD322C8018D5449
:101950009C4F7C01DC01AC58BF4FDC92EB50FC4F3C
:10196000C080CC2021F093E09C1590F104C0D501FB
:101970006D917C9130C06C2D70E080E090E00E9411
:10198000541A9B01AC0160E070E080E291E40E9497
:101990007B1DF50120813181428153810E94B51A5E
:1019A0001B012C0120E030E0A9010E946E1D20E007
:1019B00030E040E05FE387FD05C0C201B1010E9455
:1019C000C11B04C0C201B1010E94C01B0E94111DB5
:1019D000F3E0FC15B0F0F701EC58FF4F8D2D81605E
:1019E00080837F79D12C20E2C29ED02CCC2411247C
:1019F0006C297D2931966083319670830D5F1F4F6E
:101A00005AC084E0C81211C0F701EC58FF4F8D2D69
:101A1000846080833196D5018C91808331961196B4
:101A20008C9180833196108219C0B6E0BC15C8F045
:101A3000F701EC58FF4F8D2D85608083F501828181
:101A4000F701EB58FF4F8083D50111968C911197C8
:101A50003196808331968C918F7180830C5F1F4FFC
:101A60002AC0B9E0CB1227C0F701EC58FF4F8D2DEB
:101A700089608083F5018381F701EB58FF4F8083F4
:101A8000D50112968C9112973196808311968C9184
:101A90001197319680838C91F801E55DFB4F80832F
:101AA0008C91853421F08E3421F4108202C0B0E292
:101AB000B0830B5F1F4F6394E6E06E1231CF86E078
:101AC000870D282F30E0281539051CF48093260453
:101AD0007BC01092260478C0E091B302F0E0EE0FD4
:101AE000FF1FEB54FC4F608171817E01F1E1EF0E2D
:101AF000F11CC7010E94131AE091B302F0E0EE0F4F
:101B0000FF1FEB52FC4F608171818E010F5F1F4FF1
:101B1000C8010E94131A8091B30280932F04F70129
:101B200001900020E9F73197EE19FF09EE0FEE0F53
:101B3000EE0FD8010D900020E9F71197A01BB10B13
:101B4000A370EA2BE0933004D7012AE030E0F701DC
:101B500001900020E9F73197AF014E195F09F901B3
:101B6000EC58FF4FBD016E197F096417750738F4F3
:101B70009D91ED54FC4F90832F5F3F4FE8CFED5484
:101B8000FC4FA801201B310BB901640F751FD80150
:101B90000D900020E9F71197A01BB10B7A01E01A14
:101BA000F10AEA16FB0628F4DA019D91AD01919342
:101BB000EBCF8B018F5F90E06091B3037091B40322
:101BC0000E94141F8093B302809129049EEF900F0E
:101BD000892B8093290422E0E0E0822F90E0801797
:101BE00091075CF4DC01A95DBB4F8C91E827F0E024
:101BF000E859FC4FE4912F5FF0CFD801A95DBB4FAE
:101C0000EC930F5F1F4FC8018D549C4FFC01EC58A3
:101C1000FF4F2EEF20831093DC040093DB04D801E8
:101C2000A85DBB4FE3E0F5E020E22E0F31913D933C
:101C30002E13FCCFFC01EB56FF4F8FEF80830E5D20
:101C40001F4F0093DD0481E0A0960FB6F894DEBF2D
:101C50000FBECDBFDF91CF911F910F91FF90EF90FD
:101C6000DF90CF90BF90AF909F908F907F906F90BC
:101C70005F904F903F902F900895382F2091B2029F
:101C80009091B102213208F049C080918E028111F9
:101C9000FCCF42E040938E0230938D023FEF3093B1
:101CA0008C0210928B0220938A02A1E9B2E04AE6EC
:101CB00052E0FA013E2F341B321718F43D91319354
:101CC000F9CF1092690220916902990F922B90939B
:101CD000690290916802913061F4109268029091CB
:101CE00069029093BB009091BC0093FDF8CF95ECF6
:101CF00001C095EE9093BC0090918E029230E1F37A
:101D000090918C029F3F79F080918C02803241F05B
:101D100080918C02803331F084E005C081E003C003
:101D200082E001C083E0109290021092B202109201
:101D30008F0208951F93CF93DF931F92CDB7DEB725
:101D4000282F162F8091B2038823D9F081E0809349
:101D50008F0283E58093B102109290021092B2023A
:101D6000622F85E893E00E946D03612F85E893E080
:101D70000E946D0381E00F90DF91CF911F910C9431
:101D80003D0E60E08091B10329830E9418052981EE
:101D90004091AF036091B0038091AE030E94FF05B4
:101DA000212F4091AF036091B0038091AE030E9458
:101DB000FF0561E08091B1030F90DF91CF911F91FA
:101DC0000C94180590918E029111FCCF813208F08D
:101DD00080E291E090938E0290938D022FEF2093FA
:101DE0008C0210928B02280F20938A029093690232
:101DF00090916902966A909369029091680291307D
:101E000061F410926802909169029093BB009091E6
:101E1000BC0093FDF8CF95EC01C095EE9093BC000B
:101E200090918E029130E1F390918B02981710F40B
:101E300080918B02AAE6B2E025E235E0F9019E2FFF
:101E4000921B981718F49D919193F9CF1092240545
:101E5000809323050895CF93C82F8091B2038823E0
:101E6000D9F081E080938F0283E58093B1021092D4
:101E700090021092B2026C2F85E893E00E946D03ED
:101E800081E00E943D0E81E090E00E94E20E85E834
:101E900093E00E9421031FC060E08091B1030E9483
:101EA00018052C2F20684091AF036091B0038091FA
:101EB000AE030E94FF052FEF4091AF036091B00386
:101EC0008091AE030E94FF05C82F61E08091B103AD
:101ED0000E9418058C2FCF910895009769F0FC019E
:101EE00001900020E9F73197AF01481B590BBC0165
:101EF00088EE92E00C94DA0980E090E00895CF93A8
:101F0000DF930E946D0FEC0184E791E00E946D0F5A
:101F10008C0F9D1FDF91CF9108958EE291E09093F9
:101F2000DF048093DE042091EA04263140F5283056
:101F300028F02E3030F0ECE6F0E005C0EDE6F0E001
:101F400002C0EBE6F0E03081283038F481E090E028
:101F500001C0880F2A95EAF70FC0422F50E02E30BB
:101F600018F44850510902C04E50510981E090E0E8
:101F700001C0880F4A95EAF780958323808380917A
:101F8000FD049091FE040C94D71FCF93DF93CDB73F
:101F9000DEB7E0970FB6F894DEBF0FBECDBF7894E2
:101FA00084B5826084BD84B5816084BD85B582605E
:101FB00085BD85B5816085BD80916E00816080930F
:101FC0006E00109281008091810082608093810078
:101FD0008091810081608093810080918000816088
:101FE000809380008091B10084608093B1008091E3
:101FF000B00081608093B00080917A00846080930B
:102000007A0080917A00826080937A0080917A00D1
:102010008E7F80937A0080917A00806880937A0026
:102020001092C100E091F802F091F90282E0808301
:10203000E091F402F091F5021082E091F602F09145
:10204000F70287E6808310920003E091FC02F09192
:10205000FD0286E08083E091FA02F091FB0280812C
:1020600080618083E091FA02F091FB0280818860B8
:102070008083E091FA02F091FB0280818068808386
:10208000E091FA02F091FB0280818F7D80831092B3
:10209000000161E08DE00E94480561E08DE00E9452
:1020A000180586E791E00E947F0F8EE591E00E947F
:1020B0006D0F40910105509102056091FD047091F2
:1020C000FE0488EE92E00E94DA0984E791E00E9423
:1020D0006D0F87E791E00E947F0F82EA91E00E94F6
:1020E0007F0F86E791E00E947F0F84ED91E00E94D0
:1020F0007F0F86E791E00E947F0F61E083E00E94FE
:1021000048051092FA041092F9041092F804109203
:10211000F7041092F6041092F5041092F404109251
:10212000F3041092F2041092F10486E391E020E0AF
:1021300030E0FC014591559165917491443E5542C2
:102140006105710509F034C04EE0429FC001439F14
:10215000900D1124FC01E65CFE4F259134913093E3
:10216000F2042093F104FC01E45CFE4F25913491CC
:102170003093F4042093F304FC01E25CFE4F2591BC
:1021800034913093F6042093F504FC01E05CFE4F9B
:10219000259134913093F8042093F704FC01EE5B11
:1021A000FE4F859194919093FA048093F90407C0AF
:1021B0002F5F3F4F0E962F30310509F0BACF809137
:1021C000F5049091F604892B09F446C09091EA0435
:1021D0009631E0F520916800983050F031E09E3063
:1021E00008F430E081E001C0880F3A95EAF701C0B9
:1021F00084E0822B80936800983038F09E3040F065
:10220000963148F4ECE6F0E008C0EDE6F0E005C0F9
:10221000EBE6F0E002C0E0E0F0E04081983030F41E
:1022200081E001C0880F9A95EAF70EC0292F30E0AF
:102230009E3018F42850310902C02E50310981E037
:1022400001C0880F2A95EAF7842B80838091F704D8
:102250009091F8040E9462080E94370A20E030E062
:102260004FE753E46091A1037091A2038091A3030F
:102270009091A4030E944F1A811108C01092A103EB
:102280001092A2031092A3031092A40320E030E066
:102290004FE753E460919D0370919E0380919F03EB
:1022A0009091A0030E944F1A811108C010929D03C3
:1022B00010929E0310929F031092A00320E030E042
:1022C0004FE753E46091990370919A0380919B03C7
:1022D00090919C030E944F1A811108C0109299039B
:1022E00010929A0310929B0310929C0320E030E01E
:1022F0004FE753E4609195037091960380919703A3
:10230000909198030E944F1A811108C01092950372
:1023100010929603109297031092980320E030E0F9
:102320004FE753E46091910370919203809193037E
:10233000909194030E944F1A811108C0109291034A
:10234000109292031092930310929403C090A103F1
:10235000D090A203E090A303F090A40320E030E02B
:102360004CEF52E4C701B6010E946E1D181684F4AA
:1023700020E030E04FE753E4C701B6010E94C01BE4
:102380006093A1037093A2038093A3039093A4038B
:10239000C0909D03D0909E03E0909F03F090A00317
:1023A00020E030E04CEF52E4C701B6010E946E1D00
:1023B000181684F420E030E04FE753E4C701B6017B
:1023C0000E94C01B60939D0370939E0380939F03A4
:1023D0009093A003C0909903D0909A03E0909B0340
:1023E000F0909C0320E030E04CEF52E4C701B601CE
:1023F0000E946E1D181684F420E030E04FE753E48D
:10240000C701B6010E94C01B6093990370939A03A1
:1024100080939B0390939C03C0909503D090960368
:10242000E0909703F090980320E030E04CEF52E406
:10243000C701B6010E946E1D181684F420E030E03A
:102440004FE753E4C701B6010E94C01B6093950398
:10245000709396038093970390939803C090910391
:10246000D0909203E0909303F090940320E030E04A
:102470004CEF52E4C701B6010E946E1D181684F499
:1024800020E030E04FE753E4C701B6010E94C01BD3
:1024900060939103709392038093930390939403BA
:1024A0008091B203882341F11092240510922305F4
:1024B000109290021092B20210928E0281E08093EC
:1024C0008D021092680261E082E10E94180561E0CD
:1024D00083E10E9418058091B9008E7F8093B90036
:1024E0008091B9008D7F8093B90080E28093B8001D
:1024F00085E48093BC0019C061E08091B1030E9423
:10250000480561E08091AE030E94480561E080913A
:10251000AE030E94180561E08091AF030E94480558
:1025200060E08091B0030E94480580E00E942B0F7C
:10253000853E59F1482F50E060E070E019A2CE01CD
:1025400081968A019B010F70112722273327E4E02F
:102550007695679557954795EA95D1F701970A3093
:1025600011052105310510F4005D01C0095CFC0175
:102570000083411551056105710519F70E946D0F22
:1025800084E791E00E946D0F04C068E08DE20E9434
:102590009A0E81E30E942B0F807F682F6B6081E38E
:1025A0000E949A0E83E090E09093AD038093AC0379
:1025B0006CE08CE20E949A0E68E372E085E492E09F
:1025C0000E94C60B84E392E09093B6038093B50318
:1025D00088E092E09093D6038093D5038091B30373
:1025E0009091B4039C012F5F3F4FF901EE0FFF1F45
:1025F000EB54FC4F4DE252E051834083FC01EE0F5F
:10260000FF1FE952FC4F4BE252E051834083FC0133
:10261000EE0FFF1FE95FFB4F11821082F901EB50B3
:10262000FC4F10822E5F3F4FF901EE0FFF1FED545C
:10263000FC4F44E252E051834083FC01EE0FFF1F48
:10264000E752FC4F42E252E051834083FC01EE0F1F
:10265000FF1FE75FFB4F11821082FC01E950FC4F26
:102660001082AC014C5F5F4FFA01EE0FFF1FED547B
:10267000FC4F6BE172E071836083FC01EE0FFF1F82
:10268000E552FC4F69E172E071836083FC01EE0F5B
:10269000FF1FE55FFB4F11821082F901EB50FC4FE9
:1026A00010822E5F3F4FF901EE0FFF1FED54FC4FDC
:1026B00063E172E071836083FC01EE0FFF1FE35260
:1026C000FC4F61E172E071836083FC01EE0FFF1F3C
:1026D000E35FFB4F11821082FA01EB50FC4F108236
:1026E0004E5F5F4FFA01EE0FFF1FED54FC4F6CE0A1
:1026F00072E071836083FC01EE0FFF1FE152FC4F1B
:102700006AE072E071836083880F991FFC01E15FCA
:10271000FB4F11821082F901EB50FC4F1082509355
:10272000B4034093B30384E692E09093080480934B
:10273000070481E08093F60320E632E030930A0438
:10274000209309048093F7032CE532E030930C04C6
:1027500020930B048093F8038AE592E090930E0493
:1027600080930D041092F90388E592E09093100491
:1027700080930F041092FA0381E00E942F0C0E94B4
:10278000B0090E9484054B015C0184E1C82ED12C64
:10279000E12CF12C0E948405DC01CB0188199909F8
:1027A000AA09BB09883E9340A105B10558F0F1E0A4
:1027B000CF1AD108E108F10828EE820E23E0921E1C
:1027C000A11CB11CC114D104E104F10419F78091DA
:1027D000B3028111D1CF60E08DE00E94180503E6BD
:1027E00010E0BE016F5F7F4F85EA93E00E94B8065C
:1027F0008D889E88AF88B88C2FE236E842E85FE388
:10280000C501B4010E94B51A0E94CB1D20E030E042
:1028100040E251E40E949F1C6B017C0120E030E00B
:1028200040E251E46091A1037091A2038091A3035F
:102830009091A4030E949F1C9B01AC01C701B601AB
:102840000E94C01B6DA37EA38FA398A7498C5A8CAE
:102850006B8C7C8C2FE236E842E85FE3C301B20167
:102860000E94B51A0E94CB1D20E030E040E251E406
:102870000E949F1C6B017C0120E030E040E251E4AB
:1028800060919D0370919E0380919F039091A0039E
:102890000E949F1C9B01AC01C701B6010E94C01B96
:1028A00069A77AA78BA79CA7CD8CDE8CEF8CF8A0AC
:1028B0002FE236E842E85FE3C701B6010E94B51A8D
:1028C0000E94CB1D20E030E040E251E40E949F1CBA
:1028D0006DA77EA78FA798AB20E030E040E251E4DF
:1028E0006091990370919A0380919B0390919C034E
:1028F0000E949F1C9B01AC016DA57EA58FA598A988
:102900000E94C11B60935C0270935D0280935E0223
:1029100090935F028DA19EA1AFA1B8A5B0588093FE
:10292000640290936502A0936602B093670289A542
:102930009AA5ABA5BCA5B0588093600290936102A4
:10294000A0936202B0936302A7019601C501B4018E
:102950000E94401C4B015C01A7019601C301B2011A
:102960000E94401C20EE3EE245E652E40E94B51A69
:1029700020919103309192034091930350919403DD
:102980000E94C01B0E94111D6B017C0120EE3EE2E3
:1029900045E652E4C501B4010E94B51A20919503A1
:1029A0003091960340919703509198030E94C01B69
:1029B0000E94111D71956195710970935B0260937E
:1029C0005A02D194C194D108D0925902C0925802AF
:1029D0000E94A9050E94B0090E94A9056B017C0113
:1029E00060E083E00E94480562E084E00E944805C0
:1029F0000E94370A8EED94E00E94C2038EED94E0AF
:102A00000E94D103892B61F40E94A905DC01CB014E
:102A10008C199D09AE09BF090697A105B10570F390
:102A20008EED94E00E94D103181619060CF0A4C193
:102A30008EED94E00E94E8032091010130910201A3
:102A40002817390709F498C1909302018093010176
:102A500020915602309157028039910509F411C135
:102A600044F48036910509F41BC180379105B9F013
:102A700083C1803D910539F1803E910529F0803B6D
:102A8000910509F079C17AC02830310509F474C183
:102A90002F5F3F4F30935702209356026DC123366C
:102AA000310521F41092570210925602809156027D
:102AB00090915702009709F45FC1019790935702D4
:102AC0008093560259C12130310579F420E030E07D
:102AD00040E85FE36091A1037091A2038091A3039A
:102AE0009091A4030E94C11B5AC02230310579F491
:102AF00020E030E040E85FE360919D0370919E0329
:102B000080919F039091A0030E94C11B62C023305B
:102B1000310579F420E030E040E85FE3609199030B
:102B200070919A0380919B0390919C030E94C11B1A
:102B30006AC02430310579F420E030E040E85FE3FA
:102B400060919503709196038091970390919803FB
:102B50000E94C11B72C02530310509F00DC120E073
:102B600030E040E85FE360919103709192038091BF
:102B70009303909194030E94C11B7AC021303105C8
:102B8000B9F420E030E040E85FE36091A103709188
:102B9000A2038091A3039091A4030E94C01B6093A1
:102BA000A1037093A2038093A3039093A403E4C0B2
:102BB00022303105B9F420E030E040E85FE3609175
:102BC0009D0370919E0380919F039091A0030E94AA
:102BD000C01B60939D0370939E0380939F0390930B
:102BE000A003CAC023303105B9F420E030E040E84A
:102BF0005FE36091990370919A0380919B03909198
:102C00009C030E94C01B6093990370939A03809366
:102C10009B0390939C03B0C024303105B9F420E0AD
:102C200030E040E85FE360919503709196038091F6
:102C30009703909198030E94C01B60939503709333
:102C40009603809397039093980396C0253031059F
:102C500009F092C020E030E040E85FE3609191032A
:102C60007091920380919303909194030E94C01BF2
:102C700060939103709392038093930390939403D2
:102C80007BC02630310509F077C06091A1037091B7
:102C9000A2038091A3039091A4030E94181D2CC04D
:102CA000232B09F069C01092A1031092A203109285
:102CB000A3031092A40310929D0310929E031092FE
:102CC0009F031092A0031092990310929A031092FE
:102CD0009B0310929C0310929503109296031092FE
:102CE00097031092980310929103109292031092FE
:102CF00093031092940360E080E090E00E94AB099F
:102D000060919D0370919E0380919F039091A00319
:102D10000E94181D81E090E00E94AB096091990328
:102D200070919A0380919B0390919C030E94181DBF
:102D300082E090E00E94AB09609195037091960348
:102D400080919703909198030E94181D83E090E072
:102D50000E94AB096091910370919203809193035B
:102D6000909194030E94181D84E090E00E94AB09AA
:102D70001093570200935602809156029091570289
:102D80008830910509F4A3C11092550210925402A3
:102D90008330910509F4B7C06CF48130910529F1B5
:102DA0000CF06AC0892B09F098C16BE473E088E5E8
:102DB00093E091C18530910509F42CC10CF4EAC06F
:102DC0008630910509F470C18336910509F085C1FB
:102DD0001092C4021092B40262E872E084EC92E0B5
:102DE0000E94081A62E772E06BC11092C40210924E
:102DF000B4026CE373E084EC92E00E94081A20E0D5
:102E000030E0A901609164027091650280916602D0
:102E1000909167020E944F1A87FF03C068E373E036
:102E200002C063E373E084EB92E00E94081A109200
:102E3000D402609164027091650280916602909163
:102E4000670241E050E00E94540A64ED72E084EBB6
:102E500092E00E9447216CE273E084EB92E00E94D2
:102E6000081A1092D4026091A1037091A20380917C
:102E7000A3039091A4030DC11092C4021092B40256
:102E80006DE173E084EC92E00E94081A20E030E0EB
:102E9000A90160916002709161028091620290913B
:102EA00063020E944F1A87FF03C069E173E002C00A
:102EB00064E173E084EB92E00E94081A1092D4025D
:102EC0006091600270916102809162029091630250
:102ED00041E050E00E94540A64ED72E084EB92E01D
:102EE0000E9447216DE073E084EB92E00E94081A93
:102EF0001092D40260919D0370919E0380919F0374
:102F00009091A003C6C01092C4021092B4026EEF5A
:102F100072E084EC92E00E94081A20E030E0A901FF
:102F200060915C0270915D0280915E0290915F02FF
:102F30000E944F1A87FF03C06AEF72E002C065EF7C
:102F400072E084EB92E00E94081A1092D402609121
:102F50005C0270915D0280915E0290915F0241E09F
:102F600050E00E94540A64ED72E084EB92E00E940B
:102F700047216EEE72E084EB92E00E94081A1092F4
:102F8000D4026091990370919A0380919B03909170
:102F90009C037FC01092C4021092B4026EED72E0E6
:102FA00084EC92E00E94081A80915A0290915B0290
:102FB00097FF03C069ED72E002C063ED72E084EB3D
:102FC00092E00E94081A1092D40260915A02709105
:102FD0005B02072E000C880B990B0E94561A40E0EA
:102FE00050E00E94540A64ED72E084EB92E00E948B
:102FF00047216CEC72E084EB92E00E94081A109278
:10300000D4026091950370919603809197039091FB
:1030100098033FC01092C4021092B4026DEB72E0AC
:1030200084EC92E00E94081A809158029091590213
:1030300097FF03C068EB72E002C062EB72E084EBC2
:1030400092E00E94081A1092D40260915802709186
:103050005902072E000C880B990B0E94561A40E06B
:1030600050E00E94540A64ED72E084EB92E00E940A
:1030700047216BEA72E084EB92E00E94081A1092FA
:10308000D402609191037091920380919303909187
:10309000940340E050E00E94540A64ED72E084EB37
:1030A00092E00E94472110C01092C4021092B40214
:1030B0006BE972E084EC92E00E94081A63E972E026
:1030C00084EB92E00E94081A0E94F40B06C065E5AA
:1030D00072E082E692E00E94C60B809152029091CB
:1030E000530201969093530280935202059744F045
:1030F00081E00E942F0C109253021092520203C0E2
:1031000080E00E942F0C0E94A90561E084E00E94EB
:1031100048050E94AC0265CB1092EB021092EA02C5
:1031200088EE93E0A0E0B0E08093EC029093ED0293
:10313000A093EE02B093EF022EE031E03093E9026B
:103140002093E80225EC30E03093F5022093F4025E
:1031500024EC30E03093F7022093F60220EC30E0CC
:103160003093F9022093F80221EC30E03093FB0217
:103170002093FA0222EC30E03093FD022093FC020F
:1031800026EC30E03093FF022093FE021092010300
:10319000109202031092030310920403109288030A
:1031A000109287038093890390938A03A0938B03E3
:1031B000B0938C038EE191E0909386038093850316
:1031C0001092FE041092FD04109200051092FF046C
:1031D000109202051092010566E070E080E090E038
:1031E0000E946F200097A1F09093FE048093FD044D
:1031F00025E030E0309300052093FF042091010585
:1032000030910205232B09F0F8C0FC011082F5C0B3
:103210008091FD049091FE04009711F00E94D71F49
:103220001092FE041092FD04109202051092010506
:10323000109200051092FF041092E1041092E00435
:1032400088EE93E0A0E0B0E08093E2049093E30482
:10325000A093E404B093E5048EE291E09093DF0440
:103260008093DE041092F2041092F1041092F404A0
:103270001092F3041092F6041092F5041092F804E0
:103280001092F7041092FA041092F9048091FB0452
:103290008E7F8093FB0461E084E00E94480561E03A
:1032A00084E00E941805E4E9F4E0E491E093EE0480
:1032B000E0E8F4E0E491F0E0EE0FFF1FE859FB4F87
:1032C000859194919093F0048093EF0462E083E001
:1032D0000E94480583E08093EA04E3E9F4E0E49186
:1032E000E093EB04EFE7F4E0E491F0E0EE0FFF1F72
:1032F000EE58FB4F859194919093ED048093EC04EC
:10330000109225041092B4031092B3031092DD04BE
:10331000109226048CE491E09093A6038093A50379
:103320008FEF9FEFDC018093A8039093A903A093F4
:10333000AA03B093AB031092AD031092AC0381E0EB
:103340008093B20380E090E00E94AD09682F70E0A6
:1033500080E090E00E94541A6093A1037093A2034E
:103360008093A3039093A40381E090E00E94AD09B1
:10337000682F70E080E090E00E94541A60939D03F3
:1033800070939E0380939F039093A00382E090E04C
:103390000E94AD09682F70E080E090E00E94541A0E
:1033A0006093990370939A0380939B0390939C037B
:1033B00083E090E00E94AD09682F70E080E090E02B
:1033C0000E94541A60939503709396038093970319
:1033D0009093980384E090E00E94AD09682F70E01C
:1033E00080E090E00E94541A6093910370939203DE
:1033F0008093930390939403089525E030E03093F5
:103400000205209301056BED71E00E94522114CF5B
:10341000FB01DC010D900020E9F7119705900D925A
:103420000020E1F70895FB01DC0105900D920020DA
:10343000E1F70895BB274A3031F4992322F4BDE225
:10344000909581959F4F0C94261ABB27FB01552719
:10345000AA27880F991FAA1FA41710F0A41B8395F1
:103460005051B9F7A05DAA3308F0A95DA193009768
:1034700079F7B111B1931192CB010C943F1ADC0191
:10348000FC01672F71917723E1F7329704C07C919B
:103490006D9370836291AE17BF07C8F308950E94C1
:1034A000911A08F481E00895E89409C097FB3EF46E
:1034B00090958095709561957F4F8F4F9F4F992381
:1034C000A9F0F92F96E9BB279395F69587957795FF
:1034D0006795B795F111F8CFFAF4BB0F11F460FFBF
:1034E0001BC06F5F7F4F8F4F9F4F16C0882311F017
:1034F00096E911C0772321F09EE8872F762F05C02B
:10350000662371F096E8862F70E060E02AF09A95C5
:10351000660F771F881FDAF7880F9695879597F9BA
:103520000895990F0008550FAA0BE0E8FEEF161654
:103530001706E807F907C0F012161306E407F507A7
:1035400098F0621B730B840B950B39F40A2661F01B
:10355000232B242B252B21F408950A2609F4A140BE
:10356000A6958FEF811D811D08950E94C81A0C94A5
:10357000391B0E942B1B38F00E94321B20F0952330
:1035800011F00C94221B0C94281B11240C946D1B1D
:103590000E944A1B70F3959FC1F3950F50E0551F91
:1035A000629FF001729FBB27F00DB11D639FAA2798
:1035B000F00DB11DAA1F649F6627B00DA11D661FE7
:1035C000829F2227B00DA11D621F739FB00DA11D08
:1035D000621F839FA00D611D221F749F3327A00DC2
:1035E000611D231F849F600D211D822F762F6A2F5E
:1035F00011249F5750409AF0F1F088234AF0EE0FC3
:10360000FF1FBB1F661F771F881F91505040A9F7EF
:103610009E3F510580F00C94221B0C946D1B5F3F64
:10362000E4F3983ED4F3869577956795B795F7952B
:10363000E7959F5FC1F7FE2B880F911D96958795A3
:1036400097F9089597F99F6780E870E060E0089522
:103650009FEF80EC089500240A94161617061806AA
:103660000906089500240A94121613061406050686
:103670000895092E0394000C11F4882352F0BB0F17
:1036800040F4BF2B11F460FF04C06F5F7F4F8F4F7A
:103690009F4F089557FD9058440F551F59F05F3FB5
:1036A00071F04795880F97FB991F61F09F3F79F064
:1036B00087950895121613061406551FF2CF4695E6
:1036C000F1DF08C0161617061806991FF1CF869568
:1036D0007105610508940895E894BB27662777274C
:1036E000CB0197F90895F999FECF92BD81BDF89A63
:1036F000992780B50895262FF999FECF1FBA92BD5C
:1037000081BD20BD0FB6F894FA9AF99A0FBE0196C2
:1037100008952F923F924F925F926F927F928F9275
:103720009F92AF92BF92CF92DF92EF92FF920F9350
:103730001F93CF93DF93CDB7DEB7CA1BDB0B0FB65A
:10374000F894DEBF0FBECDBF09942A883988488817
:103750005F846E847D848C849B84AA84B984C884AD
:10376000DF80EE80FD800C811B81AA81B981CE0FA4
:10377000D11D0FB6F894DEBF0FBECDBFED01089589
:103780005058BB27AA270E94D81B0C94391B0E94B3
:103790002B1B38F00E94321B20F039F49F3F19F4A4
:1037A00026F40C94281B0EF4E095E7FB0C94221BE6
:1037B000E92F0E944A1B58F3BA1762077307840760
:1037C000950720F079F4A6F50C946C1B0EF4E095A7
:1037D0000B2EBA2FA02D0B01B90190010C01CA01CB
:1037E000A0011124FF27591B99F0593F50F4503E76
:1037F00068F11A16F040A22F232F342F4427585F68
:10380000F3CF469537952795A795F0405395C9F77F
:103810007EF41F16BA0B620B730B840BBAF0915037
:10382000A1F0FF0FBB1F661F771F881FC2F70EC0D6
:10383000BA0F621F731F841F48F4879577956795A9
:10384000B795F7959E3F08F0B0CF9395880F08F095
:103850009927EE0F9795879508950E942B1B60F08E
:1038600080E891E009F49EEF0E94321B28F040E8C6
:1038700051E071F45EEF0CC00C94281B0C946C1B8F
:10388000E92FE0780E944A1B40F3092E052AB1F384
:10389000261737074807590738F00E2E07F8E02596
:1038A00069F0E025E0640AC0EF6307F8009407FAC6
:1038B000DB01B9019D01DC01CA01AD01EF930E945A
:1038C000B61C0E94391B0E94701C5F91552339F071
:1038D0002BED3FE049E450FD49EC0C94C11B0895E9
:1038E000DF93DD27B92FBF7740E85FE31616170691
:1038F00048075B0718F4D92F0E94731D9F938F937D
:103900007F936F930E94EF1DE8E6F0E00E94471D51
:103910000E94391B2F913F914F915F910E94C81ACD
:10392000DD2351F09058A2EA2AED3FE049EC5FE335
:10393000D0785D270E94D81BDF910C94391B0E9420
:10394000B31C0C94391B0E94321B58F00E942B1B95
:1039500040F029F45F3F29F00C94221B51110C9484
:103960006D1B0C94281B0E944A1B68F39923B1F32A
:10397000552391F3951B550BBB27AA276217730795
:10398000840738F09F5F5F4F220F331F441FAA1F29
:10399000A9F335D00E2E3AF0E0E832D091505040E5
:1039A000E695001CCAF72BD0FE2F29D0660F771F93
:1039B000881FBB1F261737074807AB07B0E809F079
:1039C000BB0B802DBF01FF2793585F4F3AF09E3FFE
:1039D000510578F00C94221B0C946D1B5F3FE4F3AF
:1039E000983ED4F3869577956795B795F7959F5F41
:1039F000C9F7880F911D9695879597F90895E1E08D
:103A0000660F771F881FBB1F621773078407BA07EB
:103A100020F0621B730B840BBA0BEE1F88F7E09546
:103A200008950E94181D6894B1110C946D1B08959F
:103A30000E94521B88F09F5798F0B92F9927B751D1
:103A4000B0F0E1F0660F771F881F991F1AF0BA9542
:103A5000C9F714C0B13091F00E946C1BB1E0089519
:103A60000C946C1B672F782F8827B85F39F0B93F0B
:103A7000CCF3869577956795B395D9F73EF49095F5
:103A80008095709561957F4F8F4F9F4F0895DF937D
:103A9000CF931F930F93FF92EF92DF927B018C01E4
:103AA000689406C0DA2EEF010E94C81AFE01E8945D
:103AB000A5912591359145915591A6F3EF010E946D
:103AC000D81BFE019701A801DA9469F7DF90EF9007
:103AD000FF900F911F91CF91DF9108950E94911A4D
:103AE00008F48FEF08959B01AC0160E070E080E87E
:103AF0009FE30C949F1CFA01EE0FFF1F30962105E7
:103B00003105A1F16115710561F48038BFE39B07B0
:103B100049F168949038810561F08038BFEF9B07C8
:103B200041F099234AF5FF3FE1053105210519F1DF
:103B3000E8940894E795D901AA2329F4AB2FBE2F66
:103B4000F85FD0F310C0FF5F70F4A695E0F7F73987
:103B500050F019F0FF3A38F49F779F930DD00F90F3
:103B600007FC9058089546F00C94281B60E070E024
:103B700080E89FE308954FE79F775F934F933F93CC
:103B80002F930E94981E2F913F914F915F910E9419
:103B9000B51A0C94FB1D0E94521BE8F09E37E8F00A
:103BA0009639B8F49E3848F4672F782F8827985FA5
:103BB000F9CF86957795679593959539D0F3B62F7C
:103BC000B1706B0F711D811D20F4879577956795F6
:103BD00093950C942D1E0C94481E0C946D1B9B0108
:103BE000AC010C94B51A29F416F00C94221B0C9419
:103BF0006C1B0C94281B0E94521BA8F39638A0F74C
:103C000007F80F92E8942BE33AEA48EB5FE70E944B
:103C1000CB1A0F920F920F924DB75EB70F920E9480
:103C2000E01EE5E9F0E00E94471D4F915F91EF91A2
:103C3000FF91E595EE1FFF1F49F0FE57E06844270E
:103C4000EE0F441FFA95E1F74195550B0E945A1E5D
:103C50000F9007FE0C94731D0895882371F4772349
:103C600021F09850872B762F07C0662311F49927EF
:103C70000DC09051862B70E060E02AF09A95660F97
:103C8000771F881FDAF7880F9695879597F908951B
:103C90009F3F31F0915020F4879577956795B795C0
:103CA000880F911D9695879597F908950C94221B7E
:103CB0000C94481E0E94521BD8F39923C9F3940F09
:103CC000511DA3F39150504094F059F0882332F0E5
:103CD000660F771F881F91505040C1F79E3F5105D6
:103CE0002CF7880F911D9695879597F908955F3F5A
:103CF000ACF0983E9CF0BB27869577956795B79575
:103D000008F4B1609395C1F7BB0F58F711F460FF49
:103D1000E8CF6F5F7F4F8F4F9F4FE3CF0C946D1BAA
:103D200016F00C94481E0C94281B68940C94221BCB
:103D30000E94521BA8F39923C1F3AEF3DF93CF93F4
:103D40001F930F93FF92C92FDD2788232AF0219715
:103D5000660F771F881FDAF720E030E040E85FEB5E
:103D60009FE3883920F0803E38F021968F770E94BB
:103D7000C11BEDEBF0E004C00E94C11BEAEEF0E0D5
:103D80000E94471D8B01BE01EC01FB2E6F5771098C
:103D90007595771F880B990B0E94561A28E132E718
:103DA00041E35FE30E94C81AAF2D9801AE01FF9076
:103DB0000F911F91CF91DF910E94D81B0C94391B5A
:103DC000FA01DC01AA0FBB1F9B01AC01BF5728F40D
:103DD000222733274427507820C0B75190F4AB2FC7
:103DE0000024469537952795011CA395D2F3002012
:103DF00071F0220F331F441FB395DAF30ED00C94E9
:103E0000C01B61307105A0E88A07B94630F49B01F8
:103E1000AC016627772788279078309621F0208399
:103E2000318342835383089597FB072E16F4009441
:103E300007D077FD09D00E94281F07FC05D03EF46B
:103E4000909581959F4F0895709561957F4F089546
:103E5000AA1BBB1B51E107C0AA1FBB1FA617B707B0
:103E600010F0A61BB70B881F991F5A95A9F78095CC
:103E70009095BC01CD010895EE0FFF1F0590F491C0
:103E8000E02D0994CF93DF938230910510F482E006
:103E900090E0E0914705F091480520E030E0C0E077
:103EA000D0E0309711F14081518148175907C0F097
:103EB0004817590761F482819381209719F09B83F9
:103EC0008A832BC0909348058093470526C021150F
:103ED000310519F04217530718F49A01BE01DF01AA
:103EE000EF010280F381E02DDCCF2115310509F1CE
:103EF000281B390B2430310590F412968D919C913A
:103F000013976115710521F0FB019383828304C02F
:103F10009093480580934705FD01329644C0FD010A
:103F2000E20FF31F81939193225031092D933C931B
:103F30003AC02091450530914605232B41F420914C
:103F400006013091070130934605209345052091E5
:103F50000401309105012115310541F42DB73EB71B
:103F60004091080150910901241B350BE091450552
:103F7000F0914605E217F307A0F42E1B3F0B28171C
:103F8000390778F0AC014E5F5F4F2417350748F0D2
:103F90004E0F5F1F509346054093450581939193C3
:103FA00002C0E0E0F0E0CF01DF91CF9108950F93E0
:103FB0001F93CF93DF93009709F48CC0FC013297D5
:103FC00013821282009147051091480501151105D1
:103FD00081F420813181820F931F2091450530911A
:103FE00046052817390779F5F0934605E09345050E
:103FF00071C0D80140E050E0AE17BF0750F41296F0
:104000002D913C911397AD012115310509F1D9018D
:10401000F3CF9D01DA013383228360817181860FA2
:10402000971F8217930769F4EC0128813981260FC5
:10403000371F2E5F3F4F318320838A819B8193837B
:104040008283452B29F4F0934805E093470542C04D
:104050001396FC93EE931297ED01499159919E01AD
:10406000240F351FE217F30771F480819181840FCB
:10407000951F029611969C938E938281938113963D
:104080009C938E931297E0E0F0E0D80112968D9108
:104090009C911397009719F0F8018C01F6CF8D9140
:1040A0009C9198012E5F3F4F820F931F20914505F1
:1040B000309146052817390769F4309729F4109292
:1040C00048051092470502C01382128210934605DC
:1040D00000934505DF91CF911F910F910895A0E0C6
:1040E000B0E0E5E7F0E20C948D1BEC01009721F4C1
:1040F000CB010E94421FB8C0FC01E60FF71F9C01D4
:1041000022503109E217F30708F4ACC0D9010D9130
:104110001C91119706171707B0F00530110508F428
:104120009FC0C80104978617970708F499C00250EA
:104130001109061B170B019311936D937C93CF010B
:104140000E94D71F8DC05B01A01AB10A4C01800EDE
:10415000911EA0914705B091480540E050E0E12C48
:10416000F12C109709F44AC0A815B905D1F56D9046
:104170007C901197630182E0C80ED11CCA14DB0445
:1041800080F1A3014A195B096A0182E0C80ED11CC3
:104190001296BC9012971396AC91B5E0CB16D10451
:1041A00040F0B282A38351834083D9016D937C9305
:1041B0000AC00E5F1F4FC301800F911FF901918349
:1041C0008083EB2DFA2FE114F10431F0D70113961F
:1041D000FC93EE93129744C0F0934805E093470593
:1041E0003FC08D919C9111974817590708F4AC0175
:1041F0007D0112960D90BC91A02DB3CF8091450505
:104200009091460588159905E1F446175707C8F4BB
:104210008091040190910501009741F48DB79EB7FC
:104220004091080150910901841B950BE817F9078B
:10423000C8F4F0934605E0934505F9017183608366
:104240000FC0CB010E94421F7C01009759F0A801CA
:10425000BE010E943E21CE010E94D71FC70104C0AB
:10426000CE0102C080E090E0CDB7DEB7EEE00C9466
:10427000A91B81E090E0F8940C946821FB01DC011B
:1042800002C001900D9241505040D8F70895FB01B3
:10429000DC010D900020E9F7119701900D920020AC
:1042A000E1F70895FB01DC0101900D920020E1F798
:1042B0000895FB01DC014150504048F001900D92FF
:1042C0000020C9F701C01D9241505040E0F7089509
:1042D00012E0C3E5D2E004C0FE010E943C1F21961B
:0A42E000C435D107C9F7F894FFCFE9
:1042EA0001F0000600004905800000000000AF044C
:1042FA00DA09A0027E029202F604000000006D03B1
:10430A003D0335032103120311030000000069086D
:10431A00DA09D103E803A803C20300000000000081
:10432A0000000C04050A050A00000000AF095A043F
:10433A000C04B8060D044144584C3334350052433A
:10434A002D54686F756768747320472D53656E73B3
:10435A006F7220000D0A0064657369676E206279C6
:10436A00205465726F2053616C6D696E656E2040D2
:10437A002052432D54686F75676874732032303148
:10438A0037004672656520616E64206F70656E2D18
:10439A00736F75726365202D2052656C6561736554
:1043AA006420756E646572204D49542D6C6963658D
:1043BA006E73650052656164792100762E312E3163
:0243CA000000F1
:00000001FF
