:100000000C946B010C9493010C9493010C9479075C
:100010000C9479070C9479070C9493010C94930138
:100020000C9493010C9493010C9493010C94930100
:100030000C9493010C9493010C9493010C949301F0
:100040000C94C0040C9493010C9416040C94F003CB
:100050000C9493010C9493010C9493010C949301D0
:100060000C943F060C949301F316F816411797175A
:10007000E017001828183618561856185018076335
:100080004236B79BD8A71A39685618AEBAAB558C0A
:100090001D3CB7CC5763BD6DEDFD753EF617723153
:1000A000BF000000803F08000000BE922449123EBD
:1000B000ABAAAA2ABECDCCCC4C3E00000080BEAB81
:1000C000AAAAAA3E00000000BF000000803F000076
:1000D000000000084178D3BB4387D1133D190E3C83
:1000E000C3BD4282AD2B3E68EC8276BED98FE1A9BA
:1000F0003E4C80EFFFBE01C4FF7F3F0000000000C8
:100100000000000023002600290000000000250058
:1001100028002B0004040404040404040202020264
:1001200002020303030303030102040810204080BA
:1001300001020408102001020408102047005A2D73
:1001400041786973004700592D4178697300470071
:10015000582D417869730047005A2D417869730022
:100160004700592D41786973004700582D4178693F
:1001700073005243542D470020472D53656E736F13
:1001800072202076312E330020524354204A657469
:100190006920546F6F6C730020472D53656E736F29
:1001A00072202076312E330020524354204A657449
:1001B0006920546F6F6C73005072657373205570B3
:1001C000202620446E0053617665204375722E20F0
:1001D00053657475700050726573732055702026D6
:1001E00020446E00526573746F72652044656661C9
:1001F000756C74730050726573732055702F446E64
:1002000000302E30304700302E304700446563699F
:100210006D616C733A200050726573732055702FB6
:10022000446E0046696C74657265640052617700C3
:1002300053656E736F723A200020436F723A005A12
:100240003A20005A3A0043616C69622E205A2074A9
:100250006F20312E30470020436F723A00593A2008
:1002600000593A0043616C69622E205920746F2056
:10027000302E30470020436F723A00583A20005821
:100280003A0043616C69622E205820746F20302E32
:1002900030470020472D53656E736F7220207631F2
:1002A0002E330020524354204A65746920546F6FE6
:1002B0006C730000000000240027002A00000000EA
:1002C0000800020100000304070000000000000015
:1002D0000000841A7A1A11241FBECFEFD8E0DEBFC7
:1002E000CDBF11E0A0E0B1E0EAE5F2E402C0059084
:1002F0000D92A636B107D9F724E0A6E6B1E001C019
:100300001D92A834B207E1F711E0CAE6D1E004C0BB
:100310002197FE010E94BA1FC936D107C9F70E9472
:100320009E100C9420210C940000CF92DF92EF924B
:10033000FF920F931F93CF93DF936C017A018B0190
:10034000C0E0D0E0CE15DF0589F0D8016D918D01B8
:10035000D601ED91FC910190F081E02DC601099547
:10036000892B11F47E0102C02196ECCFC701DF91E9
:10037000CF911F910F91FF90EF90DF90CF90089554
:10038000833081F028F4813099F08230A1F0089513
:100390008730A9F08830B9F08430D1F480918000A2
:1003A0008F7D03C0809180008F77809380000895B7
:1003B00084B58F7702C084B58F7D84BD0895809108
:1003C000B0008F7703C08091B0008F7D8093B00024
:1003D000089585ED8093BC008091BC0084FDFCCF26
:1003E00010928002089540910A02262F30E0240FD7
:1003F000311D21323105DCF4209180022430C9F412
:10040000FC0180E090E0861758F430910A022191B7
:10041000DC01A851BE4FA30FB11D2C930196F3CF61
:1004200080910A02680F60930A0280E0089581E0DB
:10043000089582E008950895E0913902809138028C
:10044000E81730F4F0E0E65CFD4F808190E008951D
:100450008FEF9FEF0895909139028091380298179D
:1004600050F4E92FF0E0E65CFD4F208130E09F5F23
:100470009093390202C02FEF3FEFC9010895809198
:10048000380290E020913902821B91090895CF92A1
:10049000DF92EF92FF920F931F93CF93DF937C0134
:1004A000262F972F8A0180918102882391F0C62FF1
:1004B000D72F6E01C40ED51ECC15DD0571F06991E4
:1004C000D701ED91FC910190F081E02DC7010995D4
:1004D000F3CF642F822F0E94F301C801DF91CF91E7
:1004E0001F910F91FF90EF90DF90CF900895CF93E1
:1004F000DF931F92CDB7DEB769832091810222235B
:10050000D1F02091A402203240F021E030E0FC0143
:100510003383228380E090E015C080918202E82F2F
:10052000F0E0ED57FD4F998190838F5F80938202B9
:100530008093A40205C061E0CE0101960E94F30100
:1005400081E090E00F90DF91CF9108950895DC0154
:100550005196ED91FC915297908150968C91809597
:100560008923808308952091420430914304281701
:10057000390771F49091400480914104981741F03B
:10058000E0914004F0E0E852FE4F808190E0089551
:100590008FEF9FEF08950895209142043091430416
:1005A0002817390769F4809141042091400490E0B4
:1005B0004096821B910960E170E00E94A61F089599
:1005C00080E090E008952091420430914304281780
:1005D0003907B9F49091400480914104981789F04B
:1005E000E0914004F0E0E852FE4F80812091400409
:1005F00030E02F5F3F4F2F7033272093400490E06F
:1006000008958FEF9FEF0895089580E090E008959A
:1006100008950E94012185EA92E00E94F40E21E0F3
:10062000892B09F420E0822F08950F931F93CF9315
:10063000DF938C01EB0188E2FB0111928A95E9F7C7
:100640004BE050E06EE571E0CE010E9411211B8667
:1006500081E090E0A0E0B0E08C879D87AE87BF8707
:10066000F80183819481A581B681888B998BAA8BAF
:10067000BB8B86E090E0A0E0B0E08C8B9D8BAE8BD6
:10068000BF8B1CA21DA21EA21FA28AE098EEACE1A5
:10069000B3EC888F998FAA8FBB8F8AE098EEACE17C
:1006A000B3E48C8F9D8FAE8FBF8F83EA9FEAA0E269
:1006B000BDE388A399A3AAA3BBA3DF91CF911F9108
:1006C0000F910895CF92DF92EF92FF920F931F93B5
:1006D000CF93DF93EC0189A19AA1009729F421E03F
:1006E00030E03B832A8371C00FB7F8948F8D98A1B7
:1006F000892B91F028E030E090E081E0482F4623FC
:1007000009F09F5F880F21503109C1F7888D811151
:100710009F5F192F109501C010E0F62ECE010E94A8
:10072000A70289A19AA10197F1F788E0C82ED12CE0
:10073000EE24E3948E2D8F2139F0E989FA89908196
:100740008889892B808303C0CE010E94A70289A1DA
:100750009AA10197F1F7EE0C81E0C81AD10851F780
:100760008E89882389F0888D882339F0E989FA8970
:1007700090818889892B808303C0CE010E94A702C3
:1007800089A19AA10197F1F78F8D98A1892B81F00A
:1007900010FF07C0E989FA8990818889892B8083B5
:1007A00003C0CE010E94A7028F8D98A10197F1F797
:1007B000E989FA8990818889892B80830FBF8D8D83
:1007C0009E8D0197F1F781E090E0DF91CF911F912D
:1007D0000F91FF90EF90DF90CF9008950C946920D7
:1007E0001F920F920FB60F9211242F933F934F93A6
:1007F0005F936F937F938F939F93AF93BF93EF9389
:10080000FF9385EA92E00E941410FF91EF91BF914F
:10081000AF919F918F917F916F915F914F913F9198
:100820002F910F900FBE0F901F9018951F920F924F
:100830000FB60F9211242F938F939F93EF93FF93F3
:10084000E091B502F091B6028081E091BB02F09197
:10085000BC0282FD12C090818091BE028F5F8F73B7
:100860002091BF02821751F0E091BE02F0E0EB55FB
:10087000FD4F958F8093BE0201C08081FF91EF9163
:100880009F918F912F910F900FBE0F901F901895F1
:100890001F93CF93DF93282F30E0F901E354FD4FEE
:1008A0008491F901E85DFE4FD491F901EC5EFE4FB1
:1008B000C491CC23C9F0162F81110E94C001EC2FE6
:1008C000F0E0EE0FFF1FE65FFE4FA591B4918FB7EA
:1008D000F894111105C09C91ED2FE095E92302C019
:1008E000EC91ED2BEC938FBFDF91CF911F91089589
:1008F000CF93DF9390E0FC01E85DFE4F2491FC0173
:10090000EC5EFE4F8491882361F190E0880F991F7F
:10091000FC01ED54FD4FC591D491FC01E65FFE4F03
:10092000A591B491611109C09FB7F8948881209571
:1009300082238883EC912E230BC0623061F49FB731
:10094000F8943881822F809583238883EC912E2B15
:100950002C939FBF06C08FB7F894E8812E2B288375
:100960008FBFDF91CF9108952FB7F8946091340233
:100970007091350280913602909137022FBF089511
:100980001F920F920FB60F9211242F933F938F93C4
:100990009F93AF93BF938091340290913502A091C1
:1009A0003602B09137023091330226E0230F2D3703
:1009B00020F40296A11DB11D05C029E8230F03965E
:1009C000A11DB11D20933302809334029093350210
:1009D000A0933602B093370280912F02909130029B
:1009E000A0913102B09132020196A11DB11D8093F8
:1009F0002F0290933002A0933102B0933202BF9144
:100A0000AF919F918F913F912F910F900FBE0F90BB
:100A10001F9018954F925F926F927F928F929F9244
:100A2000AF92BF92CF92DF92EF92FF920F931F93FC
:100A3000CF93DF93982E842E722E07E010E0612C66
:100A4000EE24E394F12CC62FD0E0CE0183549D4FC9
:100A50006C01FE01E85DFE4F5F01CC5EDE4F660C6F
:100A600060E0892D0E944804B701002E01C0660F86
:100A70000A94EAF76721882D0E94480461E0892DD5
:100A80000E944804F6018491F5015490FE014490BF
:100A9000442081F081110E94C001A42DB0E0AA0F72
:100AA000BB1FA050BF4FFD0185919491FC01808137
:100AB0005822A9F40150110990F6862DDF91CF91AB
:100AC0001F910F91FF90EF90DF90CF90BF90AF906C
:100AD0009F908F907F906F905F904F900895862D9C
:100AE0008160682EE7CF0F931F93CF93DF93EC01C4
:100AF000162F8D85882319F181E08093810283E58B
:100B00008093A302109282021092A40282E493E0E6
:100B10000E94770281E00E94930D82E090E00E94A3
:100B2000380E82E493E00E942B02C82F82E493E007
:100B30000E942B02982F88278C010C2B1EC060E08E
:100B40008C850E944804212F206C4A856B858985FD
:100B50000E940A052FEF4A856B8589850E940A0548
:100B6000082F2FEF4A856B8589850E940A0510E0C2
:100B7000182B61E08C850E944804C801DF91CF9159
:100B80001F910F9108950F931F93CF93DF938C01C3
:100B9000EB0184E2FB0111928A95E9F784E290E08F
:100BA000A0E0B0E088839983AA83BB83F8018381A6
:100BB0009481A581B6818C839D83AE83BF8381E0C0
:100BC00090E0A0E0B0E088879987AA87BB87188A61
:100BD000198A1A8A1B8A62E3C8010E947305BC0144
:100BE000990F880B990B0E94C01C2FE632E143E855
:100BF0005BE30E94751D2AE038EE4CE151E40E944F
:100C0000751D6C8B7D8B8E8B9F8B64E3C8010E945E
:100C10007305BC01990F880B990B0E94C01C2FE62D
:100C200032E143E85BE30E94751D2AE038EE4CE1B7
:100C300051E40E94751D688F798F8A8F9B8F66E3C0
:100C4000C8010E947305BC01990F880B990B0E9483
:100C5000C01C2FE632E143E85BE30E94751D2AE0E9
:100C600038EE4CE151E40E94751D6C8F7D8F8E8FA4
:100C70009F8F81E0DF91CF911F910F9108951F9277
:100C80000F920FB60F9211242F933F934F935F93C0
:100C90006F937F938F939F93AF93BF93EF93FF9344
:100CA0008091B900887F803609F49CC068F588324D
:100CB00009F45BC090F4803109F454C038F48823FF
:100CC00009F4F6C0883009F44DC0F6C0883109F443
:100CD0004CC0803209F45DC0EFC0803409F468C0B4
:100CE00048F4803309F455C0883309F0E5C0809397
:100CF0007E02D8C0803509F44FC0883509F45DC044
:100D0000883409F0D9C0D6C0883909F4C7C0A8F41E
:100D1000883709F467C038F4883609F463C080372F
:100D200009F460C0C9C0883809F4B8C0803909F432
:100D30005FC0803809F0C0C05BC0803B09F486C04A
:100D400038F4803A09F466C0883A09F47FC0B4C028
:100D5000803C09F4A7C0883C09F4A4C0883B09F48E
:100D60008AC0AAC080915B0210C090917D028091E0
:100D70007C02981770F5E0917D0281E08E0F8093E0
:100D80007D02F0E0E45AFD4F80818093BB0085EC4A
:100D900086C080937E028EC0E0917D0281E08E0F3E
:100DA00080937D028091BB00F0E0E45AFD4F808388
:100DB00090917D0280917C026EC0E0917D0281E085
:100DC0008E0F80937D028091BB00F0E0E45AFD4FCE
:100DD000808380917F0281116DC081E080935A02EF
:100DE00084EA61C083E08093800210922E02CFCF0C
:100DF00080912E02803208F051C0E0912E0281E0F5
:100E00008E0F80932E028091BB00F0E0E25FFD4FD9
:100E10008083BDCF85EC8093BC00109280028091CE
:100E20002E02803230F4E0912E02F0E0E25FFD4FBE
:100E3000108260912E0270E0E0910C02F0910D02A0
:100E40008EE092E0099510922E0236C084E08093E5
:100E5000800210920B0210920A02E0910802F091B7
:100E60000902099580910A02811105C081E08093F1
:100E70000A021092E801E0910B0281E08E0F80934C
:100E80000B02F0E0E851FE4F80818093BB0090910F
:100E90000B0280910A02981708F479CF85E88093B5
:100EA000BC000AC085EC8093BC001092800204C094
:100EB00010927E020E94E901FF91EF91BF91AF91E4
:100EC0009F918F917F916F915F914F913F912F9162
:100ED0000F900FBE0F901F901895862798E027E07F
:100EE00087FF03C0880F822701C0880F9150C1F788
:100EF00008951F920F920FB60F9211242F933F93D4
:100F00004F935F936F937F938F939F93AF93BF9311
:100F1000CF93DF93EF93FF93E0914204F09143046A
:100F2000309709F467C0C685D785888125858223D7
:100F300009F060C0818D928D0197F1F7438D548D3A
:100F400068E070E030E081E0DA011197F1F7988114
:100F5000922311F0382B03C0982F90953923880FD6
:100F60006150710989F78091410490E001968F707A
:100F7000992760914004681749F0A0914104B0E0BE
:100F8000A852BE4F3C938093410403C0878981607F
:100F9000878B86898823F1F0CA010197F1F7888150
:100FA000282381E090E0A0E0B0E004C0880F991F02
:100FB000AA1FBB1F2A95D2F74091D6015091D701A5
:100FC00060E070E0842B952BA62BB72B9093D70174
:100FD0008093D601878D90A1009711F00197F1F7CA
:100FE000858D968D0197F1F7A389B4899C918589A8
:100FF000892B8C93FF91EF91DF91CF91BF91AF91AE
:101000009F918F917F916F915F914F913F912F9120
:101010000F900FBE0F901F901895E0914204F09131
:101020004304E817F90769F4A389B4899C91858979
:10103000809589238C93109243041092420481E09E
:10104000089580E008950C94961B0C948E1B0895CF
:101050000F931F93CF93C82F0CE114E0F801608F1A
:10106000682FC8010E946203F801108E8C2FCF9167
:101070001F910F9108952F923F924F925F926F921E
:101080007F928F929F92AF92BF92CF92DF92EF9218
:10109000FF920F931F93CF93DF93CDB7DEB72A97BD
:1010A0000FB6F894DEBF0FBECDBF8C012A013B0105
:1010B0003A87298720E030E0A901C301B2010E94EC
:1010C000111C87FF05C060E070E080E09FEB04C06A
:1010D00060E070E080E09FE3E12CF12CA985BA8507
:1010E000EA16FB0654F420E030E040E251E40E94AE
:1010F000161C2FEFE21AF20AF1CF9B01AC01C301DB
:10110000B2010E94A51B6B017C0120E030E0A90127
:10111000C301B2010E94111C87FF04C0F7FAF094CA
:10112000F7F8F094A12CB12CBDECB983ECECEA8378
:10113000FCECFB832DE32C8320E030E040E251E423
:1011400069817A818B819C810E94751D962E872EE4
:10115000382E292EA70196010E94111C181644F062
:101160003FEFA31AB30A99828A823B822C82E4CF92
:10117000A114B10429F045016FEF861A960A03C045
:1011800092E0892E912C20E030E0A901C301B20148
:101190000E94111C87FF03C07FEF871A970A898579
:1011A0009A850196880E991E1814190444F081E05E
:1011B00090E0DC01A819B909BE83AD8302C01E828C
:1011C0001D8220E030E0A901C301B2010E94111C80
:1011D00087FF07C08DE2F801808388248394912CD7
:1011E00002C0812C912CA114B10449F4F801E80D3E
:1011F000F91D80E3808394012F5F3F4F4901212C2B
:10120000312CB101680D791D78876F832A143B0456
:10121000D1F129813A814B815C81C701B6010E94DD
:10122000161C0E94881C2B013C016F817885600F81
:10123000711F4AE0C2010E94591BB201550C880B74
:10124000990B0E94C01C29813A814B815C810E94CC
:10125000751D9B01AC01C701B6010E94A41B6B0167
:101260007C0120E030E040E251E469817A818B81A9
:101270009C810E94161C69837A838B839C833FEF39
:10128000231A330ABECF5B0189859A851816190681
:1012900044F4F801E60FF71F8EE28083DB0111961C
:1012A0005D01812C912CE985FA858E169F064CF5FF
:1012B00020E030E040E251E4C701B6010E94751D14
:1012C0002B013C010E94881C6B017C01B4016A0D5A
:1012D0007B1D600F711F4AE0C6010E94591BB601B9
:1012E000DD0C880B990B0E94C01C9B01AC01C30153
:1012F000B2010E94A41B6B017C01BFEF8B1A9B0AF9
:10130000D2CFCF01F7FF02C080E090E0A80EB91E57
:101310002D813E81232B89F09501F801EA0DFB1DFB
:1013200040E26FEFA61AB60A4193C501821B930BE8
:10133000AD81BE818A179B07A4F3F801EA0DFB1D5E
:101340001082C8012A960FB6F894DEBF0FBECDBF3B
:10135000DF91CF911F910F91FF90EF90DF90CF9091
:10136000BF90AF909F908F907F906F905F904F90C5
:101370003F902F9008952F923F924F925F926F92DD
:101380007F928F929F92AF92BF92CF92DF92EF9215
:10139000FF920F931F93CF93DF93C0901604D090CA
:1013A0001704E0901804F09019040E94B4042091EE
:1013B000EE032223E9F060E08EE70E94280861E056
:1013C00082E90E94280861E083E20E94280861E027
:1013D0008091EE030E94280880910201882311F079
:1013E000815003C01092EE0386E08093020170C327
:1013F00024EFC20E21E0D21EE11CF11C11E0C61642
:10140000D706E806F90608F010E060E08EE70E94D3
:10141000280861E08FE90E942808111170C08091AE
:10142000EF03A0916C03B0916D03E82FF0E0EE0F95
:10143000FF1FE253FC4F20813181232B49F48F5F42
:10144000282F30E02A173B0784F31092EF0302C0E5
:101450008093EF036091EF03F6E0E0E026E030E0F8
:10146000E12C40E050E070E0CA01860F971F8A1718
:101470009B07A4F5009709F1E394880F991FFC01DD
:10148000E255FC4F80818F718830A1F0813019F4D2
:10149000C901039615C0811103C0C901029610C08D
:1014A000853019F4C90104960BC0893019F0C901BF
:1014B000019606C0C901059603C0C9012F2F3E2F12
:1014C0004F5F5F4F4031510551F08B31910514F062
:1014D000EA9404C0F22FE32F9C01C6CFC901C82FA4
:1014E000C06481E0809334046C2F8CE194E00E940E
:1014F000620360E08C2F0E946D07C82F1DC0E09131
:101500003F04F0E0EE0FFF1FE155FC4F8081C82F34
:10151000CF71829586958770C80FC85F81E08093F0
:1015200034046C2F8CE194E00E94620360E08C2F05
:101530000E946D07C82FE12CD1E0D093340461E103
:101540008CE194E00E9462036C2F81E10E946D07A0
:10155000C82FD093340464EA8CE194E00E946203C3
:101560006C2F84EA0E946D07C82FD093340462E088
:101570008CE194E00E9462036C2F82E00E946D0770
:10158000C82FD093340462E08CE194E00E9462039F
:101590006C2F82E00E946D07C82FD093340460E066
:1015A0008CE194E00E946203109234046C2F80E07E
:1015B0000E946D07F82E1111EAC1C091EF036E2C45
:1015C0006C0E20916C0330916D03C61551F0772499
:1015D00073947C0E7092EF030C2F10E00217130728
:1015E00054F08091EF0390E0821793070CF46CC2E3
:1015F0001092EF0369C2CC2309F4C7C1E0911A0429
:10160000F0911B040995C295C07F680131E2C30EB9
:10161000D11CC601880F991FFC01E459FC4F5F01E2
:1016200080818F7190E08530910509F4BEC0F4F59A
:10163000009709F495C0019709F0A7C1000F111F89
:10164000F801E253FC4F0190F081E02D00811181FF
:10165000C160D09334046C2F8CE194E00E9462034B
:101660006F2D8C2F0E946D07C82F1F79F5012081E7
:1016700022952695277030E0322F22273295330F9E
:10168000307E022B132BD0933404602F8CE194E036
:101690000E9462036C2F802F0E946D07082F912FEC
:1016A0009F79F501C081C07EC92B74C08830910537
:1016B00021F0099709F4C2C068C1C860D09334040E
:1016C0006C2F8CE194E00E9462036F2D8C2F0E949E
:1016D0006D07C82F000F111FF801E253FC4F019056
:1016E000F081E02D80819181A281B3816C017D0127
:1016F000FFE9FF22D09334046C2D8CE194E00E942A
:1017000062036C2F8C2D0E946D07C82F2D2C3E2C50
:101710004F2C552447FC5A94D0933404622D8CE10D
:1017200094E00E9462036C2F822D0E946D07C82FE7
:101730001701552437FC5094452CD0933404622D66
:101740008CE194E00E9462036C2F822D0E946D0751
:10175000182F9F2D9F79F501C081C07EC92B62C0D3
:10176000000F111FF801E253FC4F0190F081E02DB2
:101770001081D09334046C2F8CE194E00E946203BA
:101780006F2D8C2F0E946D07082F1F79F501C081E6
:10179000C07EC12BD09334046C2F8CE194E00E9466
:1017A000620310923404602F47C0C560D0933404A4
:1017B0006C2F8CE194E00E946203109234046F2D30
:1017C0008C2F0E946D07F82E000F111FF801E253B5
:1017D000FC4F0190F081E02D118102819081F50193
:1017E0002081229526952770213011F0C0E001C09C
:1017F000C0E4C92BD0933404602F8CE194E00E94A4
:1018000062036F2D802F0E946D07082FD093340440
:10181000612F8CE194E00E946203602F812F0E946F
:101820006D07182FD09334046C2F8CE194E00E9444
:10183000620310923404612F8C2FA4C0C960D0932E
:1018400034046C2F8CE194E00E9462036F2D8C2F86
:101850000E946D07C82F000F111FF801E253FC4FC3
:101860000190F081E02D80809180A280B38020E003
:1018700030E0A901C501B4010E94701D18161CF4C6
:10188000C501B40103C0C501B40190580E948F1C6A
:101890008B0180E090E00E94BE1C9B01AC01C50161
:1018A000B4010E94A41B2AE939E949E15FE30E94DF
:1018B000751D20E030E543EC57E40E94751D1B01C7
:1018C0002C0120E030E0A9010E94701D18161CF4C4
:1018D000C201B10103C0C201B10190580E948F1C26
:1018E000562EF72E812F8170F601EE0FFF1FE4595F
:1018F000FC4F9081929596959770913011F090E001
:1019000001C090E2192F182B20E030E0A901C50199
:10191000B4010E94111C881F8827881F8295880F98
:10192000880F807C182BD0933404652D8CE194E0D3
:101930000E9462036C2F852D0E946D07C82FD093E3
:1019400034046F2D8CE194E00E9462036C2F8F2D84
:101950000E946D07C82FD0933404602F8CE194E06F
:101960000E9462036C2F802F0E946D07C82FD093B6
:101970003404612F8CE194E00E94620310923404DD
:101980006C2F812F0E946D07F82EC72D1ACEC091A3
:101990003F04D09334046C2F8CE194E00E946203E6
:1019A0006F2D8C2F0E946D07B82E0C2F10E0680150
:1019B000CC0CDD1C960121553C4F4901F9012081D9
:1019C000922F9F71F8E09F9F700111242295269518
:1019D0002770E22AD09334046E2D8CE194E00E94AB
:1019E0006203109234046B2D8E2D0E946D07F82E29
:1019F000F601E259FC4FD081AD2EB180772473946B
:101A00002A2D2D1B30E0F40180818F7190E0281782
:101A10003907A4F4F501E490709234046E2D8CE142
:101A200094E00E946203109234046F2D8E2D0E9468
:101A30006D07F82EFFEFAF1ABF0AE2CF000F111F9C
:101A4000D801A257BC4FDC910D2F11961C91960125
:101A500021553C4F6901BB24B394202F2D1B30E04E
:101A6000F601808182958695877090E02817390766
:101A70009CF4F801E490B09234046E2D8CE194E073
:101A80000E946203109234046F2D8E2D0E946D0708
:101A9000F82E0F5F1F4FE1CFCF5FC0933F048C2F15
:101AA00090E020916C0330916D038217930714F03E
:101AB00010923F040E94B4046093160470931704BC
:101AC000809318049093190461E08F2D0E942808D8
:101AD000E0911A04F0911B04099560E08EEF0E94DA
:101AE0002808C4EFD3E01C2F105E61E089910E94AA
:101AF00028081C13FACF60E08FEF0E94280881E0CD
:101B0000DF91CF911F910F91FF90EF90DF90CF90D9
:101B1000BF90AF909F908F907F906F905F904F900D
:101B20003F902F900895382F2091A4029091A30206
:101B3000213208F049C0809180028111FCCF42E03F
:101B40004093800230937F023FEF30937E021092E9
:101B50007D0220937C02A3E8B2E04CE552E0FA015A
:101B60003E2F341B321718F43D913193F9CF109268
:101B70005B0220915B02990F922B90935B029091F4
:101B80005A02913061F410925A0290915B02909344
:101B9000BB009091BC0093FDF8CF95EC01C095EE91
:101BA0009093BC00909180029230E1F390917E027C
:101BB0009F3F79F080917E02803241F080917E02D9
:101BC000803331F084E005C081E003C082E001C0D1
:101BD00083E0109282021092A40210928102089572
:101BE0001F93CF93DF931F92CDB7DEB7282F162F09
:101BF00080916B038823D9F081E08093810283E593
:101C00008093A302109282021092A402622F82E4B7
:101C100093E00E947702612F82E493E00E947702B2
:101C200081E00F90DF91CF911F910C94930D60E0B4
:101C300080916A0329830E944804298140916803A6
:101C400060916903809167030E940A05212F4091EA
:101C5000680360916903809167030E940A0561E04F
:101C600080916A030F90DF91CF911F910C944804EB
:101C7000909180029111FCCF813208F080E291E0D6
:101C80009093800290937F022FEF20937E02109218
:101C90007D02280F20937C0290935B0290915B025F
:101CA000966A90935B0290915A02913061F410927F
:101CB0005A0290915B029093BB009091BC0093FDFF
:101CC000F8CF95EC01C095EE9093BC009091800206
:101CD0009130E1F390917D02981710F480917D028C
:101CE000ACE5B2E02AE332E0F9019E2F921B98178F
:101CF00018F49D919193F9CF109239028093380294
:101D00000895CF93C82F80916B038823D9F081E089
:101D10008093810283E58093A30210928202109245
:101D2000A4026C2F82E493E00E94770281E00E947B
:101D3000930D81E090E00E94380E82E493E00E94CF
:101D40002B021FC060E080916A030E9448042C2F80
:101D500020684091680360916903809167030E9445
:101D60000A052FEF40916803609169038091670332
:101D70000E940A05C82F61E080916A030E9448040E
:101D80008C2FCF910895FC01538D448D252F30E089
:101D9000842F90E0821B930B541710F0CF96089578
:101DA00001970895FC01918D828D981761F0828DC5
:101DB000DF01A80FB11D5D968C91928D9F5F9F737F
:101DC000928F90E008958FEF9FEF0895FC01918D21
:101DD000828D981731F0828DE80FF11D858D90E08E
:101DE00008958FEF9FEF0895FC01918D228D892F2B
:101DF00090E0805C9F4F821B91098F739927089513
:101E000080E090E0892B29F00E940B0381110C9453
:101E100000000895CF92DF92FF920F931F93CF930C
:101E2000DF9320916C0330916D0320313105CCF5A7
:101E30006B0189010F5F1F4FF801EE0FFF1FE4597F
:101E4000FC4F91838083F901EE0FFF1FE257FC4F97
:101E500071836083F901EE0FFF1FE253FC4F118283
:101E60001082220F331FE901C255DC4F18820E94F5
:101E7000501B982F9F718981807EF82EF92AC60108
:101E80000E94501B8295880F807E9F2D9F71F92E96
:101E9000F82AF98210936D0300936C038FEF800F83
:101EA00001C08FEFDF91CF911F910F91FF90DF90D5
:101EB000CF900895CF93DF938CE194E00E940D08BA
:101EC000CCE1D4E061E08C850E94780461E08C85EF
:101ED000DF91CF910C9448048091390490913A0499
:101EE000892B31F1809142049091430424E08C319C
:101EF0009207F1F0009711F00E940D0880913304D1
:101F00008E7F8093330410924104109240048CE140
:101F100094E09093430480934204E0912F04F09165
:101F20003004908180913104892B808381E0089571
:101F300080E008950F931F93CF93DF938C01EB0103
:101F40000E94501BA4EFB3E090E020E2981740F409
:101F5000A8014F5F5F4FF80104910C938A0101C003
:101F60002C939F5F1196903189F7CE010E94501BF0
:101F7000A4E0B4E090E020E2981740F4AE014F5F97
:101F80005F4FFE01C491CC93EA0101C02C939F5F87
:101F90001196903189F7DF91CF911F910F9108959C
:101FA000CF93DF93FC0101900020E9F73197E81B04
:101FB00020E030E0F0E2A90148575F4F2E1748F4C7
:101FC000EA01C459DC4FDC01A20FB31FAC91A88316
:101FD00004C0DA01A459BC4FFC932F5F3F4F20315E
:101FE000310549F7FB0101900020E9F73197E61B25
:101FF00080E090E040E29C0128563F4F8E1748F465
:10200000E901C459DC4FDB01A80FB91F5C9158836B
:1020100004C0D901A459BC4F4C930196803191055D
:1020200051F7DF91CF910895FC01848DDF01A80F56
:10203000B11DA35ABF4F2C91848D90E001968F73F0
:102040009927848FA689B7892C93A089B1898C910F
:1020500080648C93938D848D981306C00288F389D5
:10206000E02D80818F7D80830895EF92FF920F9302
:102070001F93CF93DF93EC0181E0888F9B8D8C8D34
:10208000981305C0E889F989808185FD24C0F62E62
:102090000B8D10E00F5F1F4F0F731127E02E8C8DFB
:1020A000E8120CC00FB607FCFACFE889F9898081E5
:1020B00085FFF5CFCE010E941410F1CF8B8DFE016C
:1020C000E80FF11DE35AFF4FF0820B8FEA89FB897D
:1020D0008081806207C0EE89FF896083E889F98981
:1020E00080818064808381E090E0DF91CF911F91B7
:1020F0000F91FF90EF900895CF93DF93EC01888DBF
:102100008823C9F0EA89FB89808185FD05C0A889FB
:10211000B9898C9186FD0FC00FB607FCF5CF808181
:1021200085FFF2CFA889B9898C9185FFEDCFCE01CB
:102130000E941410E7CFDF91CF910895CF93DF93E2
:10214000CDB7DEB7C856D1090FB6F894DEBF0FBEC3
:10215000CDBF789484B5826084BD84B5816084BD30
:1021600085B5826085BD85B5816085BD80916E0035
:10217000816080936E001092810080918100826066
:1021800080938100809181008160809381008091A3
:1021900080008160809380008091B1008460809392
:1021A000B1008091B00081608093B00080917A008E
:1021B000846080937A0080917A00826080937A00B4
:1021C00080917A008E7F80937A0080917A00806877
:1021D00080937A001092C10061E08DE00E94780443
:1021E00061E08DE00E94480461E083E00E94780491
:1021F00060E083E00E9448048091B0019091B101B9
:10220000909301018093000168E771E088E891E014
:102210000E949A0F82E791E090936F0380936E0380
:1022200010928F0310928E031092CF031092CE0360
:102230001092AE0385E08093AF0381E090E090932D
:102240006D0380936C0361E083E00E94480461E0C9
:1022500083E00E9478047BE2E72E71E0F72EF7011D
:10226000849180932C0407E111E0F801849190E0BF
:10227000880F991F865F9E4FFC0125913491309302
:102280002E0420932D0460E083E00E94780461E036
:1022900083E00E94480483E080932804F701E490DF
:1022A000E0922904F8010491E02FF0E0EE0FFF1F07
:1022B000E050FF4F8591949190932B0480932A04D2
:1022C00081E08093320480EC90E090933E04809310
:1022D0003D042EE430E030933604209335042EEB99
:1022E00030E030933804209337044CE052E05093B0
:1022F0003A044093390430933C0420933B042091EA
:1023000068002460209368002DE630E030933004AC
:1023100020932F0428E0209331040197F1F70E94C5
:102320006C0F0E945A0F20E030E04FE753E46091B9
:102330005A0370915B0380915C0390915D030E944E
:10234000111C811108C010925A0310925B03109265
:102350005C0310925D0320E030E04FE753E46091AE
:1023600056037091570380915803909159030E942E
:10237000111C811108C0109256031092570310923D
:1023800058031092590320E030E04FE753E4609186
:1023900052037091530380915403909155030E940E
:1023A000111C811108C01092520310925303109215
:1023B00054031092550380915003909151038F3F25
:1023C000910521F4109251031092500380914E0315
:1023D00090914F038F3F910531F481E090E090930D
:1023E0004F0380934E03C0905A03D0905B03E0905C
:1023F0005C03F0905D0320E030E04CEF52E4C70155
:10240000B6010E94701D181684F420E030E040E808
:1024100053E4C701B6010E94A41B60935A03709352
:102420005B0380935C0390935D03C0905603D09050
:102430005703E0905803F090590320E030E04CEF50
:1024400052E4C701B6010E94701D181684F420E002
:1024500030E040E853E4C701B6010E94A41B60933A
:102460005603709357038093580390935903C09079
:102470005203D0905303E0905403F090550320E0B2
:1024800030E04CEF52E4C701B6010E94701D1816EF
:1024900084F420E030E040E853E4C701B6010E9434
:1024A000A41B60935203709353038093540390933F
:1024B00055038091500390915103039724F010929B
:1024C00051031092500380914E0390914F03019756
:1024D000029730F081E090E090934F0380934E0399
:1024E0008091500390915103019709F45AC01091C3
:1024F0004E0369E671E08BE691E00E940A0F80319D
:10250000A0F490E0FC01EE0FFF1FE253FC4F26EC1D
:1025100031E031832083880F991FFC01E255FC4F85
:102520001295110F107E1860108310914E0360E613
:1025300071E082E691E00E940A0F8031A0F490E001
:10254000FC01EE0FFF1FE253FC4F22EC31E0318320
:102550002083880F991FFC01E255FC4F1295110F43
:10256000107E1860108310914E0367E571E089E5D5
:1025700091E00E940A0F8031A0F490E0FC01EE0F80
:10258000FF1FE253FC4F2EEB31E031832083880F95
:10259000991FFC01E255FC4F1295110F107E186037
:1025A00010838091500390915103892B09F45AC0F4
:1025B00010914E036EE471E080E591E00E940A0FF5
:1025C0008031A0F490E0FC01EE0FFF1FE253FC4FBE
:1025D0002AEB31E031832083880F991FFC01E255FB
:1025E000FC4F1295110F107E1860108310914E034E
:1025F00065E471E087E491E00E940A0F8031A0F465
:1026000090E0FC01EE0FFF1FE253FC4F26EB31E0A0
:1026100031832083880F991FFC01E255FC4F1295EE
:10262000110F107E1860108310914E036CE371E05F
:102630008EE391E00E940A0F8031A0F490E0FC014B
:10264000EE0FFF1FE253FC4F22EB31E0318320837A
:10265000880F991FFC01E255FC4F1295110F107E57
:102660001860108380916B03882341F11092390226
:1026700010923802109282021092A40210928002EC
:1026800081E080937F0210925A0261E082E10E9411
:10269000480461E083E10E9448048091B9008E7F84
:1026A0008093B9008091B9008D7F8093B90080E25A
:1026B0008093B80085E48093BC0019C061E08091EC
:1026C0006A030E94780461E0809167030E947804A5
:1026D00061E0809167030E94480461E08091680393
:1026E0000E94780460E0809169030E94780480E091
:1026F0000E94810E853ED9F190E0A0E0B0E019A2E1
:10270000BE016F5D7F4F8C019D010F701127222745
:10271000332744E0B695A795979587954A95D1F7C5
:10272000615071090A3011052105310510F4005D71
:1027300001C0095CFB0100830097A105B10519F7F1
:102740006115710559F001900020E9F73197AF014B
:10275000461B570B85EA92E00E94950142E050E04B
:102760006BE571E085EA92E00E94950104C068E0A3
:102770008DE20E94F00D81E30E94810E807F682F20
:102780006B6081E30E94F00D83E090E0909366031C
:10279000809365036CE08CE20E94F00D0E94BB09FF
:1027A00060E08DE00E94480401E010E0BE016F5F30
:1027B0007F4F8EE593E00E94C3052AE038EE4CE19E
:1027C00051E46D897E898F89988D0E94161C6B015A
:1027D0007C0120E030E048EC52E460915A037091B3
:1027E0005B0380915C0390915D030E94161C9B012A
:1027F000AC01C701B6010E94A41B6B017C012AE059
:1028000038EE4CE151E4698D7A8D8B8D9C8D0E9460
:10281000161C4B015C0120E030E048EC52E4609172
:1028200056037091570380915803909159030E9469
:10283000161C9B01AC01C501B4010E94A51B6D963D
:102840006CAF7DAF8EAF9FAF6D976093CE017093ED
:10285000CF018093D0019093D1012AE038EE4CE172
:1028600051E46D8D7E8D8F8D98A10E94161C4B01B9
:102870005C0120E030E048EC52E46091520370913A
:10288000530380915403909155030E94161C9B01A1
:10289000AC01C501B4010E94A51BA5966CAF7DAF2C
:1028A0008EAF9FAFA5976093CA017093CB018093C1
:1028B000CC019093CD01F7FAF094F7F8F094C09220
:1028C000D201D092D301E092D401F092D50160916F
:1028D0004E0370914F03072E000C880B990B0E943A
:1028E000C01C9B01AC0160E070E080E291E40E94BA
:1028F000E21D69966CAF7DAF8EAF9FAF69979B016C
:10290000AC01C701B6010E94751D0E94321E0E94D3
:10291000881C6093C6017093C7018093C80190938F
:10292000C90169962CAD3DAD4EAD5FAD69976D9611
:102930006CAD7DAD8EAD9FAD6D970E94751D0E94F3
:10294000321E0E94881C6093C2017093C301809361
:10295000C4019093C50169962CAD3DAD4EAD5FAD00
:102960006997A5966CAD7DAD8EAD9FADA5970E9484
:10297000751D0E94321E0E94881C6093BE017093D8
:10298000BF018093C0019093C10180907601909027
:102990007701A0907801B0907901809272019092B5
:1029A0007301A0927401B092750140907A01509029
:1029B0007B0160907C0170907D0140927601509285
:1029C0007701609278017092790180916A0190910B
:1029D0006B01A0916C01B0916D01A1968CAF9DAF80
:1029E000AEAFBFAFA1978093660190936701A093AC
:1029F0006801B093690180916E0190916F01A0917F
:102A00007001B0917101A9968CAF9DAFAEAFBFAF11
:102A1000A99780936A0190936B01A0936C01B09386
:102A20006D0127EB31E34DE651E4C701B6010E9489
:102A3000161C9B01AC0160937A0170937B0180931B
:102A40007C0190937D01C501B4010E94A51B6B011F
:102A50007C01A3019201C301B2010E94A51B9B014D
:102A6000AC01C701B6010E94A51B6B017C012BEBD9
:102A70003AE543ED5EEBA1966CAD7DAD8EAD9FADBD
:102A8000A1970E94751D9B01AC01C701B6010E9470
:102A9000A51B6B017C012FE23DE442E95FE3A996AF
:102AA0006CAD7DAD8EAD9FADA9970E94751D9B014C
:102AB000AC01C701B6010E94A51B60936E01709323
:102AC0006F01809370019093710169962CAD3DADBB
:102AD0004EAD5FAD69970E94751D0E94321E0E9427
:102AE000881C6093BA017093BB018093BC019093E2
:102AF000BD0140908E0150908F01609090017090C8
:102B0000910140928A0150928B0160928C017092E7
:102B10008D01C0909201D0909301E0909401F090CB
:102B20009501C0928E01D0928F01E0929001F092B7
:102B300091018090820190908301A0908401B090D7
:102B4000850180927E0190927F01A0928001B092D7
:102B500081018091860190918701A0918801B091B7
:102B60008901A1968CAF9DAFAEAFBFAFA197809307
:102B7000820190938301A0938401B093850127EB98
:102B800031E34DE651E46D966CAD7DAD8EAD9FADFC
:102B90006D970E94161C9B01AC016093920170938B
:102BA00093018093940190939501C301B2010E9417
:102BB000A51B2B013C01A7019601C701B6010E948C
:102BC000A51B9B01AC01C301B2010E94A51B6B01B7
:102BD0007C012BEB3AE543ED5EEBC501B4010E94AD
:102BE000751D9B01AC01C701B6010E94A51B6B01BD
:102BF0007C012FE23DE442E95FE3A1966CAD7DAD3F
:102C00008EAD9FADA1970E94751D9B01AC01C701C0
:102C1000B6010E94A51B6093860170938701809383
:102C200088019093890169962CAD3DAD4EAD5FADA5
:102C300069970E94751D0E94321E0E94881C609335
:102C4000B6017093B7018093B8019093B901409099
:102C5000A6015090A7016090A8017090A901409230
:102C6000A2015092A3016092A4017092A501C090AC
:102C7000AA01D090AB01E090AC01F090AD01C09200
:102C8000A601D092A701E092A801F092A90180903C
:102C90009A0190909B01A0909C01B0909D01809220
:102CA000960190929701A0929801B092990180911B
:102CB0009E0190919F01A091A001B091A1016D96FC
:102CC0008CAF9DAFAEAFBFAF6D9780939A019093DD
:102CD0009B01A0939C01B0939D0127EB31E34DE64E
:102CE00051E4A5966CAD7DAD8EAD9FADA5970E94CC
:102CF000161C9B01AC016093AA017093AB018093F9
:102D0000AC019093AD01C301B2010E94A51B2B0140
:102D10003C01A7019601C701B6010E94A51B9B01BA
:102D2000AC01C301B2010E94A51B6B017C012BEB1E
:102D30003AE543ED5EEBC501B4010E94751D9B01B0
:102D4000AC01C701B6010E94A51B6B017C012FE2FB
:102D50003DE442E95FE36D966CAD7DAD8EAD9FAD18
:102D60006D970E94751D9B01AC01C701B6010E94C1
:102D7000A51B60939E0170939F018093A001909387
:102D8000A10169962CAD3DAD4EAD5FAD69970E9436
:102D9000751D0E94321E0E94881C6093B2017093C0
:102DA000B3018093B4019093B501E091B001F0912B
:102DB000B101EA30F10521F01092AF011092AE019D
:102DC00080910001909101018E179F0721F0F093EF
:102DD0000101E0930001EB30F10508F067C1EC5C04
:102DE000FF4F0C94BA1F63E972E083EA92E05CC182
:102DF00026961FAE26971DAA62E872E0CE018B5B75
:102E00009F4F0E94451B20E030E0A9016091D20154
:102E10007091D3018091D4019091D5010E94111C31
:102E200087FF03C06FE772E002C06BE772E0CE017C
:102E3000C5960E94451B1DA24091D2015091D3011D
:102E40006091D4017091D50122E030E0CE018596E9
:102E50000E943B08BE016B5D7F4FCE01C5960E946C
:102E6000062165E772E0CE01C5960E94451B1DA2B2
:102E700040915A0350915B0360915C0370915D0334
:102E800048C026961FAE26971DAA64E672E0CE01C2
:102E90008B5B9F4F0E94451B20E030E0A9016091B1
:102EA000CE017091CF018091D0019091D1010E940B
:102EB000111C87FF03C061E672E002C06DE572E09D
:102EC000CE01C5960E94451B1DA24091CE01509196
:102ED000CF016091D0017091D10122E030E0CE01AC
:102EE00085960E943B08BE016B5D7F4FCE01C59663
:102EF0000E94062167E572E0CE01C5960E94451B3F
:102F00001DA2409156035091570360915803709150
:102F1000590320E030E0CE0185960E943B08BE01B7
:102F20006B5D7F4FCE01C5960E940621B0C02696EC
:102F30001FAE26971DAA66E472E0CE018B5B9F4F01
:102F40000E94451B20E030E0A9016091CA01709108
:102F5000CB018091CC019091CD010E94111C87FF83
:102F600003C063E472E002C06FE372E0CE01C59675
:102F70000E94451B1DA24091CA015091CB01609156
:102F8000CC017091CD0122E030E0CE0185960E9407
:102F90003B08BE016B5D7F4FCE01C5960E940621A6
:102FA00069E372E0CE01C5960E94451B1DA24091C7
:102FB0005203509153036091540370915503A9CF6C
:102FC00026961FAE26971DAA60E372E0CE018B5BAA
:102FD0009F4F0E94451B8091500390915103009791
:102FE00019F46CE272E004C0019739F463E272E014
:102FF000CE018B5B9F4F0E94451B67E172E043C08F
:1030000026961FAE26971DAA6CE072E0CE018B5B60
:103010009F4F0E94451B80914E0390914F03019753
:1030200039F467E072E0CE018B5B9F4F0E94451B35
:1030300080914E0390914F03029739F461E072E062
:10304000CE018B5B9F4F0E94451B65EF71E01BC05B
:1030500026961FAE26971DAA64EE71E0CE018B5B0B
:103060009F4F0E94451B66ED71E00DC026961FAE76
:1030700026971DAA66EC71E0CE018B5B9F4F0E94E4
:10308000451B68EB71E0CE01C5960E94451BBE0151
:103090006B5C7F4FCE018B5B9F4F0E94D00F06C0B1
:1030A00068E971E088EA91E00E949A0F8CE194E06F
:1030B0000E940D080E945A0F0E94BB0960E0809197
:1030C00028040E94780461E0809128040E9448044A
:1030D0000E946C0F0E946C0F0E94B4044B015C01B3
:1030E000A4E68A0E911CA11CB11CE12CF12C0E94BB
:1030F000B404681579058A059B0578F58CE194E0A0
:103100000E94CC021816190694F78CE194E00E94F4
:10311000CC021816190614F0E12C1AC08CE194E0C8
:103120000E94E302E82E809115048E11C4C14090E4
:10313000F0035090F1036090F2037090F3030E944B
:10314000B404461657066806790608F4B4C1E4CFFD
:10315000F12CE114F10459F2C7C1B0EFEB16F10400
:1031600009F4A6C1E114F10409F4A2C1E0EBEE16E2
:10317000F10409F48EC054F420E7E216F10401F1E1
:1031800080E9E816F10409F4FDC092C190EDE9165A
:10319000F10419F1A0EEEA16F10409F089C1809159
:1031A000B0019091B1018A30910509F481C1019675
:1031B0008830910569F41092B1011092B00178C184
:1031C0008091B0019091B101009709F471C101970C
:1031D0009093B1018093B0016BC18091B001909147
:1031E000B1018130910579F420E030E040E85FE3FF
:1031F00060915A0370915B0380915C0390915D0331
:103200000E94A51B5BC08230910579F420E030E07C
:1032100040E85FE360915603709157038091580333
:10322000909159030E94A51B63C08330910579F4E6
:1032300020E030E040E85FE3609152037091530377
:1032400080915403909155030E94A51B6BC084305C
:10325000910571F480915003909151038130910553
:1032600029F4109251031092500322C1019672C0AA
:10327000059709F01DC180914E0390914F03823054
:10328000910529F410934F0300934E0311C1019649
:1032900074C08091B0019091B10181309105B9F471
:1032A00020E030E040E85FE360915A0370915B03F7
:1032B00080915C0390915D030E94A41B60935A036C
:1032C00070935B0380935C0390935D03F1C0823045
:1032D0009105B9F420E030E040E85FE360915603E7
:1032E0007091570380915803909159030E94A41B39
:1032F0006093560370935703809358039093590338
:10330000D7C083309105B9F420E030E040E85FE3B6
:10331000609152037091530380915403909155032F
:103320000E94A41B60935203709353038093540331
:1033300090935503BDC08430910589F4809150036A
:1033400090915103009729F4109351030093500377
:10335000AFC001979093510380935003A9C0059784
:1033600009F0A6C080914E0390914F0381309105E2
:1033700019F482E090E001C0019790934F0380938D
:103380004E0396C08091B0019091B101069709F06B
:1033900050C010925A0310925B0310925C0310927B
:1033A0005D03109256031092570310925803109227
:1033B0005903109252031092530310925403109227
:1033C0005503109251031092500310924F03109224
:1033D0004E0360E080E090E00E9423086091560375
:1033E0007091570380915803909159030E948F1C4C
:1033F00081E090E00E942308609152037091530392
:1034000080915403909155030E948F1C82E090E0BC
:103410000E9423086091500383E090E00E942308FB
:1034200060914E0384E090E00E942308E0E0F0E029
:1034300009958091B0019091B1010797C9F560910C
:103440005A0370915B0380915C0390915D030E942D
:103450008F1C80E090E00E942308609156037091D9
:10346000570380915803909159030E948F1C81E06B
:1034700090E00E9423086091520370915303809161
:103480005403909155030E948F1C82E090E00E94AB
:1034900023086091500383E090E00E94230860912C
:1034A0004E0384E090E00E942308E0E0F0E00995FC
:1034B0000E94000F7BC90E94B404DC01CB0180573D
:1034C0009E4FAF4FBF4F8093F0039093F103A093B3
:1034D000F203B093F303E0921504F0EFEF1238CE4D
:1034E00080EFE82EF12C03CE20EFE216F10409F074
:1034F0003DCEDECF8DE491E090931D0480931C04BB
:103500008CE194E00C940D08E5EAF2E0138212825B
:1035100088EE93E0A0E0B0E084839583A683B78330
:103520002DE031E03183208325EC30E0358724879E
:1035300024EC30E03787268720EC30E0318B208B7D
:1035400021EC30E0338B228B22EC30E0358B248B66
:1035500026EC30E0378B268B118E128E138E148E54
:10356000E2E4F3E01382128284839583A683B78317
:103570002FE131E031832083ECE1F4E01382128209
:1035800084839583A683B7838DE491E091838083C0
:10359000A3E3B4E08C918E7F8C93128E118E148EE7
:1035A000138E168E158E12A211A21092F003109295
:1035B000F1031092F2031092F3031092EE031092B3
:1035C0006D0310926C031092EF0386EA92E09093E1
:1035D0001B0480931A04EEE5F3E08FE391E09183FE
:1035E00080838FEF9FEFDC0183839483A583B68371
:1035F0001086178281E0858780E090E00E94250890
:10360000682F70E080E090E00E94BE1C60935A0337
:1036100070935B0380935C0390935D0381E090E083
:103620000E942508682F70E080E090E00E94BE1C98
:1036300060935603709357038093580390935903F4
:1036400082E090E00E942508682F70E080E090E022
:103650000E94BE1C609352037093530380935403E3
:103660009093550383E090E00E94250890E09093AA
:1036700051038093500384E090E00E94250890E07D
:1036800090934F0380934E030895FB01DC010D904E
:103690000020E9F7119705900D920020E1F70895B9
:1036A000FC0105900020E9F7809590958E0F9F1FF3
:1036B0000895BB274A3031F4992322F4BDE2909556
:1036C00081959F4F0C94651BBB27FB015527AA27AB
:1036D000880F991FAA1FA41710F0A41B839550519F
:1036E000B9F7A05DAA3308F0A95DA193009779F717
:1036F000B111B1931192CB010C947E1BDC01FC0142
:10370000672F71917723E1F7329704C07C916D9315
:1037100070836291AE17BF07C8F30895F999FECF81
:1037200092BD81BDF89A992780B50895262FF99901
:10373000FECF1FBA92BD81BD20BD0FB6F894FA9A94
:10374000F99A0FBE019608955058BB27AA270E94E8
:10375000BC1B0C94361D0E94281D38F00E942F1DA2
:1037600020F039F49F3F19F426F40C94251D0EF433
:10377000E095E7FB0C941F1DE92F0E94471D58F3AD
:10378000BA17620773078407950720F079F4A6F546
:103790000C94691D0EF4E0950B2EBA2FA02D0B0191
:1037A000B90190010C01CA01A0011124FF27591B86
:1037B00099F0593F50F4503E68F11A16F040A22F8C
:1037C000232F342F4427585FF3CF469537952795FD
:1037D000A795F0405395C9F77EF41F16BA0B620BFC
:1037E000730B840BBAF09150A1F0FF0FBB1F661F43
:1037F000771F881FC2F70EC0BA0F621F731F841F86
:1038000048F4879577956795B795F7959E3F08F0AB
:10381000B0CF9395880F08F09927EE0F979587956D
:1038200008950E94FB1C08F481E008950E942A1C60
:103830000C94361D0E942F1D58F00E94281D40F048
:1038400029F45F3F29F00C941F1D51110C946A1D3F
:103850000C94251D0E94471D68F39923B1F355234D
:1038600091F3951B550BBB27AA2762177307840793
:1038700038F09F5F5F4F220F331F441FAA1FA9F329
:1038800035D00E2E3AF0E0E832D091505040E69517
:10389000001CCAF72BD0FE2F29D0660F771F881F78
:1038A000BB1F261737074807AB07B0E809F0BB0B6B
:1038B000802DBF01FF2793585F4F3AF09E3F51057F
:1038C00078F00C941F1D0C946A1D5F3FE4F3983E42
:1038D000D4F3869577956795B795F7959F5FC9F768
:1038E000880F911D9695879597F90895E1E0660FE9
:1038F000771F881FBB1F621773078407BA0720F062
:10390000621B730B840BBA0BEE1F88F7E0950895CA
:103910000E948F1C6894B1110C946A1D08950E9436
:103920004F1D88F09F5798F0B92F9927B751B0F0E5
:10393000E1F0660F771F881F991F1AF0BA95C9F733
:1039400014C0B13091F00E94691DB1E008950C944B
:10395000691D672F782F8827B85F39F0B93FCCF3FE
:10396000869577956795B395D9F73EF490958095B0
:10397000709561957F4F8F4F9F4F0895E89409C0D0
:1039800097FB3EF490958095709561957F4F8F4F92
:103990009F4F9923A9F0F92F96E9BB279395F695A8
:1039A000879577956795B795F111F8CFFAF4BB0F26
:1039B00011F460FF1BC06F5F7F4F8F4F9F4F16C08A
:1039C000882311F096E911C0772321F09EE8872F14
:1039D000762F05C0662371F096E8862F70E060E0D0
:1039E0002AF09A95660F771F881FDAF7880F969549
:1039F000879597F90895990F0008550FAA0BE0E8ED
:103A0000FEEF16161706E807F907C0F012161306A0
:103A1000E407F50798F0621B730B840B950B39F4E0
:103A20000A2661F0232B242B252B21F408950A2646
:103A300009F4A140A6958FEF811D811D089597F986
:103A40009F6780E870E060E008959FEF80EC089544
:103A500000240A941616170618060906089500246D
:103A60000A9412161306140605060895092E0394E7
:103A7000000C11F4882352F0BB0F40F4BF2B11F45B
:103A800060FF04C06F5F7F4F8F4F9F4F089557FDBA
:103A90009058440F551F59F05F3F71F04795880FBC
:103AA00097FB991F61F09F3F79F087950895121653
:103AB00013061406551FF2CF4695F1DF08C01616FF
:103AC00017061806991FF1CF8695710561050894B0
:103AD0000895E894BB2766277727CB0197F90895C7
:103AE0000E94FB1C08F48FEF08950E94881D0C941F
:103AF000361D0E94281D38F00E942F1D20F09523AE
:103B000011F00C941F1D0C94251D11240C946A1D9A
:103B10000E94471D70F3959FC1F3950F50E0551F0C
:103B2000629FF001729FBB27F00DB11D639FAA2712
:103B3000F00DB11DAA1F649F6627B00DA11D661F61
:103B4000829F2227B00DA11D621F739FB00DA11D82
:103B5000621F839FA00D611D221F749F3327A00D3C
:103B6000611D231F849F600D211D822F762F6A2FD8
:103B700011249F5750409AF0F1F088234AF0EE0F3D
:103B8000FF1FBB1F661F771F881F91505040A9F76A
:103B90009E3F510580F00C941F1D0C946A1D5F3FE1
:103BA000E4F3983ED4F3869577956795B795F795A6
:103BB000E7959F5FC1F7FE2B880F911D969587951E
:103BC00097F90895FA01EE0FFF1F30962105310590
:103BD000A1F16115710561F48038BFE39B0749F1DC
:103BE00068949038810561F08038BFEF9B0741F001
:103BF00099234AF5FF3FE1053105210519F1E894C4
:103C00000894E795D901AA2329F4AB2FBE2FF85FBA
:103C1000D0F310C0FF5F70F4A695E0F7F73950F0CD
:103C200019F0FF3A38F49F779F930DD00F9007FC5F
:103C30009058089546F00C94251D60E070E080E8EF
:103C40009FE308954FE79F775F934F933F932F93A1
:103C50000E942A1F2F913F914F915F910E94751DE5
:103C60000C945E1E0E944F1DE8F09E37E8F09639D6
:103C7000B8F49E3848F4672F782F8827985FF9CFDB
:103C800086957795679593959539D0F3B62FB17052
:103C90006B0F711D811D20F487957795679593951E
:103CA0000C94901E0C94AB1E0C946A1D29F416F013
:103CB0000C941F1D0C94691D0C94251D0E944F1D12
:103CC000A8F39638A0F707F80F92E8942BE33AEAA6
:103CD00048EB5FE70E948B1D0F920F920F924DB73A
:103CE0005EB70F920E94721FEEE7F0E00E94B91ECD
:103CF0004F915F91EF91FF91E595EE1FFF1F49F006
:103D0000FE57E0684427EE0F441FFA95E1F741950E
:103D1000550B0E94EC1E0F9007FE0C94E01E0895B8
:103D2000882371F4772321F09850872B762F07C0D2
:103D3000662311F499270DC09051862B70E060E046
:103D40002AF09A95660F771F881FDAF7880F9695E5
:103D5000879597F908959F3F31F0915020F487950A
:103D600077956795B795880F911D9695879597F9E3
:103D70000895DF93CF931F930F93FF92EF92DF92FB
:103D80007B018C01689406C0DA2EEF010E94881D29
:103D9000FE01E894A5912591359145915591A6F3A1
:103DA000EF010E94BC1BFE019701A801DA9469F79C
:103DB000DF90EF90FF900F911F91CF91DF910895C9
:103DC0009B01AC0160E070E080E89FE30C94161C5E
:103DD0000C941F1D0C94AB1E0E944F1DD8F3992309
:103DE000C9F3940F511DA3F39150504094F059F032
:103DF000882332F0660F771F881F91505040C1F71B
:103E00009E3F51052CF7880F911D9695879597F940
:103E100008955F3FACF0983E9CF0BB278695779560
:103E20006795B79508F4B1609395C1F7BB0F58F744
:103E300011F460FFE8CF6F5F7F4F8F4F9F4FE3CF4D
:103E40000C946A1D16F00C94AB1E0C94251D6894FE
:103E50000C941F1D0E944F1DA8F39923C1F3AEF3CC
:103E6000DF93CF931F930F93FF92C92FDD278823F2
:103E70002AF02197660F771F881FDAF720E030E0DD
:103E800040E85FEB9FE3883920F0803E38F02196D0
:103E90008F770E94A51BE6EAF0E004C00E94A51BF4
:103EA000E3EDF0E00E94B91E8B01BE01EC01FB2E98
:103EB0006F5771097595771F880B990B0E94C01C6D
:103EC00028E132E741E35FE30E94881DAF2D9801AE
:103ED000AE01FF900F911F91CF91DF910E94BC1B0B
:103EE0000C94361DFA01DC01AA0FBB1F9B01AC012B
:103EF000BF5728F4222733274427507820C0B751D2
:103F000090F4AB2F0024469537952795011CA39577
:103F1000D2F3002071F0220F331F441FB395DAF360
:103F20000ED00C94A41B61307105A0E88A07B94635
:103F300030F49B01AC01662777278827907830966C
:103F400021F02083318342835383089597FB072E0A
:103F500016F4009407D077FD09D00E94C01F07FC1B
:103F600005D03EF4909581959F4F08957095619589
:103F70007F4F0895EE0FFF1F0590F491E02D0994F7
:103F8000AA1BBB1B51E107C0AA1FBB1FA617B7077F
:103F900010F0A61BB70B881F991F5A95A9F780959B
:103FA0009095BC01CD010895CF93DF9382309105A8
:103FB00010F482E090E0E0914604F091470420E0A4
:103FC00030E0C0E0D0E0309711F1408151814817D6
:103FD0005907C0F04817590761F4828193812097EF
:103FE00019F09B838A832BC09093470480934604E7
:103FF00026C02115310519F04217530718F49A010C
:10400000BE01DF01EF010280F381E02DDCCF21153D
:10401000310509F1281B390B2430310590F4129633
:104020008D919C9113976115710521F0FB0193838C
:10403000828304C09093470480934604FD01329626
:1040400044C0FD01E20FF31F819391932250310987
:104050002D933C933AC02091440430914504232B86
:1040600041F42091050130910601309345042093DD
:10407000440420910301309104012115310541F4DC
:104080002DB73EB74091070150910801241B350B15
:10409000E0914404F0914504E217F307A0F42E1BCD
:1040A0003F0B2817390778F0AC014E5F5F4F24179C
:1040B000350748F04E0F5F1F50934504409344046A
:1040C0008193919302C0E0E0F0E0CF01DF91CF91C6
:1040D00008950F931F93CF93DF93009709F48CC03B
:1040E000FC0132971382128200914604109147041A
:1040F0000115110581F420813181820F931F2091D8
:104100004404309145042817390779F5F0934504A4
:10411000E093440471C0D80140E050E0AE17BF07FF
:1041200050F412962D913C911397AD012115310554
:1041300009F1D901F3CF9D01DA0133832283608134
:104140007181860F971F8217930769F4EC0128810C
:104150003981260F371F2E5F3F4F318320838A819D
:104160009B8193838283452B29F4F0934704E0934A
:10417000460442C01396FC93EE931297ED014991C9
:1041800059919E01240F351FE217F30771F48081C6
:104190009181840F951F029611969C938E93828134
:1041A000938113969C938E931297E0E0F0E0D801F0
:1041B00012968D919C911397009719F0F8018C013C
:1041C000F6CF8D919C9198012E5F3F4F820F931FE8
:1041D00020914404309145042817390769F4309739
:1041E00029F4109247041092460402C013821282EE
:1041F0001093450400934404DF91CF911F910F91D8
:10420000089581E090E0F8940C942021FB01DC01FA
:104210000D900020E9F7119701900D920020E1F731
:104220000895FB01DC014150504048F001900D928F
:104230000020C9F701C01D9241505040E0F7089599
:1042400011E0CAE6D1E004C0FE010E94BA1F219627
:0A425000CB36D107C9F7F894FFCF71
:10425A0001000600004804800000000000351095A7
:10426A0001C30E7C10F40ED20EE60E000000007799
:10427A0002470205031B023F022B021C0200000038
:10428A0000000000000803090309030000000027DA
:10429A0008EE030803C30515030000000062039536
:1042AA00010503CB02CC02E302B3020D0A0041442A
:0642BA00584C33343500BE
:00000001FF
